{
	"contracts/ChronaxRegistry.sol": {
		"ChronaXRegistryV2": {
			"abi": [
				{
					"inputs": [],
					"stateMutability": "nonpayable",
					"type": "constructor"
				},
				{
					"inputs": [
						{
							"internalType": "address",
							"name": "target",
							"type": "address"
						}
					],
					"name": "AddressEmptyCode",
					"type": "error"
				},
				{
					"inputs": [
						{
							"internalType": "address",
							"name": "implementation",
							"type": "address"
						}
					],
					"name": "ERC1967InvalidImplementation",
					"type": "error"
				},
				{
					"inputs": [],
					"name": "ERC1967NonPayable",
					"type": "error"
				},
				{
					"inputs": [],
					"name": "FailedCall",
					"type": "error"
				},
				{
					"inputs": [],
					"name": "InvalidInitialization",
					"type": "error"
				},
				{
					"inputs": [],
					"name": "NotInitializing",
					"type": "error"
				},
				{
					"inputs": [
						{
							"internalType": "address",
							"name": "owner",
							"type": "address"
						}
					],
					"name": "OwnableInvalidOwner",
					"type": "error"
				},
				{
					"inputs": [
						{
							"internalType": "address",
							"name": "account",
							"type": "address"
						}
					],
					"name": "OwnableUnauthorizedAccount",
					"type": "error"
				},
				{
					"inputs": [],
					"name": "UUPSUnauthorizedCallContext",
					"type": "error"
				},
				{
					"inputs": [
						{
							"internalType": "bytes32",
							"name": "slot",
							"type": "bytes32"
						}
					],
					"name": "UUPSUnsupportedProxiableUUID",
					"type": "error"
				},
				{
					"anonymous": false,
					"inputs": [
						{
							"indexed": true,
							"internalType": "bytes32",
							"name": "docHash",
							"type": "bytes32"
						},
						{
							"indexed": true,
							"internalType": "address",
							"name": "owner",
							"type": "address"
						},
						{
							"indexed": false,
							"internalType": "uint256",
							"name": "timestamp",
							"type": "uint256"
						}
					],
					"name": "DocumentRegistered",
					"type": "event"
				},
				{
					"anonymous": false,
					"inputs": [
						{
							"indexed": false,
							"internalType": "uint64",
							"name": "version",
							"type": "uint64"
						}
					],
					"name": "Initialized",
					"type": "event"
				},
				{
					"anonymous": false,
					"inputs": [
						{
							"indexed": true,
							"internalType": "address",
							"name": "previousOwner",
							"type": "address"
						},
						{
							"indexed": true,
							"internalType": "address",
							"name": "newOwner",
							"type": "address"
						}
					],
					"name": "OwnershipTransferred",
					"type": "event"
				},
				{
					"anonymous": false,
					"inputs": [
						{
							"indexed": true,
							"internalType": "bytes32",
							"name": "docHash",
							"type": "bytes32"
						},
						{
							"indexed": true,
							"internalType": "address",
							"name": "previousOwner",
							"type": "address"
						},
						{
							"indexed": true,
							"internalType": "address",
							"name": "newOwner",
							"type": "address"
						}
					],
					"name": "OwnershipTransferred",
					"type": "event"
				},
				{
					"anonymous": false,
					"inputs": [
						{
							"indexed": true,
							"internalType": "address",
							"name": "implementation",
							"type": "address"
						}
					],
					"name": "Upgraded",
					"type": "event"
				},
				{
					"inputs": [],
					"name": "UPGRADE_INTERFACE_VERSION",
					"outputs": [
						{
							"internalType": "string",
							"name": "",
							"type": "string"
						}
					],
					"stateMutability": "view",
					"type": "function"
				},
				{
					"inputs": [
						{
							"internalType": "bytes32[]",
							"name": "docHashes",
							"type": "bytes32[]"
						}
					],
					"name": "batchRegister",
					"outputs": [],
					"stateMutability": "nonpayable",
					"type": "function"
				},
				{
					"inputs": [
						{
							"internalType": "bytes32",
							"name": "docHash",
							"type": "bytes32"
						}
					],
					"name": "getRecord",
					"outputs": [
						{
							"internalType": "address",
							"name": "",
							"type": "address"
						},
						{
							"internalType": "uint256",
							"name": "",
							"type": "uint256"
						}
					],
					"stateMutability": "view",
					"type": "function"
				},
				{
					"inputs": [
						{
							"internalType": "address",
							"name": "_priceFeed",
							"type": "address"
						}
					],
					"name": "initialize",
					"outputs": [],
					"stateMutability": "nonpayable",
					"type": "function"
				},
				{
					"inputs": [
						{
							"internalType": "bytes32",
							"name": "docHash",
							"type": "bytes32"
						}
					],
					"name": "isRegistered",
					"outputs": [
						{
							"internalType": "bool",
							"name": "",
							"type": "bool"
						}
					],
					"stateMutability": "view",
					"type": "function"
				},
				{
					"inputs": [],
					"name": "owner",
					"outputs": [
						{
							"internalType": "address",
							"name": "",
							"type": "address"
						}
					],
					"stateMutability": "view",
					"type": "function"
				},
				{
					"inputs": [],
					"name": "proxiableUUID",
					"outputs": [
						{
							"internalType": "bytes32",
							"name": "",
							"type": "bytes32"
						}
					],
					"stateMutability": "view",
					"type": "function"
				},
				{
					"inputs": [
						{
							"internalType": "bytes32",
							"name": "",
							"type": "bytes32"
						}
					],
					"name": "records",
					"outputs": [
						{
							"internalType": "address",
							"name": "owner",
							"type": "address"
						},
						{
							"internalType": "uint256",
							"name": "timestamp",
							"type": "uint256"
						}
					],
					"stateMutability": "view",
					"type": "function"
				},
				{
					"inputs": [
						{
							"internalType": "bytes32",
							"name": "docHash",
							"type": "bytes32"
						}
					],
					"name": "register",
					"outputs": [],
					"stateMutability": "nonpayable",
					"type": "function"
				},
				{
					"inputs": [],
					"name": "renounceOwnership",
					"outputs": [],
					"stateMutability": "nonpayable",
					"type": "function"
				},
				{
					"inputs": [
						{
							"internalType": "bytes32",
							"name": "docHash",
							"type": "bytes32"
						},
						{
							"internalType": "address",
							"name": "newOwner",
							"type": "address"
						}
					],
					"name": "transferOwnership",
					"outputs": [],
					"stateMutability": "nonpayable",
					"type": "function"
				},
				{
					"inputs": [
						{
							"internalType": "address",
							"name": "newOwner",
							"type": "address"
						}
					],
					"name": "transferOwnership",
					"outputs": [],
					"stateMutability": "nonpayable",
					"type": "function"
				},
				{
					"inputs": [
						{
							"internalType": "address",
							"name": "newImplementation",
							"type": "address"
						},
						{
							"internalType": "bytes",
							"name": "data",
							"type": "bytes"
						}
					],
					"name": "upgradeToAndCall",
					"outputs": [],
					"stateMutability": "payable",
					"type": "function"
				}
			],
			"devdoc": {
				"author": "Thopaz Arief Malino (Developed Version)",
				"errors": {
					"AddressEmptyCode(address)": [
						{
							"details": "There's no code at `target` (it is not a contract)."
						}
					],
					"ERC1967InvalidImplementation(address)": [
						{
							"details": "The `implementation` of the proxy is invalid."
						}
					],
					"ERC1967NonPayable()": [
						{
							"details": "An upgrade function sees `msg.value > 0` that may be lost."
						}
					],
					"FailedCall()": [
						{
							"details": "A call to an address target failed. The target may have reverted."
						}
					],
					"InvalidInitialization()": [
						{
							"details": "The contract is already initialized."
						}
					],
					"NotInitializing()": [
						{
							"details": "The contract is not initializing."
						}
					],
					"OwnableInvalidOwner(address)": [
						{
							"details": "The owner is not a valid owner account. (eg. `address(0)`)"
						}
					],
					"OwnableUnauthorizedAccount(address)": [
						{
							"details": "The caller account is not authorized to perform an operation."
						}
					],
					"UUPSUnauthorizedCallContext()": [
						{
							"details": "The call is from an unauthorized context."
						}
					],
					"UUPSUnsupportedProxiableUUID(bytes32)": [
						{
							"details": "The storage `slot` is unsupported as a UUID."
						}
					]
				},
				"events": {
					"Initialized(uint64)": {
						"details": "Triggered when the contract has been initialized or reinitialized."
					},
					"Upgraded(address)": {
						"details": "Emitted when the implementation is upgraded."
					}
				},
				"kind": "dev",
				"methods": {
					"batchRegister(bytes32[])": {
						"params": {
							"docHashes": "Array of SHA-256 hashes"
						}
					},
					"constructor": {
						"custom:oz-upgrades-unsafe-allow": "constructor"
					},
					"initialize(address)": {
						"params": {
							"_priceFeed": "Address of Chainlink price feed for timestamp"
						}
					},
					"owner()": {
						"details": "Returns the address of the current owner."
					},
					"proxiableUUID()": {
						"details": "Implementation of the ERC-1822 {proxiableUUID} function. This returns the storage slot used by the implementation. It is used to validate the implementation's compatibility when performing an upgrade. IMPORTANT: A proxy pointing at a proxiable contract should not be considered proxiable itself, because this risks bricking a proxy that upgrades to it, by delegating to itself until out of gas. Thus it is critical that this function revert if invoked through a proxy. This is guaranteed by the `notDelegated` modifier."
					},
					"register(bytes32)": {
						"params": {
							"docHash": "SHA-256 hash of the file"
						}
					},
					"renounceOwnership()": {
						"details": "Leaves the contract without owner. It will not be possible to call `onlyOwner` functions. Can only be called by the current owner. NOTE: Renouncing ownership will leave the contract without an owner, thereby disabling any functionality that is only available to the owner."
					},
					"transferOwnership(address)": {
						"details": "Transfers ownership of the contract to a new account (`newOwner`). Can only be called by the current owner."
					},
					"transferOwnership(bytes32,address)": {
						"params": {
							"docHash": "Hash to transfer",
							"newOwner": "New owner address"
						}
					},
					"upgradeToAndCall(address,bytes)": {
						"custom:oz-upgrades-unsafe-allow-reachable": "delegatecall",
						"details": "Upgrade the implementation of the proxy to `newImplementation`, and subsequently execute the function call encoded in `data`. Calls {_authorizeUpgrade}. Emits an {Upgraded} event."
					}
				},
				"title": "ChronaXRegistryV2",
				"version": 1
			},
			"evm": {
				"assembly": "    /* \"contracts/ChronaxRegistry.sol\":590:4054  contract ChronaXRegistryV2 is Initializable, UUPSUpgradeable, OwnableUpgradeable {... */\n  mstore(0x40, 0xa0)\n    /* \"@openzeppelin/contracts-upgradeable/proxy/utils/UUPSUpgradeable.sol\":1171:1175  this */\n  address\n    /* \"@openzeppelin/contracts-upgradeable/proxy/utils/UUPSUpgradeable.sol\":1128:1176  address private immutable __self = address(this) */\n  0xffffffffffffffffffffffffffffffffffffffff\n  and\n  0x80\n  swap1\n  0xffffffffffffffffffffffffffffffffffffffff\n  and\n  dup2\n  mstore\n  pop\n    /* \"contracts/ChronaxRegistry.sol\":1225:1278  constructor() {... */\n  callvalue\n  dup1\n  iszero\n  tag_1\n  jumpi\n  revert(0x00, 0x00)\ntag_1:\n  pop\n    /* \"contracts/ChronaxRegistry.sol\":1249:1271  _disableInitializers() */\n  tag_4\n    /* \"contracts/ChronaxRegistry.sol\":1249:1269  _disableInitializers */\n  shl(0x20, tag_5)\n    /* \"contracts/ChronaxRegistry.sol\":1249:1271  _disableInitializers() */\n  0x20\n  shr\n  jump\t// in\ntag_4:\n    /* \"contracts/ChronaxRegistry.sol\":590:4054  contract ChronaXRegistryV2 is Initializable, UUPSUpgradeable, OwnableUpgradeable {... */\n  jump(tag_6)\n    /* \"@openzeppelin/contracts-upgradeable/proxy/utils/Initializable.sol\":7709:8131  function _disableInitializers() internal virtual {... */\ntag_5:\n    /* \"@openzeppelin/contracts-upgradeable/proxy/utils/Initializable.sol\":7824:7854  InitializableStorage storage $ */\n  0x00\n    /* \"@openzeppelin/contracts-upgradeable/proxy/utils/Initializable.sol\":7857:7883  _getInitializableStorage() */\n  tag_8\n    /* \"@openzeppelin/contracts-upgradeable/proxy/utils/Initializable.sol\":7857:7881  _getInitializableStorage */\n  shl(0x20, tag_9)\n    /* \"@openzeppelin/contracts-upgradeable/proxy/utils/Initializable.sol\":7857:7883  _getInitializableStorage() */\n  0x20\n  shr\n  jump\t// in\ntag_8:\n    /* \"@openzeppelin/contracts-upgradeable/proxy/utils/Initializable.sol\":7824:7883  InitializableStorage storage $ = _getInitializableStorage() */\n  swap1\n  pop\n    /* \"@openzeppelin/contracts-upgradeable/proxy/utils/Initializable.sol\":7898:7899  $ */\n  dup1\n    /* \"@openzeppelin/contracts-upgradeable/proxy/utils/Initializable.sol\":7898:7913  $._initializing */\n  0x00\n  add\n  0x08\n  swap1\n  sload\n  swap1\n  0x0100\n  exp\n  swap1\n  div\n  0xff\n  and\n    /* \"@openzeppelin/contracts-upgradeable/proxy/utils/Initializable.sol\":7894:7970  if ($._initializing) {... */\n  iszero\n  tag_10\n  jumpi\n    /* \"@openzeppelin/contracts-upgradeable/proxy/utils/Initializable.sol\":7936:7959  InvalidInitialization() */\n  mload(0x40)\n  0xf92ee8a900000000000000000000000000000000000000000000000000000000\n  dup2\n  mstore\n  0x04\n  add\n  mload(0x40)\n  dup1\n  swap2\n  sub\n  swap1\n  revert\n    /* \"@openzeppelin/contracts-upgradeable/proxy/utils/Initializable.sol\":7894:7970  if ($._initializing) {... */\ntag_10:\n    /* \"@openzeppelin/contracts-upgradeable/proxy/utils/Initializable.sol\":8001:8017  type(uint64).max */\n  0xffffffffffffffff\n    /* \"@openzeppelin/contracts-upgradeable/proxy/utils/Initializable.sol\":7983:8017  $._initialized != type(uint64).max */\n  dup1\n  and\n    /* \"@openzeppelin/contracts-upgradeable/proxy/utils/Initializable.sol\":7983:7984  $ */\n  dup2\n    /* \"@openzeppelin/contracts-upgradeable/proxy/utils/Initializable.sol\":7983:7997  $._initialized */\n  0x00\n  add\n  0x00\n  swap1\n  sload\n  swap1\n  0x0100\n  exp\n  swap1\n  div\n  0xffffffffffffffff\n  and\n    /* \"@openzeppelin/contracts-upgradeable/proxy/utils/Initializable.sol\":7983:8017  $._initialized != type(uint64).max */\n  0xffffffffffffffff\n  and\n  eq\n    /* \"@openzeppelin/contracts-upgradeable/proxy/utils/Initializable.sol\":7979:8125  if ($._initialized != type(uint64).max) {... */\n  tag_11\n  jumpi\n    /* \"@openzeppelin/contracts-upgradeable/proxy/utils/Initializable.sol\":8050:8066  type(uint64).max */\n  0xffffffffffffffff\n    /* \"@openzeppelin/contracts-upgradeable/proxy/utils/Initializable.sol\":8033:8034  $ */\n  dup2\n    /* \"@openzeppelin/contracts-upgradeable/proxy/utils/Initializable.sol\":8033:8047  $._initialized */\n  0x00\n  add\n  0x00\n    /* \"@openzeppelin/contracts-upgradeable/proxy/utils/Initializable.sol\":8033:8066  $._initialized = type(uint64).max */\n  0x0100\n  exp\n  dup2\n  sload\n  dup2\n  0xffffffffffffffff\n  mul\n  not\n  and\n  swap1\n  dup4\n  0xffffffffffffffff\n  and\n  mul\n  or\n  swap1\n  sstore\n  pop\n    /* \"@openzeppelin/contracts-upgradeable/proxy/utils/Initializable.sol\":8085:8114  Initialized(type(uint64).max) */\n  0xc7f505b2f371ae2175ee4913f4499e1f2633a7b5936321eed1cdaeb6115181d2\n    /* \"@openzeppelin/contracts-upgradeable/proxy/utils/Initializable.sol\":8097:8113  type(uint64).max */\n  0xffffffffffffffff\n    /* \"@openzeppelin/contracts-upgradeable/proxy/utils/Initializable.sol\":8085:8114  Initialized(type(uint64).max) */\n  mload(0x40)\n  tag_12\n  swap2\n  swap1\n  tag_13\n  jump\t// in\ntag_12:\n  mload(0x40)\n  dup1\n  swap2\n  sub\n  swap1\n  log1\n    /* \"@openzeppelin/contracts-upgradeable/proxy/utils/Initializable.sol\":7979:8125  if ($._initialized != type(uint64).max) {... */\ntag_11:\n    /* \"@openzeppelin/contracts-upgradeable/proxy/utils/Initializable.sol\":7758:8131  {... */\n  pop\n    /* \"@openzeppelin/contracts-upgradeable/proxy/utils/Initializable.sol\":7709:8131  function _disableInitializers() internal virtual {... */\n  jump\t// out\n    /* \"@openzeppelin/contracts-upgradeable/proxy/utils/Initializable.sol\":9071:9276  function _getInitializableStorage() private pure returns (InitializableStorage storage $) {... */\ntag_9:\n    /* \"@openzeppelin/contracts-upgradeable/proxy/utils/Initializable.sol\":9129:9159  InitializableStorage storage $ */\n  0x00\n    /* \"@openzeppelin/contracts-upgradeable/proxy/utils/Initializable.sol\":9171:9183  bytes32 slot */\n  0x00\n    /* \"@openzeppelin/contracts-upgradeable/proxy/utils/Initializable.sol\":9186:9213  _initializableStorageSlot() */\n  tag_15\n    /* \"@openzeppelin/contracts-upgradeable/proxy/utils/Initializable.sol\":9186:9211  _initializableStorageSlot */\n  shl(0x20, tag_16)\n    /* \"@openzeppelin/contracts-upgradeable/proxy/utils/Initializable.sol\":9186:9213  _initializableStorageSlot() */\n  0x20\n  shr\n  jump\t// in\ntag_15:\n    /* \"@openzeppelin/contracts-upgradeable/proxy/utils/Initializable.sol\":9171:9213  bytes32 slot = _initializableStorageSlot() */\n  swap1\n  pop\n    /* \"@openzeppelin/contracts-upgradeable/proxy/utils/Initializable.sol\":9256:9260  slot */\n  dup1\n    /* \"@openzeppelin/contracts-upgradeable/proxy/utils/Initializable.sol\":9246:9260  $.slot := slot */\n  swap2\n  pop\n    /* \"@openzeppelin/contracts-upgradeable/proxy/utils/Initializable.sol\":9232:9270  {... */\n  pop\n    /* \"@openzeppelin/contracts-upgradeable/proxy/utils/Initializable.sol\":9071:9276  function _getInitializableStorage() private pure returns (InitializableStorage storage $) {... */\n  swap1\n  jump\t// out\n    /* \"@openzeppelin/contracts-upgradeable/proxy/utils/Initializable.sol\":8819:8941  function _initializableStorageSlot() internal pure virtual returns (bytes32) {... */\ntag_16:\n    /* \"@openzeppelin/contracts-upgradeable/proxy/utils/Initializable.sol\":8887:8894  bytes32 */\n  0x00\n    /* \"@openzeppelin/contracts-upgradeable/proxy/utils/Initializable.sol\":3147:3213  0xf0c57e16840df040f15088dc2f81fe391c3923bec73e23a9662efc9c229c6a00 */\n  0xf0c57e16840df040f15088dc2f81fe391c3923bec73e23a9662efc9c229c6a00\n    /* \"@openzeppelin/contracts-upgradeable/proxy/utils/Initializable.sol\":8913:8934  INITIALIZABLE_STORAGE */\n  0x00\n  shl\n    /* \"@openzeppelin/contracts-upgradeable/proxy/utils/Initializable.sol\":8906:8934  return INITIALIZABLE_STORAGE */\n  swap1\n  pop\n    /* \"@openzeppelin/contracts-upgradeable/proxy/utils/Initializable.sol\":8819:8941  function _initializableStorageSlot() internal pure virtual returns (bytes32) {... */\n  swap1\n  jump\t// out\n    /* \"#utility.yul\":7:108   */\ntag_18:\n    /* \"#utility.yul\":43:50   */\n  0x00\n    /* \"#utility.yul\":83:101   */\n  0xffffffffffffffff\n    /* \"#utility.yul\":76:81   */\n  dup3\n    /* \"#utility.yul\":72:102   */\n  and\n    /* \"#utility.yul\":61:102   */\n  swap1\n  pop\n    /* \"#utility.yul\":7:108   */\n  swap2\n  swap1\n  pop\n  jump\t// out\n    /* \"#utility.yul\":114:229   */\ntag_19:\n    /* \"#utility.yul\":199:222   */\n  tag_23\n    /* \"#utility.yul\":216:221   */\n  dup2\n    /* \"#utility.yul\":199:222   */\n  tag_18\n  jump\t// in\ntag_23:\n    /* \"#utility.yul\":194:197   */\n  dup3\n    /* \"#utility.yul\":187:223   */\n  mstore\n    /* \"#utility.yul\":114:229   */\n  pop\n  pop\n  jump\t// out\n    /* \"#utility.yul\":235:453   */\ntag_13:\n    /* \"#utility.yul\":326:330   */\n  0x00\n    /* \"#utility.yul\":364:366   */\n  0x20\n    /* \"#utility.yul\":353:362   */\n  dup3\n    /* \"#utility.yul\":349:367   */\n  add\n    /* \"#utility.yul\":341:367   */\n  swap1\n  pop\n    /* \"#utility.yul\":377:446   */\n  tag_25\n    /* \"#utility.yul\":443:444   */\n  0x00\n    /* \"#utility.yul\":432:441   */\n  dup4\n    /* \"#utility.yul\":428:445   */\n  add\n    /* \"#utility.yul\":419:425   */\n  dup5\n    /* \"#utility.yul\":377:446   */\n  tag_19\n  jump\t// in\ntag_25:\n    /* \"#utility.yul\":235:453   */\n  swap3\n  swap2\n  pop\n  pop\n  jump\t// out\n    /* \"contracts/ChronaxRegistry.sol\":590:4054  contract ChronaXRegistryV2 is Initializable, UUPSUpgradeable, OwnableUpgradeable {... */\ntag_6:\n  mload(0x80)\n  codecopy(0x00, dataOffset(sub_0), dataSize(sub_0))\n  0x00\n  assignImmutable(\"0xacd088948164483a37f73989f1c27b47a5586ebd1d004d9f6dfdcef17082f275\")\n  return(0x00, dataSize(sub_0))\nstop\n\nsub_0: assembly {\n        /* \"contracts/ChronaxRegistry.sol\":590:4054  contract ChronaXRegistryV2 is Initializable, UUPSUpgradeable, OwnableUpgradeable {... */\n      mstore(0x40, 0x80)\n      jumpi(tag_1, lt(calldatasize, 0x04))\n      shr(0xe0, calldataload(0x00))\n      dup1\n      0x715018a6\n      gt\n      tag_15\n      jumpi\n      dup1\n      0xc4d66de8\n      gt\n      tag_16\n      jumpi\n      dup1\n      0xc4d66de8\n      eq\n      tag_11\n      jumpi\n      dup1\n      0xe1fa8e84\n      eq\n      tag_12\n      jumpi\n      dup1\n      0xef5d6bbb\n      eq\n      tag_13\n      jumpi\n      dup1\n      0xf2fde38b\n      eq\n      tag_14\n      jumpi\n      jump(tag_1)\n    tag_16:\n      dup1\n      0x715018a6\n      eq\n      tag_8\n      jumpi\n      dup1\n      0x8da5cb5b\n      eq\n      tag_9\n      jumpi\n      dup1\n      0xad3cb1cc\n      eq\n      tag_10\n      jumpi\n      jump(tag_1)\n    tag_15:\n      dup1\n      0x01e64725\n      eq\n      tag_2\n      jumpi\n      dup1\n      0x213681cd\n      eq\n      tag_3\n      jumpi\n      dup1\n      0x27258b22\n      eq\n      tag_4\n      jumpi\n      dup1\n      0x4f1ef286\n      eq\n      tag_5\n      jumpi\n      dup1\n      0x52d1902d\n      eq\n      tag_6\n      jumpi\n      dup1\n      0x57b77c64\n      eq\n      tag_7\n      jumpi\n    tag_1:\n      revert(0x00, 0x00)\n        /* \"contracts/ChronaxRegistry.sol\":912:953  mapping(bytes32 => Record) public records */\n    tag_2:\n      callvalue\n      dup1\n      iszero\n      tag_17\n      jumpi\n      revert(0x00, 0x00)\n    tag_17:\n      pop\n      tag_18\n      0x04\n      dup1\n      calldatasize\n      sub\n      dup2\n      add\n      swap1\n      tag_19\n      swap2\n      swap1\n      tag_20\n      jump\t// in\n    tag_19:\n      tag_21\n      jump\t// in\n    tag_18:\n      mload(0x40)\n      tag_22\n      swap3\n      swap2\n      swap1\n      tag_23\n      jump\t// in\n    tag_22:\n      mload(0x40)\n      dup1\n      swap2\n      sub\n      swap1\n      return\n        /* \"contracts/ChronaxRegistry.sol\":3727:3900  function getRecord(bytes32 docHash) external view returns (address, uint256) {... */\n    tag_3:\n      callvalue\n      dup1\n      iszero\n      tag_24\n      jumpi\n      revert(0x00, 0x00)\n    tag_24:\n      pop\n      tag_25\n      0x04\n      dup1\n      calldatasize\n      sub\n      dup2\n      add\n      swap1\n      tag_26\n      swap2\n      swap1\n      tag_20\n      jump\t// in\n    tag_26:\n      tag_27\n      jump\t// in\n    tag_25:\n      mload(0x40)\n      tag_28\n      swap3\n      swap2\n      swap1\n      tag_23\n      jump\t// in\n    tag_28:\n      mload(0x40)\n      dup1\n      swap2\n      sub\n      swap1\n      return\n        /* \"contracts/ChronaxRegistry.sol\":3538:3661  function isRegistered(bytes32 docHash) external view returns (bool) {... */\n    tag_4:\n      callvalue\n      dup1\n      iszero\n      tag_29\n      jumpi\n      revert(0x00, 0x00)\n    tag_29:\n      pop\n      tag_30\n      0x04\n      dup1\n      calldatasize\n      sub\n      dup2\n      add\n      swap1\n      tag_31\n      swap2\n      swap1\n      tag_20\n      jump\t// in\n    tag_31:\n      tag_32\n      jump\t// in\n    tag_30:\n      mload(0x40)\n      tag_33\n      swap2\n      swap1\n      tag_34\n      jump\t// in\n    tag_33:\n      mload(0x40)\n      dup1\n      swap2\n      sub\n      swap1\n      return\n        /* \"@openzeppelin/contracts-upgradeable/proxy/utils/UUPSUpgradeable.sol\":4161:4375  function upgradeToAndCall(address newImplementation, bytes memory data) public payable virtual onlyProxy {... */\n    tag_5:\n      tag_35\n      0x04\n      dup1\n      calldatasize\n      sub\n      dup2\n      add\n      swap1\n      tag_36\n      swap2\n      swap1\n      tag_37\n      jump\t// in\n    tag_36:\n      tag_38\n      jump\t// in\n    tag_35:\n      stop\n        /* \"@openzeppelin/contracts-upgradeable/proxy/utils/UUPSUpgradeable.sol\":3708:3842  function proxiableUUID() external view virtual notDelegated returns (bytes32) {... */\n    tag_6:\n      callvalue\n      dup1\n      iszero\n      tag_39\n      jumpi\n      revert(0x00, 0x00)\n    tag_39:\n      pop\n      tag_40\n      tag_41\n      jump\t// in\n    tag_40:\n      mload(0x40)\n      tag_42\n      swap2\n      swap1\n      tag_43\n      jump\t// in\n    tag_42:\n      mload(0x40)\n      dup1\n      swap2\n      sub\n      swap1\n      return\n        /* \"contracts/ChronaxRegistry.sol\":2389:2991  function batchRegister(bytes32[] calldata docHashes) external onlyOwner {... */\n    tag_7:\n      callvalue\n      dup1\n      iszero\n      tag_44\n      jumpi\n      revert(0x00, 0x00)\n    tag_44:\n      pop\n      tag_45\n      0x04\n      dup1\n      calldatasize\n      sub\n      dup2\n      add\n      swap1\n      tag_46\n      swap2\n      swap1\n      tag_47\n      jump\t// in\n    tag_46:\n      tag_48\n      jump\t// in\n    tag_45:\n      stop\n        /* \"@openzeppelin/contracts-upgradeable/access/OwnableUpgradeable.sol\":3155:3256  function renounceOwnership() public virtual onlyOwner {... */\n    tag_8:\n      callvalue\n      dup1\n      iszero\n      tag_49\n      jumpi\n      revert(0x00, 0x00)\n    tag_49:\n      pop\n      tag_50\n      tag_51\n      jump\t// in\n    tag_50:\n      stop\n        /* \"@openzeppelin/contracts-upgradeable/access/OwnableUpgradeable.sol\":2441:2585  function owner() public view virtual returns (address) {... */\n    tag_9:\n      callvalue\n      dup1\n      iszero\n      tag_52\n      jumpi\n      revert(0x00, 0x00)\n    tag_52:\n      pop\n      tag_53\n      tag_54\n      jump\t// in\n    tag_53:\n      mload(0x40)\n      tag_55\n      swap2\n      swap1\n      tag_56\n      jump\t// in\n    tag_55:\n      mload(0x40)\n      dup1\n      swap2\n      sub\n      swap1\n      return\n        /* \"@openzeppelin/contracts-upgradeable/proxy/utils/UUPSUpgradeable.sol\":1819:1877  string public constant UPGRADE_INTERFACE_VERSION = \"5.0.0\" */\n    tag_10:\n      callvalue\n      dup1\n      iszero\n      tag_57\n      jumpi\n      revert(0x00, 0x00)\n    tag_57:\n      pop\n      tag_58\n      tag_59\n      jump\t// in\n    tag_58:\n      mload(0x40)\n      tag_60\n      swap2\n      swap1\n      tag_61\n      jump\t// in\n    tag_60:\n      mload(0x40)\n      dup1\n      swap2\n      sub\n      swap1\n      return\n        /* \"contracts/ChronaxRegistry.sol\":1434:1625  function initialize(address _priceFeed) public initializer {... */\n    tag_11:\n      callvalue\n      dup1\n      iszero\n      tag_62\n      jumpi\n      revert(0x00, 0x00)\n    tag_62:\n      pop\n      tag_63\n      0x04\n      dup1\n      calldatasize\n      sub\n      dup2\n      add\n      swap1\n      tag_64\n      swap2\n      swap1\n      tag_65\n      jump\t// in\n    tag_64:\n      tag_66\n      jump\t// in\n    tag_63:\n      stop\n        /* \"contracts/ChronaxRegistry.sol\":1756:2254  function register(bytes32 docHash) external onlyOwner {... */\n    tag_12:\n      callvalue\n      dup1\n      iszero\n      tag_67\n      jumpi\n      revert(0x00, 0x00)\n    tag_67:\n      pop\n      tag_68\n      0x04\n      dup1\n      calldatasize\n      sub\n      dup2\n      add\n      swap1\n      tag_69\n      swap2\n      swap1\n      tag_20\n      jump\t// in\n    tag_69:\n      tag_70\n      jump\t// in\n    tag_68:\n      stop\n        /* \"contracts/ChronaxRegistry.sol\":3148:3470  function transferOwnership(bytes32 docHash, address newOwner) external {... */\n    tag_13:\n      callvalue\n      dup1\n      iszero\n      tag_71\n      jumpi\n      revert(0x00, 0x00)\n    tag_71:\n      pop\n      tag_72\n      0x04\n      dup1\n      calldatasize\n      sub\n      dup2\n      add\n      swap1\n      tag_73\n      swap2\n      swap1\n      tag_74\n      jump\t// in\n    tag_73:\n      tag_75\n      jump\t// in\n    tag_72:\n      stop\n        /* \"@openzeppelin/contracts-upgradeable/access/OwnableUpgradeable.sol\":3405:3620  function transferOwnership(address newOwner) public virtual onlyOwner {... */\n    tag_14:\n      callvalue\n      dup1\n      iszero\n      tag_76\n      jumpi\n      revert(0x00, 0x00)\n    tag_76:\n      pop\n      tag_77\n      0x04\n      dup1\n      calldatasize\n      sub\n      dup2\n      add\n      swap1\n      tag_78\n      swap2\n      swap1\n      tag_65\n      jump\t// in\n    tag_78:\n      tag_79\n      jump\t// in\n    tag_77:\n      stop\n        /* \"contracts/ChronaxRegistry.sol\":912:953  mapping(bytes32 => Record) public records */\n    tag_21:\n      mstore(0x20, 0x01)\n      dup1\n      0x00\n      mstore\n      keccak256(0x00, 0x40)\n      0x00\n      swap2\n      pop\n      swap1\n      pop\n      dup1\n      0x00\n      add\n      0x00\n      swap1\n      sload\n      swap1\n      0x0100\n      exp\n      swap1\n      div\n      0xffffffffffffffffffffffffffffffffffffffff\n      and\n      swap1\n      dup1\n      0x01\n      add\n      sload\n      swap1\n      pop\n      dup3\n      jump\t// out\n        /* \"contracts/ChronaxRegistry.sol\":3727:3900  function getRecord(bytes32 docHash) external view returns (address, uint256) {... */\n    tag_27:\n        /* \"contracts/ChronaxRegistry.sol\":3786:3793  address */\n      0x00\n        /* \"contracts/ChronaxRegistry.sol\":3795:3802  uint256 */\n      0x00\n        /* \"contracts/ChronaxRegistry.sol\":3814:3831  Record memory rec */\n      0x00\n        /* \"contracts/ChronaxRegistry.sol\":3834:3841  records */\n      0x01\n        /* \"contracts/ChronaxRegistry.sol\":3834:3850  records[docHash] */\n      0x00\n        /* \"contracts/ChronaxRegistry.sol\":3842:3849  docHash */\n      dup6\n        /* \"contracts/ChronaxRegistry.sol\":3834:3850  records[docHash] */\n      dup2\n      mstore\n      0x20\n      add\n      swap1\n      dup2\n      mstore\n      0x20\n      add\n      0x00\n      keccak256\n        /* \"contracts/ChronaxRegistry.sol\":3814:3850  Record memory rec = records[docHash] */\n      mload(0x40)\n      dup1\n      0x40\n      add\n      0x40\n      mstore\n      swap1\n      dup2\n      0x00\n      dup3\n      add\n      0x00\n      swap1\n      sload\n      swap1\n      0x0100\n      exp\n      swap1\n      div\n      0xffffffffffffffffffffffffffffffffffffffff\n      and\n      0xffffffffffffffffffffffffffffffffffffffff\n      and\n      0xffffffffffffffffffffffffffffffffffffffff\n      and\n      dup2\n      mstore\n      0x20\n      add\n      0x01\n      dup3\n      add\n      sload\n      dup2\n      mstore\n      pop\n      pop\n      swap1\n      pop\n        /* \"contracts/ChronaxRegistry.sol\":3868:3871  rec */\n      dup1\n        /* \"contracts/ChronaxRegistry.sol\":3868:3877  rec.owner */\n      0x00\n      add\n      mload\n        /* \"contracts/ChronaxRegistry.sol\":3879:3882  rec */\n      dup2\n        /* \"contracts/ChronaxRegistry.sol\":3879:3892  rec.timestamp */\n      0x20\n      add\n      mload\n        /* \"contracts/ChronaxRegistry.sol\":3860:3893  return (rec.owner, rec.timestamp) */\n      swap3\n      pop\n      swap3\n      pop\n      pop\n        /* \"contracts/ChronaxRegistry.sol\":3727:3900  function getRecord(bytes32 docHash) external view returns (address, uint256) {... */\n      swap2\n      pop\n      swap2\n      jump\t// out\n        /* \"contracts/ChronaxRegistry.sol\":3538:3661  function isRegistered(bytes32 docHash) external view returns (bool) {... */\n    tag_32:\n        /* \"contracts/ChronaxRegistry.sol\":3600:3604  bool */\n      0x00\n        /* \"contracts/ChronaxRegistry.sol\":3653:3654  0 */\n      0x00\n        /* \"contracts/ChronaxRegistry.sol\":3623:3630  records */\n      0x01\n        /* \"contracts/ChronaxRegistry.sol\":3623:3639  records[docHash] */\n      0x00\n        /* \"contracts/ChronaxRegistry.sol\":3631:3638  docHash */\n      dup5\n        /* \"contracts/ChronaxRegistry.sol\":3623:3639  records[docHash] */\n      dup2\n      mstore\n      0x20\n      add\n      swap1\n      dup2\n      mstore\n      0x20\n      add\n      0x00\n      keccak256\n        /* \"contracts/ChronaxRegistry.sol\":3623:3649  records[docHash].timestamp */\n      0x01\n      add\n      sload\n        /* \"contracts/ChronaxRegistry.sol\":3623:3654  records[docHash].timestamp != 0 */\n      eq\n      iszero\n        /* \"contracts/ChronaxRegistry.sol\":3616:3654  return records[docHash].timestamp != 0 */\n      swap1\n      pop\n        /* \"contracts/ChronaxRegistry.sol\":3538:3661  function isRegistered(bytes32 docHash) external view returns (bool) {... */\n      swap2\n      swap1\n      pop\n      jump\t// out\n        /* \"@openzeppelin/contracts-upgradeable/proxy/utils/UUPSUpgradeable.sol\":4161:4375  function upgradeToAndCall(address newImplementation, bytes memory data) public payable virtual onlyProxy {... */\n    tag_38:\n        /* \"@openzeppelin/contracts-upgradeable/proxy/utils/UUPSUpgradeable.sol\":2655:2668  _checkProxy() */\n      tag_83\n        /* \"@openzeppelin/contracts-upgradeable/proxy/utils/UUPSUpgradeable.sol\":2655:2666  _checkProxy */\n      tag_84\n        /* \"@openzeppelin/contracts-upgradeable/proxy/utils/UUPSUpgradeable.sol\":2655:2668  _checkProxy() */\n      jump\t// in\n    tag_83:\n        /* \"@openzeppelin/contracts-upgradeable/proxy/utils/UUPSUpgradeable.sol\":4276:4312  _authorizeUpgrade(newImplementation) */\n      tag_86\n        /* \"@openzeppelin/contracts-upgradeable/proxy/utils/UUPSUpgradeable.sol\":4294:4311  newImplementation */\n      dup3\n        /* \"@openzeppelin/contracts-upgradeable/proxy/utils/UUPSUpgradeable.sol\":4276:4293  _authorizeUpgrade */\n      tag_87\n        /* \"@openzeppelin/contracts-upgradeable/proxy/utils/UUPSUpgradeable.sol\":4276:4312  _authorizeUpgrade(newImplementation) */\n      jump\t// in\n    tag_86:\n        /* \"@openzeppelin/contracts-upgradeable/proxy/utils/UUPSUpgradeable.sol\":4322:4368  _upgradeToAndCallUUPS(newImplementation, data) */\n      tag_88\n        /* \"@openzeppelin/contracts-upgradeable/proxy/utils/UUPSUpgradeable.sol\":4344:4361  newImplementation */\n      dup3\n        /* \"@openzeppelin/contracts-upgradeable/proxy/utils/UUPSUpgradeable.sol\":4363:4367  data */\n      dup3\n        /* \"@openzeppelin/contracts-upgradeable/proxy/utils/UUPSUpgradeable.sol\":4322:4343  _upgradeToAndCallUUPS */\n      tag_89\n        /* \"@openzeppelin/contracts-upgradeable/proxy/utils/UUPSUpgradeable.sol\":4322:4368  _upgradeToAndCallUUPS(newImplementation, data) */\n      jump\t// in\n    tag_88:\n        /* \"@openzeppelin/contracts-upgradeable/proxy/utils/UUPSUpgradeable.sol\":4161:4375  function upgradeToAndCall(address newImplementation, bytes memory data) public payable virtual onlyProxy {... */\n      pop\n      pop\n      jump\t// out\n        /* \"@openzeppelin/contracts-upgradeable/proxy/utils/UUPSUpgradeable.sol\":3708:3842  function proxiableUUID() external view virtual notDelegated returns (bytes32) {... */\n    tag_41:\n        /* \"@openzeppelin/contracts-upgradeable/proxy/utils/UUPSUpgradeable.sol\":3777:3784  bytes32 */\n      0x00\n        /* \"@openzeppelin/contracts-upgradeable/proxy/utils/UUPSUpgradeable.sol\":2926:2946  _checkNotDelegated() */\n      tag_91\n        /* \"@openzeppelin/contracts-upgradeable/proxy/utils/UUPSUpgradeable.sol\":2926:2944  _checkNotDelegated */\n      tag_92\n        /* \"@openzeppelin/contracts-upgradeable/proxy/utils/UUPSUpgradeable.sol\":2926:2946  _checkNotDelegated() */\n      jump\t// in\n    tag_91:\n        /* \"@openzeppelin/contracts/proxy/ERC1967/ERC1967Utils.sol\":811:877  0x360894a13ba1a3210667c828492db98dca3e2076cc3735a920a3ca505d382bbc */\n      0x360894a13ba1a3210667c828492db98dca3e2076cc3735a920a3ca505d382bbc\n        /* \"@openzeppelin/contracts-upgradeable/proxy/utils/UUPSUpgradeable.sol\":3803:3835  ERC1967Utils.IMPLEMENTATION_SLOT */\n      0x00\n      shl\n        /* \"@openzeppelin/contracts-upgradeable/proxy/utils/UUPSUpgradeable.sol\":3796:3835  return ERC1967Utils.IMPLEMENTATION_SLOT */\n      swap1\n      pop\n        /* \"@openzeppelin/contracts-upgradeable/proxy/utils/UUPSUpgradeable.sol\":3708:3842  function proxiableUUID() external view virtual notDelegated returns (bytes32) {... */\n      swap1\n      jump\t// out\n        /* \"contracts/ChronaxRegistry.sol\":2389:2991  function batchRegister(bytes32[] calldata docHashes) external onlyOwner {... */\n    tag_48:\n        /* \"@openzeppelin/contracts-upgradeable/access/OwnableUpgradeable.sol\":2334:2347  _checkOwner() */\n      tag_95\n        /* \"@openzeppelin/contracts-upgradeable/access/OwnableUpgradeable.sol\":2334:2345  _checkOwner */\n      tag_96\n        /* \"@openzeppelin/contracts-upgradeable/access/OwnableUpgradeable.sol\":2334:2347  _checkOwner() */\n      jump\t// in\n    tag_95:\n        /* \"contracts/ChronaxRegistry.sol\":2476:2485  uint256 i */\n      0x00\n        /* \"contracts/ChronaxRegistry.sol\":2488:2489  0 */\n      0x00\n        /* \"contracts/ChronaxRegistry.sol\":2476:2489  uint256 i = 0 */\n      swap1\n      pop\n        /* \"contracts/ChronaxRegistry.sol\":2471:2985  for (uint256 i = 0; i < docHashes.length; i++) {... */\n    tag_98:\n        /* \"contracts/ChronaxRegistry.sol\":2495:2504  docHashes */\n      dup3\n      dup3\n        /* \"contracts/ChronaxRegistry.sol\":2495:2511  docHashes.length */\n      swap1\n      pop\n        /* \"contracts/ChronaxRegistry.sol\":2491:2492  i */\n      dup2\n        /* \"contracts/ChronaxRegistry.sol\":2491:2511  i < docHashes.length */\n      lt\n        /* \"contracts/ChronaxRegistry.sol\":2471:2985  for (uint256 i = 0; i < docHashes.length; i++) {... */\n      iszero\n      tag_99\n      jumpi\n        /* \"contracts/ChronaxRegistry.sol\":2532:2547  bytes32 docHash */\n      0x00\n        /* \"contracts/ChronaxRegistry.sol\":2550:2559  docHashes */\n      dup4\n      dup4\n        /* \"contracts/ChronaxRegistry.sol\":2560:2561  i */\n      dup4\n        /* \"contracts/ChronaxRegistry.sol\":2550:2562  docHashes[i] */\n      dup2\n      dup2\n      lt\n      tag_101\n      jumpi\n      tag_102\n      tag_103\n      jump\t// in\n    tag_102:\n    tag_101:\n      swap1\n      pop\n      0x20\n      mul\n      add\n      calldataload\n        /* \"contracts/ChronaxRegistry.sol\":2532:2562  bytes32 docHash = docHashes[i] */\n      swap1\n      pop\n        /* \"contracts/ChronaxRegistry.sol\":2595:2598  0x0 */\n      0x00\n        /* \"contracts/ChronaxRegistry.sol\":2584:2598  docHash != 0x0 */\n      0x00\n      shl\n        /* \"contracts/ChronaxRegistry.sol\":2584:2591  docHash */\n      dup2\n        /* \"contracts/ChronaxRegistry.sol\":2584:2598  docHash != 0x0 */\n      sub\n        /* \"contracts/ChronaxRegistry.sol\":2576:2615  require(docHash != 0x0, \"Invalid hash\") */\n      tag_104\n      jumpi\n      mload(0x40)\n      0x08c379a000000000000000000000000000000000000000000000000000000000\n      dup2\n      mstore\n      0x04\n      add\n      tag_105\n      swap1\n      tag_106\n      jump\t// in\n    tag_105:\n      mload(0x40)\n      dup1\n      swap2\n      sub\n      swap1\n      revert\n    tag_104:\n        /* \"contracts/ChronaxRegistry.sol\":2667:2668  0 */\n      0x00\n        /* \"contracts/ChronaxRegistry.sol\":2637:2644  records */\n      0x01\n        /* \"contracts/ChronaxRegistry.sol\":2637:2653  records[docHash] */\n      0x00\n        /* \"contracts/ChronaxRegistry.sol\":2645:2652  docHash */\n      dup4\n        /* \"contracts/ChronaxRegistry.sol\":2637:2653  records[docHash] */\n      dup2\n      mstore\n      0x20\n      add\n      swap1\n      dup2\n      mstore\n      0x20\n      add\n      0x00\n      keccak256\n        /* \"contracts/ChronaxRegistry.sol\":2637:2663  records[docHash].timestamp */\n      0x01\n      add\n      sload\n        /* \"contracts/ChronaxRegistry.sol\":2637:2668  records[docHash].timestamp == 0 */\n      eq\n        /* \"contracts/ChronaxRegistry.sol\":2629:2691  require(records[docHash].timestamp == 0, \"Already registered\") */\n      tag_107\n      jumpi\n      mload(0x40)\n      0x08c379a000000000000000000000000000000000000000000000000000000000\n      dup2\n      mstore\n      0x04\n      add\n      tag_108\n      swap1\n      tag_109\n      jump\t// in\n    tag_108:\n      mload(0x40)\n      dup1\n      swap2\n      sub\n      swap1\n      revert\n    tag_107:\n        /* \"contracts/ChronaxRegistry.sol\":2709:2721  int256 price */\n      0x00\n        /* \"contracts/ChronaxRegistry.sol\":2724:2741  uint256 updatedAt */\n      0x00\n        /* \"contracts/ChronaxRegistry.sol\":2746:2755  priceFeed */\n      0x00\n      0x00\n      swap1\n      sload\n      swap1\n      0x0100\n      exp\n      swap1\n      div\n      0xffffffffffffffffffffffffffffffffffffffff\n      and\n        /* \"contracts/ChronaxRegistry.sol\":2746:2771  priceFeed.latestRoundData */\n      0xffffffffffffffffffffffffffffffffffffffff\n      and\n      0xfeaf968c\n        /* \"contracts/ChronaxRegistry.sol\":2746:2773  priceFeed.latestRoundData() */\n      mload(0x40)\n      dup2\n      0xffffffff\n      and\n      0xe0\n      shl\n      dup2\n      mstore\n      0x04\n      add\n      0xa0\n      mload(0x40)\n      dup1\n      dup4\n      sub\n      dup2\n      dup7\n      gas\n      staticcall\n      iszero\n      dup1\n      iszero\n      tag_111\n      jumpi\n      returndatacopy(0x00, 0x00, returndatasize)\n      revert(0x00, returndatasize)\n    tag_111:\n      pop\n      pop\n      pop\n      pop\n      mload(0x40)\n      returndatasize\n      not(0x1f)\n      0x1f\n      dup3\n      add\n      and\n      dup3\n      add\n      dup1\n      0x40\n      mstore\n      pop\n      dup2\n      add\n      swap1\n      tag_112\n      swap2\n      swap1\n      tag_113\n      jump\t// in\n    tag_112:\n        /* \"contracts/ChronaxRegistry.sol\":2706:2773  (, int256 price,, uint256 updatedAt,) = priceFeed.latestRoundData() */\n      pop\n      swap4\n      pop\n      pop\n      swap3\n      pop\n      pop\n        /* \"contracts/ChronaxRegistry.sol\":2807:2808  0 */\n      0x00\n        /* \"contracts/ChronaxRegistry.sol\":2795:2804  updatedAt */\n      dup2\n        /* \"contracts/ChronaxRegistry.sol\":2795:2808  updatedAt > 0 */\n      gt\n        /* \"contracts/ChronaxRegistry.sol\":2787:2842  require(updatedAt > 0, \"Invalid timestamp from oracle\") */\n      tag_114\n      jumpi\n      mload(0x40)\n      0x08c379a000000000000000000000000000000000000000000000000000000000\n      dup2\n      mstore\n      0x04\n      add\n      tag_115\n      swap1\n      tag_116\n      jump\t// in\n    tag_115:\n      mload(0x40)\n      dup1\n      swap2\n      sub\n      swap1\n      revert\n    tag_114:\n        /* \"contracts/ChronaxRegistry.sol\":2876:2905  Record(msg.sender, updatedAt) */\n      mload(0x40)\n      dup1\n      0x40\n      add\n      0x40\n      mstore\n      dup1\n        /* \"contracts/ChronaxRegistry.sol\":2883:2893  msg.sender */\n      caller\n        /* \"contracts/ChronaxRegistry.sol\":2876:2905  Record(msg.sender, updatedAt) */\n      0xffffffffffffffffffffffffffffffffffffffff\n      and\n      dup2\n      mstore\n      0x20\n      add\n        /* \"contracts/ChronaxRegistry.sol\":2895:2904  updatedAt */\n      dup3\n        /* \"contracts/ChronaxRegistry.sol\":2876:2905  Record(msg.sender, updatedAt) */\n      dup2\n      mstore\n      pop\n        /* \"contracts/ChronaxRegistry.sol\":2857:2864  records */\n      0x01\n        /* \"contracts/ChronaxRegistry.sol\":2857:2873  records[docHash] */\n      0x00\n        /* \"contracts/ChronaxRegistry.sol\":2865:2872  docHash */\n      dup6\n        /* \"contracts/ChronaxRegistry.sol\":2857:2873  records[docHash] */\n      dup2\n      mstore\n      0x20\n      add\n      swap1\n      dup2\n      mstore\n      0x20\n      add\n      0x00\n      keccak256\n        /* \"contracts/ChronaxRegistry.sol\":2857:2905  records[docHash] = Record(msg.sender, updatedAt) */\n      0x00\n      dup3\n      add\n      mload\n      dup2\n      0x00\n      add\n      exp(0x0100, 0x00)\n      dup2\n      sload\n      dup2\n      0xffffffffffffffffffffffffffffffffffffffff\n      mul\n      not\n      and\n      swap1\n      dup4\n      0xffffffffffffffffffffffffffffffffffffffff\n      and\n      mul\n      or\n      swap1\n      sstore\n      pop\n      0x20\n      dup3\n      add\n      mload\n      dup2\n      0x01\n      add\n      sstore\n      swap1\n      pop\n      pop\n        /* \"contracts/ChronaxRegistry.sol\":2952:2962  msg.sender */\n      caller\n        /* \"contracts/ChronaxRegistry.sol\":2924:2974  DocumentRegistered(docHash, msg.sender, updatedAt) */\n      0xffffffffffffffffffffffffffffffffffffffff\n      and\n        /* \"contracts/ChronaxRegistry.sol\":2943:2950  docHash */\n      dup4\n        /* \"contracts/ChronaxRegistry.sol\":2924:2974  DocumentRegistered(docHash, msg.sender, updatedAt) */\n      0x6569e54c43a697fc61e67763858d5abef16899d2b13215c7c07090aa878b24a8\n        /* \"contracts/ChronaxRegistry.sol\":2964:2973  updatedAt */\n      dup4\n        /* \"contracts/ChronaxRegistry.sol\":2924:2974  DocumentRegistered(docHash, msg.sender, updatedAt) */\n      mload(0x40)\n      tag_117\n      swap2\n      swap1\n      tag_118\n      jump\t// in\n    tag_117:\n      mload(0x40)\n      dup1\n      swap2\n      sub\n      swap1\n      log3\n        /* \"contracts/ChronaxRegistry.sol\":2518:2985  {... */\n      pop\n      pop\n      pop\n        /* \"contracts/ChronaxRegistry.sol\":2513:2516  i++ */\n      dup1\n      dup1\n      0x01\n      add\n      swap2\n      pop\n      pop\n        /* \"contracts/ChronaxRegistry.sol\":2471:2985  for (uint256 i = 0; i < docHashes.length; i++) {... */\n      jump(tag_98)\n    tag_99:\n      pop\n        /* \"contracts/ChronaxRegistry.sol\":2389:2991  function batchRegister(bytes32[] calldata docHashes) external onlyOwner {... */\n      pop\n      pop\n      jump\t// out\n        /* \"@openzeppelin/contracts-upgradeable/access/OwnableUpgradeable.sol\":3155:3256  function renounceOwnership() public virtual onlyOwner {... */\n    tag_51:\n        /* \"@openzeppelin/contracts-upgradeable/access/OwnableUpgradeable.sol\":2334:2347  _checkOwner() */\n      tag_120\n        /* \"@openzeppelin/contracts-upgradeable/access/OwnableUpgradeable.sol\":2334:2345  _checkOwner */\n      tag_96\n        /* \"@openzeppelin/contracts-upgradeable/access/OwnableUpgradeable.sol\":2334:2347  _checkOwner() */\n      jump\t// in\n    tag_120:\n        /* \"@openzeppelin/contracts-upgradeable/access/OwnableUpgradeable.sol\":3219:3249  _transferOwnership(address(0)) */\n      tag_122\n        /* \"@openzeppelin/contracts-upgradeable/access/OwnableUpgradeable.sol\":3246:3247  0 */\n      0x00\n        /* \"@openzeppelin/contracts-upgradeable/access/OwnableUpgradeable.sol\":3219:3237  _transferOwnership */\n      tag_123\n        /* \"@openzeppelin/contracts-upgradeable/access/OwnableUpgradeable.sol\":3219:3249  _transferOwnership(address(0)) */\n      jump\t// in\n    tag_122:\n        /* \"@openzeppelin/contracts-upgradeable/access/OwnableUpgradeable.sol\":3155:3256  function renounceOwnership() public virtual onlyOwner {... */\n      jump\t// out\n        /* \"@openzeppelin/contracts-upgradeable/access/OwnableUpgradeable.sol\":2441:2585  function owner() public view virtual returns (address) {... */\n    tag_54:\n        /* \"@openzeppelin/contracts-upgradeable/access/OwnableUpgradeable.sol\":2487:2494  address */\n      0x00\n        /* \"@openzeppelin/contracts-upgradeable/access/OwnableUpgradeable.sol\":2506:2530  OwnableStorage storage $ */\n      0x00\n        /* \"@openzeppelin/contracts-upgradeable/access/OwnableUpgradeable.sol\":2533:2553  _getOwnableStorage() */\n      tag_125\n        /* \"@openzeppelin/contracts-upgradeable/access/OwnableUpgradeable.sol\":2533:2551  _getOwnableStorage */\n      tag_126\n        /* \"@openzeppelin/contracts-upgradeable/access/OwnableUpgradeable.sol\":2533:2553  _getOwnableStorage() */\n      jump\t// in\n    tag_125:\n        /* \"@openzeppelin/contracts-upgradeable/access/OwnableUpgradeable.sol\":2506:2553  OwnableStorage storage $ = _getOwnableStorage() */\n      swap1\n      pop\n        /* \"@openzeppelin/contracts-upgradeable/access/OwnableUpgradeable.sol\":2570:2571  $ */\n      dup1\n        /* \"@openzeppelin/contracts-upgradeable/access/OwnableUpgradeable.sol\":2570:2578  $._owner */\n      0x00\n      add\n      0x00\n      swap1\n      sload\n      swap1\n      0x0100\n      exp\n      swap1\n      div\n      0xffffffffffffffffffffffffffffffffffffffff\n      and\n        /* \"@openzeppelin/contracts-upgradeable/access/OwnableUpgradeable.sol\":2563:2578  return $._owner */\n      swap2\n      pop\n      pop\n        /* \"@openzeppelin/contracts-upgradeable/access/OwnableUpgradeable.sol\":2441:2585  function owner() public view virtual returns (address) {... */\n      swap1\n      jump\t// out\n        /* \"@openzeppelin/contracts-upgradeable/proxy/utils/UUPSUpgradeable.sol\":1819:1877  string public constant UPGRADE_INTERFACE_VERSION = \"5.0.0\" */\n    tag_59:\n      mload(0x40)\n      dup1\n      0x40\n      add\n      0x40\n      mstore\n      dup1\n      0x05\n      dup2\n      mstore\n      0x20\n      add\n      0x352e302e30000000000000000000000000000000000000000000000000000000\n      dup2\n      mstore\n      pop\n      dup2\n      jump\t// out\n        /* \"contracts/ChronaxRegistry.sol\":1434:1625  function initialize(address _priceFeed) public initializer {... */\n    tag_66:\n        /* \"@openzeppelin/contracts-upgradeable/proxy/utils/Initializable.sol\":4158:4188  InitializableStorage storage $ */\n      0x00\n        /* \"@openzeppelin/contracts-upgradeable/proxy/utils/Initializable.sol\":4191:4217  _getInitializableStorage() */\n      tag_128\n        /* \"@openzeppelin/contracts-upgradeable/proxy/utils/Initializable.sol\":4191:4215  _getInitializableStorage */\n      tag_129\n        /* \"@openzeppelin/contracts-upgradeable/proxy/utils/Initializable.sol\":4191:4217  _getInitializableStorage() */\n      jump\t// in\n    tag_128:\n        /* \"@openzeppelin/contracts-upgradeable/proxy/utils/Initializable.sol\":4158:4217  InitializableStorage storage $ = _getInitializableStorage() */\n      swap1\n      pop\n        /* \"@openzeppelin/contracts-upgradeable/proxy/utils/Initializable.sol\":4279:4298  bool isTopLevelCall */\n      0x00\n        /* \"@openzeppelin/contracts-upgradeable/proxy/utils/Initializable.sol\":4302:4303  $ */\n      dup2\n        /* \"@openzeppelin/contracts-upgradeable/proxy/utils/Initializable.sol\":4302:4317  $._initializing */\n      0x00\n      add\n      0x08\n      swap1\n      sload\n      swap1\n      0x0100\n      exp\n      swap1\n      div\n      0xff\n      and\n        /* \"@openzeppelin/contracts-upgradeable/proxy/utils/Initializable.sol\":4301:4317  !$._initializing */\n      iszero\n        /* \"@openzeppelin/contracts-upgradeable/proxy/utils/Initializable.sol\":4279:4317  bool isTopLevelCall = !$._initializing */\n      swap1\n      pop\n        /* \"@openzeppelin/contracts-upgradeable/proxy/utils/Initializable.sol\":4327:4345  uint64 initialized */\n      0x00\n        /* \"@openzeppelin/contracts-upgradeable/proxy/utils/Initializable.sol\":4348:4349  $ */\n      dup3\n        /* \"@openzeppelin/contracts-upgradeable/proxy/utils/Initializable.sol\":4348:4362  $._initialized */\n      0x00\n      add\n      0x00\n      swap1\n      sload\n      swap1\n      0x0100\n      exp\n      swap1\n      div\n      0xffffffffffffffff\n      and\n        /* \"@openzeppelin/contracts-upgradeable/proxy/utils/Initializable.sol\":4327:4362  uint64 initialized = $._initialized */\n      swap1\n      pop\n        /* \"@openzeppelin/contracts-upgradeable/proxy/utils/Initializable.sol\":4704:4721  bool initialSetup */\n      0x00\n        /* \"@openzeppelin/contracts-upgradeable/proxy/utils/Initializable.sol\":4739:4740  0 */\n      0x00\n        /* \"@openzeppelin/contracts-upgradeable/proxy/utils/Initializable.sol\":4724:4735  initialized */\n      dup3\n        /* \"@openzeppelin/contracts-upgradeable/proxy/utils/Initializable.sol\":4724:4740  initialized == 0 */\n      0xffffffffffffffff\n      and\n      eq\n        /* \"@openzeppelin/contracts-upgradeable/proxy/utils/Initializable.sol\":4724:4758  initialized == 0 && isTopLevelCall */\n      dup1\n      iszero\n      tag_130\n      jumpi\n      pop\n        /* \"@openzeppelin/contracts-upgradeable/proxy/utils/Initializable.sol\":4744:4758  isTopLevelCall */\n      dup3\n        /* \"@openzeppelin/contracts-upgradeable/proxy/utils/Initializable.sol\":4724:4758  initialized == 0 && isTopLevelCall */\n    tag_130:\n        /* \"@openzeppelin/contracts-upgradeable/proxy/utils/Initializable.sol\":4704:4758  bool initialSetup = initialized == 0 && isTopLevelCall */\n      swap1\n      pop\n        /* \"@openzeppelin/contracts-upgradeable/proxy/utils/Initializable.sol\":4768:4785  bool construction */\n      0x00\n        /* \"@openzeppelin/contracts-upgradeable/proxy/utils/Initializable.sol\":4803:4804  1 */\n      0x01\n        /* \"@openzeppelin/contracts-upgradeable/proxy/utils/Initializable.sol\":4788:4799  initialized */\n      dup4\n        /* \"@openzeppelin/contracts-upgradeable/proxy/utils/Initializable.sol\":4788:4804  initialized == 1 */\n      0xffffffffffffffff\n      and\n      eq\n        /* \"@openzeppelin/contracts-upgradeable/proxy/utils/Initializable.sol\":4788:4838  initialized == 1 && address(this).code.length == 0 */\n      dup1\n      iszero\n      tag_131\n      jumpi\n      pop\n        /* \"@openzeppelin/contracts-upgradeable/proxy/utils/Initializable.sol\":4837:4838  0 */\n      0x00\n        /* \"@openzeppelin/contracts-upgradeable/proxy/utils/Initializable.sol\":4816:4820  this */\n      address\n        /* \"@openzeppelin/contracts-upgradeable/proxy/utils/Initializable.sol\":4808:4833  address(this).code.length */\n      0xffffffffffffffffffffffffffffffffffffffff\n      and\n      extcodesize\n        /* \"@openzeppelin/contracts-upgradeable/proxy/utils/Initializable.sol\":4808:4838  address(this).code.length == 0 */\n      eq\n        /* \"@openzeppelin/contracts-upgradeable/proxy/utils/Initializable.sol\":4788:4838  initialized == 1 && address(this).code.length == 0 */\n    tag_131:\n        /* \"@openzeppelin/contracts-upgradeable/proxy/utils/Initializable.sol\":4768:4838  bool construction = initialized == 1 && address(this).code.length == 0 */\n      swap1\n      pop\n        /* \"@openzeppelin/contracts-upgradeable/proxy/utils/Initializable.sol\":4854:4866  initialSetup */\n      dup2\n        /* \"@openzeppelin/contracts-upgradeable/proxy/utils/Initializable.sol\":4853:4866  !initialSetup */\n      iszero\n        /* \"@openzeppelin/contracts-upgradeable/proxy/utils/Initializable.sol\":4853:4883  !initialSetup && !construction */\n      dup1\n      iszero\n      tag_132\n      jumpi\n      pop\n        /* \"@openzeppelin/contracts-upgradeable/proxy/utils/Initializable.sol\":4871:4883  construction */\n      dup1\n        /* \"@openzeppelin/contracts-upgradeable/proxy/utils/Initializable.sol\":4870:4883  !construction */\n      iszero\n        /* \"@openzeppelin/contracts-upgradeable/proxy/utils/Initializable.sol\":4853:4883  !initialSetup && !construction */\n    tag_132:\n        /* \"@openzeppelin/contracts-upgradeable/proxy/utils/Initializable.sol\":4849:4940  if (!initialSetup && !construction) {... */\n      iszero\n      tag_133\n      jumpi\n        /* \"@openzeppelin/contracts-upgradeable/proxy/utils/Initializable.sol\":4906:4929  InvalidInitialization() */\n      mload(0x40)\n      0xf92ee8a900000000000000000000000000000000000000000000000000000000\n      dup2\n      mstore\n      0x04\n      add\n      mload(0x40)\n      dup1\n      swap2\n      sub\n      swap1\n      revert\n        /* \"@openzeppelin/contracts-upgradeable/proxy/utils/Initializable.sol\":4849:4940  if (!initialSetup && !construction) {... */\n    tag_133:\n        /* \"@openzeppelin/contracts-upgradeable/proxy/utils/Initializable.sol\":4966:4967  1 */\n      0x01\n        /* \"@openzeppelin/contracts-upgradeable/proxy/utils/Initializable.sol\":4949:4950  $ */\n      dup6\n        /* \"@openzeppelin/contracts-upgradeable/proxy/utils/Initializable.sol\":4949:4963  $._initialized */\n      0x00\n      add\n      0x00\n        /* \"@openzeppelin/contracts-upgradeable/proxy/utils/Initializable.sol\":4949:4967  $._initialized = 1 */\n      0x0100\n      exp\n      dup2\n      sload\n      dup2\n      0xffffffffffffffff\n      mul\n      not\n      and\n      swap1\n      dup4\n      0xffffffffffffffff\n      and\n      mul\n      or\n      swap1\n      sstore\n      pop\n        /* \"@openzeppelin/contracts-upgradeable/proxy/utils/Initializable.sol\":4981:4995  isTopLevelCall */\n      dup4\n        /* \"@openzeppelin/contracts-upgradeable/proxy/utils/Initializable.sol\":4977:5044  if (isTopLevelCall) {... */\n      iszero\n      tag_134\n      jumpi\n        /* \"@openzeppelin/contracts-upgradeable/proxy/utils/Initializable.sol\":5029:5033  true */\n      0x01\n        /* \"@openzeppelin/contracts-upgradeable/proxy/utils/Initializable.sol\":5011:5012  $ */\n      dup6\n        /* \"@openzeppelin/contracts-upgradeable/proxy/utils/Initializable.sol\":5011:5026  $._initializing */\n      0x00\n      add\n      0x08\n        /* \"@openzeppelin/contracts-upgradeable/proxy/utils/Initializable.sol\":5011:5033  $._initializing = true */\n      0x0100\n      exp\n      dup2\n      sload\n      dup2\n      0xff\n      mul\n      not\n      and\n      swap1\n      dup4\n      iszero\n      iszero\n      mul\n      or\n      swap1\n      sstore\n      pop\n        /* \"@openzeppelin/contracts-upgradeable/proxy/utils/Initializable.sol\":4977:5044  if (isTopLevelCall) {... */\n    tag_134:\n        /* \"contracts/ChronaxRegistry.sol\":1503:1529  __Ownable_init(msg.sender) */\n      tag_136\n        /* \"contracts/ChronaxRegistry.sol\":1518:1528  msg.sender */\n      caller\n        /* \"contracts/ChronaxRegistry.sol\":1503:1517  __Ownable_init */\n      tag_137\n        /* \"contracts/ChronaxRegistry.sol\":1503:1529  __Ownable_init(msg.sender) */\n      jump\t// in\n    tag_136:\n        /* \"contracts/ChronaxRegistry.sol\":1539:1563  __UUPSUpgradeable_init() */\n      tag_138\n        /* \"contracts/ChronaxRegistry.sol\":1539:1561  __UUPSUpgradeable_init */\n      tag_139\n        /* \"contracts/ChronaxRegistry.sol\":1539:1563  __UUPSUpgradeable_init() */\n      jump\t// in\n    tag_138:\n        /* \"contracts/ChronaxRegistry.sol\":1607:1617  _priceFeed */\n      dup6\n        /* \"contracts/ChronaxRegistry.sol\":1573:1582  priceFeed */\n      0x00\n      0x00\n        /* \"contracts/ChronaxRegistry.sol\":1573:1618  priceFeed = AggregatorV3Interface(_priceFeed) */\n      0x0100\n      exp\n      dup2\n      sload\n      dup2\n      0xffffffffffffffffffffffffffffffffffffffff\n      mul\n      not\n      and\n      swap1\n      dup4\n      0xffffffffffffffffffffffffffffffffffffffff\n      and\n      mul\n      or\n      swap1\n      sstore\n      pop\n        /* \"@openzeppelin/contracts-upgradeable/proxy/utils/Initializable.sol\":5068:5082  isTopLevelCall */\n      dup4\n        /* \"@openzeppelin/contracts-upgradeable/proxy/utils/Initializable.sol\":5064:5165  if (isTopLevelCall) {... */\n      iszero\n      tag_140\n      jumpi\n        /* \"@openzeppelin/contracts-upgradeable/proxy/utils/Initializable.sol\":5116:5121  false */\n      0x00\n        /* \"@openzeppelin/contracts-upgradeable/proxy/utils/Initializable.sol\":5098:5099  $ */\n      dup6\n        /* \"@openzeppelin/contracts-upgradeable/proxy/utils/Initializable.sol\":5098:5113  $._initializing */\n      0x00\n      add\n      0x08\n        /* \"@openzeppelin/contracts-upgradeable/proxy/utils/Initializable.sol\":5098:5121  $._initializing = false */\n      0x0100\n      exp\n      dup2\n      sload\n      dup2\n      0xff\n      mul\n      not\n      and\n      swap1\n      dup4\n      iszero\n      iszero\n      mul\n      or\n      swap1\n      sstore\n      pop\n        /* \"@openzeppelin/contracts-upgradeable/proxy/utils/Initializable.sol\":5140:5154  Initialized(1) */\n      0xc7f505b2f371ae2175ee4913f4499e1f2633a7b5936321eed1cdaeb6115181d2\n        /* \"@openzeppelin/contracts-upgradeable/proxy/utils/Initializable.sol\":5152:5153  1 */\n      0x01\n        /* \"@openzeppelin/contracts-upgradeable/proxy/utils/Initializable.sol\":5140:5154  Initialized(1) */\n      mload(0x40)\n      tag_141\n      swap2\n      swap1\n      tag_142\n      jump\t// in\n    tag_141:\n      mload(0x40)\n      dup1\n      swap2\n      sub\n      swap1\n      log1\n        /* \"@openzeppelin/contracts-upgradeable/proxy/utils/Initializable.sol\":5064:5165  if (isTopLevelCall) {... */\n    tag_140:\n        /* \"@openzeppelin/contracts-upgradeable/proxy/utils/Initializable.sol\":4092:5171  {... */\n      pop\n      pop\n      pop\n      pop\n      pop\n        /* \"contracts/ChronaxRegistry.sol\":1434:1625  function initialize(address _priceFeed) public initializer {... */\n      pop\n      jump\t// out\n        /* \"contracts/ChronaxRegistry.sol\":1756:2254  function register(bytes32 docHash) external onlyOwner {... */\n    tag_70:\n        /* \"@openzeppelin/contracts-upgradeable/access/OwnableUpgradeable.sol\":2334:2347  _checkOwner() */\n      tag_144\n        /* \"@openzeppelin/contracts-upgradeable/access/OwnableUpgradeable.sol\":2334:2345  _checkOwner */\n      tag_96\n        /* \"@openzeppelin/contracts-upgradeable/access/OwnableUpgradeable.sol\":2334:2347  _checkOwner() */\n      jump\t// in\n    tag_144:\n        /* \"contracts/ChronaxRegistry.sol\":1839:1842  0x0 */\n      0x00\n        /* \"contracts/ChronaxRegistry.sol\":1828:1842  docHash != 0x0 */\n      0x00\n      shl\n        /* \"contracts/ChronaxRegistry.sol\":1828:1835  docHash */\n      dup2\n        /* \"contracts/ChronaxRegistry.sol\":1828:1842  docHash != 0x0 */\n      sub\n        /* \"contracts/ChronaxRegistry.sol\":1820:1859  require(docHash != 0x0, \"Invalid hash\") */\n      tag_146\n      jumpi\n      mload(0x40)\n      0x08c379a000000000000000000000000000000000000000000000000000000000\n      dup2\n      mstore\n      0x04\n      add\n      tag_147\n      swap1\n      tag_106\n      jump\t// in\n    tag_147:\n      mload(0x40)\n      dup1\n      swap2\n      sub\n      swap1\n      revert\n    tag_146:\n        /* \"contracts/ChronaxRegistry.sol\":1907:1908  0 */\n      0x00\n        /* \"contracts/ChronaxRegistry.sol\":1877:1884  records */\n      0x01\n        /* \"contracts/ChronaxRegistry.sol\":1877:1893  records[docHash] */\n      0x00\n        /* \"contracts/ChronaxRegistry.sol\":1885:1892  docHash */\n      dup4\n        /* \"contracts/ChronaxRegistry.sol\":1877:1893  records[docHash] */\n      dup2\n      mstore\n      0x20\n      add\n      swap1\n      dup2\n      mstore\n      0x20\n      add\n      0x00\n      keccak256\n        /* \"contracts/ChronaxRegistry.sol\":1877:1903  records[docHash].timestamp */\n      0x01\n      add\n      sload\n        /* \"contracts/ChronaxRegistry.sol\":1877:1908  records[docHash].timestamp == 0 */\n      eq\n        /* \"contracts/ChronaxRegistry.sol\":1869:1931  require(records[docHash].timestamp == 0, \"Already registered\") */\n      tag_148\n      jumpi\n      mload(0x40)\n      0x08c379a000000000000000000000000000000000000000000000000000000000\n      dup2\n      mstore\n      0x04\n      add\n      tag_149\n      swap1\n      tag_109\n      jump\t// in\n    tag_149:\n      mload(0x40)\n      dup1\n      swap2\n      sub\n      swap1\n      revert\n    tag_148:\n        /* \"contracts/ChronaxRegistry.sol\":1993:2005  int256 price */\n      0x00\n        /* \"contracts/ChronaxRegistry.sol\":2008:2025  uint256 updatedAt */\n      0x00\n        /* \"contracts/ChronaxRegistry.sol\":2030:2039  priceFeed */\n      0x00\n      0x00\n      swap1\n      sload\n      swap1\n      0x0100\n      exp\n      swap1\n      div\n      0xffffffffffffffffffffffffffffffffffffffff\n      and\n        /* \"contracts/ChronaxRegistry.sol\":2030:2055  priceFeed.latestRoundData */\n      0xffffffffffffffffffffffffffffffffffffffff\n      and\n      0xfeaf968c\n        /* \"contracts/ChronaxRegistry.sol\":2030:2057  priceFeed.latestRoundData() */\n      mload(0x40)\n      dup2\n      0xffffffff\n      and\n      0xe0\n      shl\n      dup2\n      mstore\n      0x04\n      add\n      0xa0\n      mload(0x40)\n      dup1\n      dup4\n      sub\n      dup2\n      dup7\n      gas\n      staticcall\n      iszero\n      dup1\n      iszero\n      tag_151\n      jumpi\n      returndatacopy(0x00, 0x00, returndatasize)\n      revert(0x00, returndatasize)\n    tag_151:\n      pop\n      pop\n      pop\n      pop\n      mload(0x40)\n      returndatasize\n      not(0x1f)\n      0x1f\n      dup3\n      add\n      and\n      dup3\n      add\n      dup1\n      0x40\n      mstore\n      pop\n      dup2\n      add\n      swap1\n      tag_152\n      swap2\n      swap1\n      tag_113\n      jump\t// in\n    tag_152:\n        /* \"contracts/ChronaxRegistry.sol\":1990:2057  (, int256 price,, uint256 updatedAt,) = priceFeed.latestRoundData() */\n      pop\n      swap4\n      pop\n      pop\n      swap3\n      pop\n      pop\n        /* \"contracts/ChronaxRegistry.sol\":2087:2088  0 */\n      0x00\n        /* \"contracts/ChronaxRegistry.sol\":2075:2084  updatedAt */\n      dup2\n        /* \"contracts/ChronaxRegistry.sol\":2075:2088  updatedAt > 0 */\n      gt\n        /* \"contracts/ChronaxRegistry.sol\":2067:2122  require(updatedAt > 0, \"Invalid timestamp from oracle\") */\n      tag_153\n      jumpi\n      mload(0x40)\n      0x08c379a000000000000000000000000000000000000000000000000000000000\n      dup2\n      mstore\n      0x04\n      add\n      tag_154\n      swap1\n      tag_116\n      jump\t// in\n    tag_154:\n      mload(0x40)\n      dup1\n      swap2\n      sub\n      swap1\n      revert\n    tag_153:\n        /* \"contracts/ChronaxRegistry.sol\":2152:2181  Record(msg.sender, updatedAt) */\n      mload(0x40)\n      dup1\n      0x40\n      add\n      0x40\n      mstore\n      dup1\n        /* \"contracts/ChronaxRegistry.sol\":2159:2169  msg.sender */\n      caller\n        /* \"contracts/ChronaxRegistry.sol\":2152:2181  Record(msg.sender, updatedAt) */\n      0xffffffffffffffffffffffffffffffffffffffff\n      and\n      dup2\n      mstore\n      0x20\n      add\n        /* \"contracts/ChronaxRegistry.sol\":2171:2180  updatedAt */\n      dup3\n        /* \"contracts/ChronaxRegistry.sol\":2152:2181  Record(msg.sender, updatedAt) */\n      dup2\n      mstore\n      pop\n        /* \"contracts/ChronaxRegistry.sol\":2133:2140  records */\n      0x01\n        /* \"contracts/ChronaxRegistry.sol\":2133:2149  records[docHash] */\n      0x00\n        /* \"contracts/ChronaxRegistry.sol\":2141:2148  docHash */\n      dup6\n        /* \"contracts/ChronaxRegistry.sol\":2133:2149  records[docHash] */\n      dup2\n      mstore\n      0x20\n      add\n      swap1\n      dup2\n      mstore\n      0x20\n      add\n      0x00\n      keccak256\n        /* \"contracts/ChronaxRegistry.sol\":2133:2181  records[docHash] = Record(msg.sender, updatedAt) */\n      0x00\n      dup3\n      add\n      mload\n      dup2\n      0x00\n      add\n      exp(0x0100, 0x00)\n      dup2\n      sload\n      dup2\n      0xffffffffffffffffffffffffffffffffffffffff\n      mul\n      not\n      and\n      swap1\n      dup4\n      0xffffffffffffffffffffffffffffffffffffffff\n      and\n      mul\n      or\n      swap1\n      sstore\n      pop\n      0x20\n      dup3\n      add\n      mload\n      dup2\n      0x01\n      add\n      sstore\n      swap1\n      pop\n      pop\n        /* \"contracts/ChronaxRegistry.sol\":2225:2235  msg.sender */\n      caller\n        /* \"contracts/ChronaxRegistry.sol\":2197:2247  DocumentRegistered(docHash, msg.sender, updatedAt) */\n      0xffffffffffffffffffffffffffffffffffffffff\n      and\n        /* \"contracts/ChronaxRegistry.sol\":2216:2223  docHash */\n      dup4\n        /* \"contracts/ChronaxRegistry.sol\":2197:2247  DocumentRegistered(docHash, msg.sender, updatedAt) */\n      0x6569e54c43a697fc61e67763858d5abef16899d2b13215c7c07090aa878b24a8\n        /* \"contracts/ChronaxRegistry.sol\":2237:2246  updatedAt */\n      dup4\n        /* \"contracts/ChronaxRegistry.sol\":2197:2247  DocumentRegistered(docHash, msg.sender, updatedAt) */\n      mload(0x40)\n      tag_155\n      swap2\n      swap1\n      tag_118\n      jump\t// in\n    tag_155:\n      mload(0x40)\n      dup1\n      swap2\n      sub\n      swap1\n      log3\n        /* \"contracts/ChronaxRegistry.sol\":1810:2254  {... */\n      pop\n      pop\n        /* \"contracts/ChronaxRegistry.sol\":1756:2254  function register(bytes32 docHash) external onlyOwner {... */\n      pop\n      jump\t// out\n        /* \"contracts/ChronaxRegistry.sol\":3148:3470  function transferOwnership(bytes32 docHash, address newOwner) external {... */\n    tag_75:\n        /* \"contracts/ChronaxRegistry.sol\":3263:3273  msg.sender */\n      caller\n        /* \"contracts/ChronaxRegistry.sol\":3237:3273  records[docHash].owner == msg.sender */\n      0xffffffffffffffffffffffffffffffffffffffff\n      and\n        /* \"contracts/ChronaxRegistry.sol\":3237:3244  records */\n      0x01\n        /* \"contracts/ChronaxRegistry.sol\":3237:3253  records[docHash] */\n      0x00\n        /* \"contracts/ChronaxRegistry.sol\":3245:3252  docHash */\n      dup5\n        /* \"contracts/ChronaxRegistry.sol\":3237:3253  records[docHash] */\n      dup2\n      mstore\n      0x20\n      add\n      swap1\n      dup2\n      mstore\n      0x20\n      add\n      0x00\n      keccak256\n        /* \"contracts/ChronaxRegistry.sol\":3237:3259  records[docHash].owner */\n      0x00\n      add\n      0x00\n      swap1\n      sload\n      swap1\n      0x0100\n      exp\n      swap1\n      div\n      0xffffffffffffffffffffffffffffffffffffffff\n      and\n        /* \"contracts/ChronaxRegistry.sol\":3237:3273  records[docHash].owner == msg.sender */\n      0xffffffffffffffffffffffffffffffffffffffff\n      and\n      eq\n        /* \"contracts/ChronaxRegistry.sol\":3229:3291  require(records[docHash].owner == msg.sender, \"Not the owner\") */\n      tag_157\n      jumpi\n      mload(0x40)\n      0x08c379a000000000000000000000000000000000000000000000000000000000\n      dup2\n      mstore\n      0x04\n      add\n      tag_158\n      swap1\n      tag_159\n      jump\t// in\n    tag_158:\n      mload(0x40)\n      dup1\n      swap2\n      sub\n      swap1\n      revert\n    tag_157:\n        /* \"contracts/ChronaxRegistry.sol\":3329:3330  0 */\n      0x00\n        /* \"contracts/ChronaxRegistry.sol\":3309:3331  newOwner != address(0) */\n      0xffffffffffffffffffffffffffffffffffffffff\n      and\n        /* \"contracts/ChronaxRegistry.sol\":3309:3317  newOwner */\n      dup2\n        /* \"contracts/ChronaxRegistry.sol\":3309:3331  newOwner != address(0) */\n      0xffffffffffffffffffffffffffffffffffffffff\n      and\n      sub\n        /* \"contracts/ChronaxRegistry.sol\":3301:3353  require(newOwner != address(0), \"Invalid new owner\") */\n      tag_160\n      jumpi\n      mload(0x40)\n      0x08c379a000000000000000000000000000000000000000000000000000000000\n      dup2\n      mstore\n      0x04\n      add\n      tag_161\n      swap1\n      tag_162\n      jump\t// in\n    tag_161:\n      mload(0x40)\n      dup1\n      swap2\n      sub\n      swap1\n      revert\n    tag_160:\n        /* \"contracts/ChronaxRegistry.sol\":3389:3397  newOwner */\n      dup1\n        /* \"contracts/ChronaxRegistry.sol\":3364:3371  records */\n      0x01\n        /* \"contracts/ChronaxRegistry.sol\":3364:3380  records[docHash] */\n      0x00\n        /* \"contracts/ChronaxRegistry.sol\":3372:3379  docHash */\n      dup5\n        /* \"contracts/ChronaxRegistry.sol\":3364:3380  records[docHash] */\n      dup2\n      mstore\n      0x20\n      add\n      swap1\n      dup2\n      mstore\n      0x20\n      add\n      0x00\n      keccak256\n        /* \"contracts/ChronaxRegistry.sol\":3364:3386  records[docHash].owner */\n      0x00\n      add\n      0x00\n        /* \"contracts/ChronaxRegistry.sol\":3364:3397  records[docHash].owner = newOwner */\n      0x0100\n      exp\n      dup2\n      sload\n      dup2\n      0xffffffffffffffffffffffffffffffffffffffff\n      mul\n      not\n      and\n      swap1\n      dup4\n      0xffffffffffffffffffffffffffffffffffffffff\n      and\n      mul\n      or\n      swap1\n      sstore\n      pop\n        /* \"contracts/ChronaxRegistry.sol\":3454:3462  newOwner */\n      dup1\n        /* \"contracts/ChronaxRegistry.sol\":3412:3463  OwnershipTransferred(docHash, msg.sender, newOwner) */\n      0xffffffffffffffffffffffffffffffffffffffff\n      and\n        /* \"contracts/ChronaxRegistry.sol\":3442:3452  msg.sender */\n      caller\n        /* \"contracts/ChronaxRegistry.sol\":3412:3463  OwnershipTransferred(docHash, msg.sender, newOwner) */\n      0xffffffffffffffffffffffffffffffffffffffff\n      and\n        /* \"contracts/ChronaxRegistry.sol\":3433:3440  docHash */\n      dup4\n        /* \"contracts/ChronaxRegistry.sol\":3412:3463  OwnershipTransferred(docHash, msg.sender, newOwner) */\n      0x0b659dccc8eb950324170e8d9598af5ee04ee070883eb28651a96788721fbf83\n      mload(0x40)\n      mload(0x40)\n      dup1\n      swap2\n      sub\n      swap1\n      log4\n        /* \"contracts/ChronaxRegistry.sol\":3148:3470  function transferOwnership(bytes32 docHash, address newOwner) external {... */\n      pop\n      pop\n      jump\t// out\n        /* \"@openzeppelin/contracts-upgradeable/access/OwnableUpgradeable.sol\":3405:3620  function transferOwnership(address newOwner) public virtual onlyOwner {... */\n    tag_79:\n        /* \"@openzeppelin/contracts-upgradeable/access/OwnableUpgradeable.sol\":2334:2347  _checkOwner() */\n      tag_164\n        /* \"@openzeppelin/contracts-upgradeable/access/OwnableUpgradeable.sol\":2334:2345  _checkOwner */\n      tag_96\n        /* \"@openzeppelin/contracts-upgradeable/access/OwnableUpgradeable.sol\":2334:2347  _checkOwner() */\n      jump\t// in\n    tag_164:\n        /* \"@openzeppelin/contracts-upgradeable/access/OwnableUpgradeable.sol\":3509:3510  0 */\n      0x00\n        /* \"@openzeppelin/contracts-upgradeable/access/OwnableUpgradeable.sol\":3489:3511  newOwner == address(0) */\n      0xffffffffffffffffffffffffffffffffffffffff\n      and\n        /* \"@openzeppelin/contracts-upgradeable/access/OwnableUpgradeable.sol\":3489:3497  newOwner */\n      dup2\n        /* \"@openzeppelin/contracts-upgradeable/access/OwnableUpgradeable.sol\":3489:3511  newOwner == address(0) */\n      0xffffffffffffffffffffffffffffffffffffffff\n      and\n      sub\n        /* \"@openzeppelin/contracts-upgradeable/access/OwnableUpgradeable.sol\":3485:3576  if (newOwner == address(0)) {... */\n      tag_166\n      jumpi\n        /* \"@openzeppelin/contracts-upgradeable/access/OwnableUpgradeable.sol\":3562:3563  0 */\n      0x00\n        /* \"@openzeppelin/contracts-upgradeable/access/OwnableUpgradeable.sol\":3534:3565  OwnableInvalidOwner(address(0)) */\n      mload(0x40)\n      0x1e4fbdf700000000000000000000000000000000000000000000000000000000\n      dup2\n      mstore\n      0x04\n      add\n      tag_167\n      swap2\n      swap1\n      tag_56\n      jump\t// in\n    tag_167:\n      mload(0x40)\n      dup1\n      swap2\n      sub\n      swap1\n      revert\n        /* \"@openzeppelin/contracts-upgradeable/access/OwnableUpgradeable.sol\":3485:3576  if (newOwner == address(0)) {... */\n    tag_166:\n        /* \"@openzeppelin/contracts-upgradeable/access/OwnableUpgradeable.sol\":3585:3613  _transferOwnership(newOwner) */\n      tag_168\n        /* \"@openzeppelin/contracts-upgradeable/access/OwnableUpgradeable.sol\":3604:3612  newOwner */\n      dup2\n        /* \"@openzeppelin/contracts-upgradeable/access/OwnableUpgradeable.sol\":3585:3603  _transferOwnership */\n      tag_123\n        /* \"@openzeppelin/contracts-upgradeable/access/OwnableUpgradeable.sol\":3585:3613  _transferOwnership(newOwner) */\n      jump\t// in\n    tag_168:\n        /* \"@openzeppelin/contracts-upgradeable/access/OwnableUpgradeable.sol\":3405:3620  function transferOwnership(address newOwner) public virtual onlyOwner {... */\n      pop\n      jump\t// out\n        /* \"@openzeppelin/contracts-upgradeable/proxy/utils/UUPSUpgradeable.sol\":4578:4890  function _checkProxy() internal view virtual {... */\n    tag_84:\n        /* \"@openzeppelin/contracts-upgradeable/proxy/utils/UUPSUpgradeable.sol\":4667:4673  __self */\n      immutable(\"0xacd088948164483a37f73989f1c27b47a5586ebd1d004d9f6dfdcef17082f275\")\n        /* \"@openzeppelin/contracts-upgradeable/proxy/utils/UUPSUpgradeable.sol\":4650:4673  address(this) == __self */\n      0xffffffffffffffffffffffffffffffffffffffff\n      and\n        /* \"@openzeppelin/contracts-upgradeable/proxy/utils/UUPSUpgradeable.sol\":4658:4662  this */\n      address\n        /* \"@openzeppelin/contracts-upgradeable/proxy/utils/UUPSUpgradeable.sol\":4650:4673  address(this) == __self */\n      0xffffffffffffffffffffffffffffffffffffffff\n      and\n      eq\n        /* \"@openzeppelin/contracts-upgradeable/proxy/utils/UUPSUpgradeable.sol\":4650:4770  address(this) == __self || // Must be called through delegatecall... */\n      dup1\n      tag_170\n      jumpi\n      pop\n        /* \"@openzeppelin/contracts-upgradeable/proxy/utils/UUPSUpgradeable.sol\":4764:4770  __self */\n      immutable(\"0xacd088948164483a37f73989f1c27b47a5586ebd1d004d9f6dfdcef17082f275\")\n        /* \"@openzeppelin/contracts-upgradeable/proxy/utils/UUPSUpgradeable.sol\":4728:4770  ERC1967Utils.getImplementation() != __self */\n      0xffffffffffffffffffffffffffffffffffffffff\n      and\n        /* \"@openzeppelin/contracts-upgradeable/proxy/utils/UUPSUpgradeable.sol\":4728:4760  ERC1967Utils.getImplementation() */\n      tag_171\n        /* \"@openzeppelin/contracts-upgradeable/proxy/utils/UUPSUpgradeable.sol\":4728:4758  ERC1967Utils.getImplementation */\n      tag_172\n        /* \"@openzeppelin/contracts-upgradeable/proxy/utils/UUPSUpgradeable.sol\":4728:4760  ERC1967Utils.getImplementation() */\n      jump\t// in\n    tag_171:\n        /* \"@openzeppelin/contracts-upgradeable/proxy/utils/UUPSUpgradeable.sol\":4728:4770  ERC1967Utils.getImplementation() != __self */\n      0xffffffffffffffffffffffffffffffffffffffff\n      and\n      eq\n      iszero\n        /* \"@openzeppelin/contracts-upgradeable/proxy/utils/UUPSUpgradeable.sol\":4650:4770  address(this) == __self || // Must be called through delegatecall... */\n    tag_170:\n        /* \"@openzeppelin/contracts-upgradeable/proxy/utils/UUPSUpgradeable.sol\":4633:4884  if (... */\n      iszero\n      tag_173\n      jumpi\n        /* \"@openzeppelin/contracts-upgradeable/proxy/utils/UUPSUpgradeable.sol\":4844:4873  UUPSUnauthorizedCallContext() */\n      mload(0x40)\n      0xe07c8dba00000000000000000000000000000000000000000000000000000000\n      dup2\n      mstore\n      0x04\n      add\n      mload(0x40)\n      dup1\n      swap2\n      sub\n      swap1\n      revert\n        /* \"@openzeppelin/contracts-upgradeable/proxy/utils/UUPSUpgradeable.sol\":4633:4884  if (... */\n    tag_173:\n        /* \"@openzeppelin/contracts-upgradeable/proxy/utils/UUPSUpgradeable.sol\":4578:4890  function _checkProxy() internal view virtual {... */\n      jump\t// out\n        /* \"contracts/ChronaxRegistry.sol\":3968:4052  function _authorizeUpgrade(address newImplementation) internal override onlyOwner {} */\n    tag_87:\n        /* \"@openzeppelin/contracts-upgradeable/access/OwnableUpgradeable.sol\":2334:2347  _checkOwner() */\n      tag_175\n        /* \"@openzeppelin/contracts-upgradeable/access/OwnableUpgradeable.sol\":2334:2345  _checkOwner */\n      tag_96\n        /* \"@openzeppelin/contracts-upgradeable/access/OwnableUpgradeable.sol\":2334:2347  _checkOwner() */\n      jump\t// in\n    tag_175:\n        /* \"contracts/ChronaxRegistry.sol\":3968:4052  function _authorizeUpgrade(address newImplementation) internal override onlyOwner {} */\n      pop\n      jump\t// out\n        /* \"@openzeppelin/contracts-upgradeable/proxy/utils/UUPSUpgradeable.sol\":6032:6570  function _upgradeToAndCallUUPS(address newImplementation, bytes memory data) private {... */\n    tag_89:\n        /* \"@openzeppelin/contracts-upgradeable/proxy/utils/UUPSUpgradeable.sol\":6149:6166  newImplementation */\n      dup2\n        /* \"@openzeppelin/contracts-upgradeable/proxy/utils/UUPSUpgradeable.sol\":6131:6181  IERC1822Proxiable(newImplementation).proxiableUUID */\n      0xffffffffffffffffffffffffffffffffffffffff\n      and\n      0x52d1902d\n        /* \"@openzeppelin/contracts-upgradeable/proxy/utils/UUPSUpgradeable.sol\":6131:6183  IERC1822Proxiable(newImplementation).proxiableUUID() */\n      mload(0x40)\n      dup2\n      0xffffffff\n      and\n      0xe0\n      shl\n      dup2\n      mstore\n      0x04\n      add\n      0x20\n      mload(0x40)\n      dup1\n      dup4\n      sub\n      dup2\n      dup7\n      gas\n      staticcall\n      swap3\n      pop\n      pop\n      pop\n      dup1\n      iszero\n      tag_178\n      jumpi\n      pop\n      mload(0x40)\n      returndatasize\n      not(0x1f)\n      0x1f\n      dup3\n      add\n      and\n      dup3\n      add\n      dup1\n      0x40\n      mstore\n      pop\n      dup2\n      add\n      swap1\n      tag_179\n      swap2\n      swap1\n      tag_180\n      jump\t// in\n    tag_179:\n      0x01\n    tag_178:\n        /* \"@openzeppelin/contracts-upgradeable/proxy/utils/UUPSUpgradeable.sol\":6127:6564  try IERC1822Proxiable(newImplementation).proxiableUUID() returns (bytes32 slot) {... */\n      tag_181\n      jumpi\n        /* \"@openzeppelin/contracts-upgradeable/proxy/utils/UUPSUpgradeable.sol\":6535:6552  newImplementation */\n      dup2\n        /* \"@openzeppelin/contracts-upgradeable/proxy/utils/UUPSUpgradeable.sol\":6493:6553  ERC1967Utils.ERC1967InvalidImplementation(newImplementation) */\n      mload(0x40)\n      0x4c9c8ce300000000000000000000000000000000000000000000000000000000\n      dup2\n      mstore\n      0x04\n      add\n      tag_185\n      swap2\n      swap1\n      tag_56\n      jump\t// in\n    tag_185:\n      mload(0x40)\n      dup1\n      swap2\n      sub\n      swap1\n      revert\n        /* \"@openzeppelin/contracts-upgradeable/proxy/utils/UUPSUpgradeable.sol\":6127:6564  try IERC1822Proxiable(newImplementation).proxiableUUID() returns (bytes32 slot) {... */\n    tag_181:\n        /* \"@openzeppelin/contracts/proxy/ERC1967/ERC1967Utils.sol\":811:877  0x360894a13ba1a3210667c828492db98dca3e2076cc3735a920a3ca505d382bbc */\n      0x360894a13ba1a3210667c828492db98dca3e2076cc3735a920a3ca505d382bbc\n        /* \"@openzeppelin/contracts-upgradeable/proxy/utils/UUPSUpgradeable.sol\":6233:6265  ERC1967Utils.IMPLEMENTATION_SLOT */\n      0x00\n      shl\n        /* \"@openzeppelin/contracts-upgradeable/proxy/utils/UUPSUpgradeable.sol\":6225:6229  slot */\n      dup2\n        /* \"@openzeppelin/contracts-upgradeable/proxy/utils/UUPSUpgradeable.sol\":6225:6265  slot != ERC1967Utils.IMPLEMENTATION_SLOT */\n      eq\n        /* \"@openzeppelin/contracts-upgradeable/proxy/utils/UUPSUpgradeable.sol\":6221:6341  if (slot != ERC1967Utils.IMPLEMENTATION_SLOT) {... */\n      tag_187\n      jumpi\n        /* \"@openzeppelin/contracts-upgradeable/proxy/utils/UUPSUpgradeable.sol\":6321:6325  slot */\n      dup1\n        /* \"@openzeppelin/contracts-upgradeable/proxy/utils/UUPSUpgradeable.sol\":6292:6326  UUPSUnsupportedProxiableUUID(slot) */\n      mload(0x40)\n      0xaa1d49a400000000000000000000000000000000000000000000000000000000\n      dup2\n      mstore\n      0x04\n      add\n      tag_188\n      swap2\n      swap1\n      tag_43\n      jump\t// in\n    tag_188:\n      mload(0x40)\n      dup1\n      swap2\n      sub\n      swap1\n      revert\n        /* \"@openzeppelin/contracts-upgradeable/proxy/utils/UUPSUpgradeable.sol\":6221:6341  if (slot != ERC1967Utils.IMPLEMENTATION_SLOT) {... */\n    tag_187:\n        /* \"@openzeppelin/contracts-upgradeable/proxy/utils/UUPSUpgradeable.sol\":6354:6408  ERC1967Utils.upgradeToAndCall(newImplementation, data) */\n      tag_189\n        /* \"@openzeppelin/contracts-upgradeable/proxy/utils/UUPSUpgradeable.sol\":6384:6401  newImplementation */\n      dup4\n        /* \"@openzeppelin/contracts-upgradeable/proxy/utils/UUPSUpgradeable.sol\":6403:6407  data */\n      dup4\n        /* \"@openzeppelin/contracts-upgradeable/proxy/utils/UUPSUpgradeable.sol\":6354:6383  ERC1967Utils.upgradeToAndCall */\n      tag_190\n        /* \"@openzeppelin/contracts-upgradeable/proxy/utils/UUPSUpgradeable.sol\":6354:6408  ERC1967Utils.upgradeToAndCall(newImplementation, data) */\n      jump\t// in\n    tag_189:\n        /* \"@openzeppelin/contracts-upgradeable/proxy/utils/UUPSUpgradeable.sol\":6184:6419  returns (bytes32 slot) {... */\n      pop\n        /* \"@openzeppelin/contracts-upgradeable/proxy/utils/UUPSUpgradeable.sol\":6032:6570  function _upgradeToAndCallUUPS(address newImplementation, bytes memory data) private {... */\n      pop\n      pop\n      jump\t// out\n        /* \"@openzeppelin/contracts-upgradeable/proxy/utils/UUPSUpgradeable.sol\":5007:5220  function _checkNotDelegated() internal view virtual {... */\n    tag_92:\n        /* \"@openzeppelin/contracts-upgradeable/proxy/utils/UUPSUpgradeable.sol\":5090:5096  __self */\n      immutable(\"0xacd088948164483a37f73989f1c27b47a5586ebd1d004d9f6dfdcef17082f275\")\n        /* \"@openzeppelin/contracts-upgradeable/proxy/utils/UUPSUpgradeable.sol\":5073:5096  address(this) != __self */\n      0xffffffffffffffffffffffffffffffffffffffff\n      and\n        /* \"@openzeppelin/contracts-upgradeable/proxy/utils/UUPSUpgradeable.sol\":5081:5085  this */\n      address\n        /* \"@openzeppelin/contracts-upgradeable/proxy/utils/UUPSUpgradeable.sol\":5073:5096  address(this) != __self */\n      0xffffffffffffffffffffffffffffffffffffffff\n      and\n      eq\n        /* \"@openzeppelin/contracts-upgradeable/proxy/utils/UUPSUpgradeable.sol\":5069:5214  if (address(this) != __self) {... */\n      tag_192\n      jumpi\n        /* \"@openzeppelin/contracts-upgradeable/proxy/utils/UUPSUpgradeable.sol\":5174:5203  UUPSUnauthorizedCallContext() */\n      mload(0x40)\n      0xe07c8dba00000000000000000000000000000000000000000000000000000000\n      dup2\n      mstore\n      0x04\n      add\n      mload(0x40)\n      dup1\n      swap2\n      sub\n      swap1\n      revert\n        /* \"@openzeppelin/contracts-upgradeable/proxy/utils/UUPSUpgradeable.sol\":5069:5214  if (address(this) != __self) {... */\n    tag_192:\n        /* \"@openzeppelin/contracts-upgradeable/proxy/utils/UUPSUpgradeable.sol\":5007:5220  function _checkNotDelegated() internal view virtual {... */\n      jump\t// out\n        /* \"@openzeppelin/contracts-upgradeable/access/OwnableUpgradeable.sol\":2658:2820  function _checkOwner() internal view virtual {... */\n    tag_96:\n        /* \"@openzeppelin/contracts-upgradeable/access/OwnableUpgradeable.sol\":2728:2740  _msgSender() */\n      tag_194\n        /* \"@openzeppelin/contracts-upgradeable/access/OwnableUpgradeable.sol\":2728:2738  _msgSender */\n      tag_195\n        /* \"@openzeppelin/contracts-upgradeable/access/OwnableUpgradeable.sol\":2728:2740  _msgSender() */\n      jump\t// in\n    tag_194:\n        /* \"@openzeppelin/contracts-upgradeable/access/OwnableUpgradeable.sol\":2717:2740  owner() != _msgSender() */\n      0xffffffffffffffffffffffffffffffffffffffff\n      and\n        /* \"@openzeppelin/contracts-upgradeable/access/OwnableUpgradeable.sol\":2717:2724  owner() */\n      tag_196\n        /* \"@openzeppelin/contracts-upgradeable/access/OwnableUpgradeable.sol\":2717:2722  owner */\n      tag_54\n        /* \"@openzeppelin/contracts-upgradeable/access/OwnableUpgradeable.sol\":2717:2724  owner() */\n      jump\t// in\n    tag_196:\n        /* \"@openzeppelin/contracts-upgradeable/access/OwnableUpgradeable.sol\":2717:2740  owner() != _msgSender() */\n      0xffffffffffffffffffffffffffffffffffffffff\n      and\n      eq\n        /* \"@openzeppelin/contracts-upgradeable/access/OwnableUpgradeable.sol\":2713:2814  if (owner() != _msgSender()) {... */\n      tag_197\n      jumpi\n        /* \"@openzeppelin/contracts-upgradeable/access/OwnableUpgradeable.sol\":2790:2802  _msgSender() */\n      tag_198\n        /* \"@openzeppelin/contracts-upgradeable/access/OwnableUpgradeable.sol\":2790:2800  _msgSender */\n      tag_195\n        /* \"@openzeppelin/contracts-upgradeable/access/OwnableUpgradeable.sol\":2790:2802  _msgSender() */\n      jump\t// in\n    tag_198:\n        /* \"@openzeppelin/contracts-upgradeable/access/OwnableUpgradeable.sol\":2763:2803  OwnableUnauthorizedAccount(_msgSender()) */\n      mload(0x40)\n      0x118cdaa700000000000000000000000000000000000000000000000000000000\n      dup2\n      mstore\n      0x04\n      add\n      tag_199\n      swap2\n      swap1\n      tag_56\n      jump\t// in\n    tag_199:\n      mload(0x40)\n      dup1\n      swap2\n      sub\n      swap1\n      revert\n        /* \"@openzeppelin/contracts-upgradeable/access/OwnableUpgradeable.sol\":2713:2814  if (owner() != _msgSender()) {... */\n    tag_197:\n        /* \"@openzeppelin/contracts-upgradeable/access/OwnableUpgradeable.sol\":2658:2820  function _checkOwner() internal view virtual {... */\n      jump\t// out\n        /* \"@openzeppelin/contracts-upgradeable/access/OwnableUpgradeable.sol\":3774:4022  function _transferOwnership(address newOwner) internal virtual {... */\n    tag_123:\n        /* \"@openzeppelin/contracts-upgradeable/access/OwnableUpgradeable.sol\":3847:3871  OwnableStorage storage $ */\n      0x00\n        /* \"@openzeppelin/contracts-upgradeable/access/OwnableUpgradeable.sol\":3874:3894  _getOwnableStorage() */\n      tag_201\n        /* \"@openzeppelin/contracts-upgradeable/access/OwnableUpgradeable.sol\":3874:3892  _getOwnableStorage */\n      tag_126\n        /* \"@openzeppelin/contracts-upgradeable/access/OwnableUpgradeable.sol\":3874:3894  _getOwnableStorage() */\n      jump\t// in\n    tag_201:\n        /* \"@openzeppelin/contracts-upgradeable/access/OwnableUpgradeable.sol\":3847:3894  OwnableStorage storage $ = _getOwnableStorage() */\n      swap1\n      pop\n        /* \"@openzeppelin/contracts-upgradeable/access/OwnableUpgradeable.sol\":3904:3920  address oldOwner */\n      0x00\n        /* \"@openzeppelin/contracts-upgradeable/access/OwnableUpgradeable.sol\":3923:3924  $ */\n      dup2\n        /* \"@openzeppelin/contracts-upgradeable/access/OwnableUpgradeable.sol\":3923:3931  $._owner */\n      0x00\n      add\n      0x00\n      swap1\n      sload\n      swap1\n      0x0100\n      exp\n      swap1\n      div\n      0xffffffffffffffffffffffffffffffffffffffff\n      and\n        /* \"@openzeppelin/contracts-upgradeable/access/OwnableUpgradeable.sol\":3904:3931  address oldOwner = $._owner */\n      swap1\n      pop\n        /* \"@openzeppelin/contracts-upgradeable/access/OwnableUpgradeable.sol\":3952:3960  newOwner */\n      dup3\n        /* \"@openzeppelin/contracts-upgradeable/access/OwnableUpgradeable.sol\":3941:3942  $ */\n      dup3\n        /* \"@openzeppelin/contracts-upgradeable/access/OwnableUpgradeable.sol\":3941:3949  $._owner */\n      0x00\n      add\n      0x00\n        /* \"@openzeppelin/contracts-upgradeable/access/OwnableUpgradeable.sol\":3941:3960  $._owner = newOwner */\n      0x0100\n      exp\n      dup2\n      sload\n      dup2\n      0xffffffffffffffffffffffffffffffffffffffff\n      mul\n      not\n      and\n      swap1\n      dup4\n      0xffffffffffffffffffffffffffffffffffffffff\n      and\n      mul\n      or\n      swap1\n      sstore\n      pop\n        /* \"@openzeppelin/contracts-upgradeable/access/OwnableUpgradeable.sol\":4006:4014  newOwner */\n      dup3\n        /* \"@openzeppelin/contracts-upgradeable/access/OwnableUpgradeable.sol\":3975:4015  OwnershipTransferred(oldOwner, newOwner) */\n      0xffffffffffffffffffffffffffffffffffffffff\n      and\n        /* \"@openzeppelin/contracts-upgradeable/access/OwnableUpgradeable.sol\":3996:4004  oldOwner */\n      dup2\n        /* \"@openzeppelin/contracts-upgradeable/access/OwnableUpgradeable.sol\":3975:4015  OwnershipTransferred(oldOwner, newOwner) */\n      0xffffffffffffffffffffffffffffffffffffffff\n      and\n      0x8be0079c531659141344cd1fd0a4f28419497f9722a3daafe3b4186f6b6457e0\n      mload(0x40)\n      mload(0x40)\n      dup1\n      swap2\n      sub\n      swap1\n      log3\n        /* \"@openzeppelin/contracts-upgradeable/access/OwnableUpgradeable.sol\":3837:4022  {... */\n      pop\n      pop\n        /* \"@openzeppelin/contracts-upgradeable/access/OwnableUpgradeable.sol\":3774:4022  function _transferOwnership(address newOwner) internal virtual {... */\n      pop\n      jump\t// out\n        /* \"@openzeppelin/contracts-upgradeable/access/OwnableUpgradeable.sol\":1192:1351  function _getOwnableStorage() private pure returns (OwnableStorage storage $) {... */\n    tag_126:\n        /* \"@openzeppelin/contracts-upgradeable/access/OwnableUpgradeable.sol\":1244:1268  OwnableStorage storage $ */\n      0x00\n        /* \"@openzeppelin/contracts-upgradeable/access/OwnableUpgradeable.sol\":1313:1335  OwnableStorageLocation */\n      0x9016d09d72d40fdae2fd8ceac6b6234c7706214fd39c1cd1e609a0528c199300\n        /* \"@openzeppelin/contracts-upgradeable/access/OwnableUpgradeable.sol\":1303:1335  $.slot := OwnableStorageLocation */\n      swap1\n      pop\n        /* \"@openzeppelin/contracts-upgradeable/access/OwnableUpgradeable.sol\":1192:1351  function _getOwnableStorage() private pure returns (OwnableStorage storage $) {... */\n      swap1\n      jump\t// out\n        /* \"@openzeppelin/contracts-upgradeable/proxy/utils/Initializable.sol\":9071:9276  function _getInitializableStorage() private pure returns (InitializableStorage storage $) {... */\n    tag_129:\n        /* \"@openzeppelin/contracts-upgradeable/proxy/utils/Initializable.sol\":9129:9159  InitializableStorage storage $ */\n      0x00\n        /* \"@openzeppelin/contracts-upgradeable/proxy/utils/Initializable.sol\":9171:9183  bytes32 slot */\n      0x00\n        /* \"@openzeppelin/contracts-upgradeable/proxy/utils/Initializable.sol\":9186:9213  _initializableStorageSlot() */\n      tag_204\n        /* \"@openzeppelin/contracts-upgradeable/proxy/utils/Initializable.sol\":9186:9211  _initializableStorageSlot */\n      tag_205\n        /* \"@openzeppelin/contracts-upgradeable/proxy/utils/Initializable.sol\":9186:9213  _initializableStorageSlot() */\n      jump\t// in\n    tag_204:\n        /* \"@openzeppelin/contracts-upgradeable/proxy/utils/Initializable.sol\":9171:9213  bytes32 slot = _initializableStorageSlot() */\n      swap1\n      pop\n        /* \"@openzeppelin/contracts-upgradeable/proxy/utils/Initializable.sol\":9256:9260  slot */\n      dup1\n        /* \"@openzeppelin/contracts-upgradeable/proxy/utils/Initializable.sol\":9246:9260  $.slot := slot */\n      swap2\n      pop\n        /* \"@openzeppelin/contracts-upgradeable/proxy/utils/Initializable.sol\":9232:9270  {... */\n      pop\n        /* \"@openzeppelin/contracts-upgradeable/proxy/utils/Initializable.sol\":9071:9276  function _getInitializableStorage() private pure returns (InitializableStorage storage $) {... */\n      swap1\n      jump\t// out\n        /* \"@openzeppelin/contracts-upgradeable/access/OwnableUpgradeable.sol\":1847:1974  function __Ownable_init(address initialOwner) internal onlyInitializing {... */\n    tag_137:\n        /* \"@openzeppelin/contracts-upgradeable/proxy/utils/Initializable.sol\":6929:6949  _checkInitializing() */\n      tag_207\n        /* \"@openzeppelin/contracts-upgradeable/proxy/utils/Initializable.sol\":6929:6947  _checkInitializing */\n      tag_208\n        /* \"@openzeppelin/contracts-upgradeable/proxy/utils/Initializable.sol\":6929:6949  _checkInitializing() */\n      jump\t// in\n    tag_207:\n        /* \"@openzeppelin/contracts-upgradeable/access/OwnableUpgradeable.sol\":1929:1967  __Ownable_init_unchained(initialOwner) */\n      tag_210\n        /* \"@openzeppelin/contracts-upgradeable/access/OwnableUpgradeable.sol\":1954:1966  initialOwner */\n      dup2\n        /* \"@openzeppelin/contracts-upgradeable/access/OwnableUpgradeable.sol\":1929:1953  __Ownable_init_unchained */\n      tag_211\n        /* \"@openzeppelin/contracts-upgradeable/access/OwnableUpgradeable.sol\":1929:1967  __Ownable_init_unchained(initialOwner) */\n      jump\t// in\n    tag_210:\n        /* \"@openzeppelin/contracts-upgradeable/access/OwnableUpgradeable.sol\":1847:1974  function __Ownable_init(address initialOwner) internal onlyInitializing {... */\n      pop\n      jump\t// out\n        /* \"@openzeppelin/contracts-upgradeable/proxy/utils/UUPSUpgradeable.sol\":2970:3037  function __UUPSUpgradeable_init() internal onlyInitializing {... */\n    tag_139:\n        /* \"@openzeppelin/contracts-upgradeable/proxy/utils/Initializable.sol\":6929:6949  _checkInitializing() */\n      tag_213\n        /* \"@openzeppelin/contracts-upgradeable/proxy/utils/Initializable.sol\":6929:6947  _checkInitializing */\n      tag_208\n        /* \"@openzeppelin/contracts-upgradeable/proxy/utils/Initializable.sol\":6929:6949  _checkInitializing() */\n      jump\t// in\n    tag_213:\n        /* \"@openzeppelin/contracts-upgradeable/proxy/utils/UUPSUpgradeable.sol\":2970:3037  function __UUPSUpgradeable_init() internal onlyInitializing {... */\n      jump\t// out\n        /* \"@openzeppelin/contracts/proxy/ERC1967/ERC1967Utils.sol\":1441:1579  function getImplementation() internal view returns (address) {... */\n    tag_172:\n        /* \"@openzeppelin/contracts/proxy/ERC1967/ERC1967Utils.sol\":1493:1500  address */\n      0x00\n        /* \"@openzeppelin/contracts/proxy/ERC1967/ERC1967Utils.sol\":1519:1566  StorageSlot.getAddressSlot(IMPLEMENTATION_SLOT) */\n      tag_216\n        /* \"@openzeppelin/contracts/proxy/ERC1967/ERC1967Utils.sol\":811:877  0x360894a13ba1a3210667c828492db98dca3e2076cc3735a920a3ca505d382bbc */\n      0x360894a13ba1a3210667c828492db98dca3e2076cc3735a920a3ca505d382bbc\n        /* \"@openzeppelin/contracts/proxy/ERC1967/ERC1967Utils.sol\":1546:1565  IMPLEMENTATION_SLOT */\n      0x00\n      shl\n        /* \"@openzeppelin/contracts/proxy/ERC1967/ERC1967Utils.sol\":1519:1545  StorageSlot.getAddressSlot */\n      tag_217\n        /* \"@openzeppelin/contracts/proxy/ERC1967/ERC1967Utils.sol\":1519:1566  StorageSlot.getAddressSlot(IMPLEMENTATION_SLOT) */\n      jump\t// in\n    tag_216:\n        /* \"@openzeppelin/contracts/proxy/ERC1967/ERC1967Utils.sol\":1519:1572  StorageSlot.getAddressSlot(IMPLEMENTATION_SLOT).value */\n      0x00\n      add\n      0x00\n      swap1\n      sload\n      swap1\n      0x0100\n      exp\n      swap1\n      div\n      0xffffffffffffffffffffffffffffffffffffffff\n      and\n        /* \"@openzeppelin/contracts/proxy/ERC1967/ERC1967Utils.sol\":1512:1572  return StorageSlot.getAddressSlot(IMPLEMENTATION_SLOT).value */\n      swap1\n      pop\n        /* \"@openzeppelin/contracts/proxy/ERC1967/ERC1967Utils.sol\":1441:1579  function getImplementation() internal view returns (address) {... */\n      swap1\n      jump\t// out\n        /* \"@openzeppelin/contracts/proxy/ERC1967/ERC1967Utils.sol\":2264:2608  function upgradeToAndCall(address newImplementation, bytes memory data) internal {... */\n    tag_190:\n        /* \"@openzeppelin/contracts/proxy/ERC1967/ERC1967Utils.sol\":2355:2392  _setImplementation(newImplementation) */\n      tag_219\n        /* \"@openzeppelin/contracts/proxy/ERC1967/ERC1967Utils.sol\":2374:2391  newImplementation */\n      dup3\n        /* \"@openzeppelin/contracts/proxy/ERC1967/ERC1967Utils.sol\":2355:2373  _setImplementation */\n      tag_220\n        /* \"@openzeppelin/contracts/proxy/ERC1967/ERC1967Utils.sol\":2355:2392  _setImplementation(newImplementation) */\n      jump\t// in\n    tag_219:\n        /* \"@openzeppelin/contracts/proxy/ERC1967/ERC1967Utils.sol\":2425:2442  newImplementation */\n      dup2\n        /* \"@openzeppelin/contracts/proxy/ERC1967/ERC1967Utils.sol\":2407:2443  IERC1967.Upgraded(newImplementation) */\n      0xffffffffffffffffffffffffffffffffffffffff\n      and\n      0xbc7cd75a20ee27fd9adebab32041f755214dbc6bffa90cc0225b39da2e5c2d3b\n      mload(0x40)\n      mload(0x40)\n      dup1\n      swap2\n      sub\n      swap1\n      log2\n        /* \"@openzeppelin/contracts/proxy/ERC1967/ERC1967Utils.sol\":2472:2473  0 */\n      0x00\n        /* \"@openzeppelin/contracts/proxy/ERC1967/ERC1967Utils.sol\":2458:2462  data */\n      dup2\n        /* \"@openzeppelin/contracts/proxy/ERC1967/ERC1967Utils.sol\":2458:2469  data.length */\n      mload\n        /* \"@openzeppelin/contracts/proxy/ERC1967/ERC1967Utils.sol\":2458:2473  data.length > 0 */\n      gt\n        /* \"@openzeppelin/contracts/proxy/ERC1967/ERC1967Utils.sol\":2454:2602  if (data.length > 0) {... */\n      iszero\n      tag_221\n      jumpi\n        /* \"@openzeppelin/contracts/proxy/ERC1967/ERC1967Utils.sol\":2489:2542  Address.functionDelegateCall(newImplementation, data) */\n      tag_222\n        /* \"@openzeppelin/contracts/proxy/ERC1967/ERC1967Utils.sol\":2518:2535  newImplementation */\n      dup3\n        /* \"@openzeppelin/contracts/proxy/ERC1967/ERC1967Utils.sol\":2537:2541  data */\n      dup3\n        /* \"@openzeppelin/contracts/proxy/ERC1967/ERC1967Utils.sol\":2489:2517  Address.functionDelegateCall */\n      tag_223\n        /* \"@openzeppelin/contracts/proxy/ERC1967/ERC1967Utils.sol\":2489:2542  Address.functionDelegateCall(newImplementation, data) */\n      jump\t// in\n    tag_222:\n      pop\n        /* \"@openzeppelin/contracts/proxy/ERC1967/ERC1967Utils.sol\":2454:2602  if (data.length > 0) {... */\n      jump(tag_224)\n    tag_221:\n        /* \"@openzeppelin/contracts/proxy/ERC1967/ERC1967Utils.sol\":2573:2591  _checkNonPayable() */\n      tag_225\n        /* \"@openzeppelin/contracts/proxy/ERC1967/ERC1967Utils.sol\":2573:2589  _checkNonPayable */\n      tag_226\n        /* \"@openzeppelin/contracts/proxy/ERC1967/ERC1967Utils.sol\":2573:2591  _checkNonPayable() */\n      jump\t// in\n    tag_225:\n        /* \"@openzeppelin/contracts/proxy/ERC1967/ERC1967Utils.sol\":2454:2602  if (data.length > 0) {... */\n    tag_224:\n        /* \"@openzeppelin/contracts/proxy/ERC1967/ERC1967Utils.sol\":2264:2608  function upgradeToAndCall(address newImplementation, bytes memory data) internal {... */\n      pop\n      pop\n      jump\t// out\n        /* \"@openzeppelin/contracts-upgradeable/utils/ContextUpgradeable.sol\":887:983  function _msgSender() internal view virtual returns (address) {... */\n    tag_195:\n        /* \"@openzeppelin/contracts-upgradeable/utils/ContextUpgradeable.sol\":940:947  address */\n      0x00\n        /* \"@openzeppelin/contracts-upgradeable/utils/ContextUpgradeable.sol\":966:976  msg.sender */\n      caller\n        /* \"@openzeppelin/contracts-upgradeable/utils/ContextUpgradeable.sol\":959:976  return msg.sender */\n      swap1\n      pop\n        /* \"@openzeppelin/contracts-upgradeable/utils/ContextUpgradeable.sol\":887:983  function _msgSender() internal view virtual returns (address) {... */\n      swap1\n      jump\t// out\n        /* \"@openzeppelin/contracts-upgradeable/proxy/utils/Initializable.sol\":8819:8941  function _initializableStorageSlot() internal pure virtual returns (bytes32) {... */\n    tag_205:\n        /* \"@openzeppelin/contracts-upgradeable/proxy/utils/Initializable.sol\":8887:8894  bytes32 */\n      0x00\n        /* \"@openzeppelin/contracts-upgradeable/proxy/utils/Initializable.sol\":3147:3213  0xf0c57e16840df040f15088dc2f81fe391c3923bec73e23a9662efc9c229c6a00 */\n      0xf0c57e16840df040f15088dc2f81fe391c3923bec73e23a9662efc9c229c6a00\n        /* \"@openzeppelin/contracts-upgradeable/proxy/utils/Initializable.sol\":8913:8934  INITIALIZABLE_STORAGE */\n      0x00\n      shl\n        /* \"@openzeppelin/contracts-upgradeable/proxy/utils/Initializable.sol\":8906:8934  return INITIALIZABLE_STORAGE */\n      swap1\n      pop\n        /* \"@openzeppelin/contracts-upgradeable/proxy/utils/Initializable.sol\":8819:8941  function _initializableStorageSlot() internal pure virtual returns (bytes32) {... */\n      swap1\n      jump\t// out\n        /* \"@openzeppelin/contracts-upgradeable/proxy/utils/Initializable.sol\":7082:7223  function _checkInitializing() internal view virtual {... */\n    tag_208:\n        /* \"@openzeppelin/contracts-upgradeable/proxy/utils/Initializable.sol\":7149:7166  _isInitializing() */\n      tag_230\n        /* \"@openzeppelin/contracts-upgradeable/proxy/utils/Initializable.sol\":7149:7164  _isInitializing */\n      tag_231\n        /* \"@openzeppelin/contracts-upgradeable/proxy/utils/Initializable.sol\":7149:7166  _isInitializing() */\n      jump\t// in\n    tag_230:\n        /* \"@openzeppelin/contracts-upgradeable/proxy/utils/Initializable.sol\":7144:7217  if (!_isInitializing()) {... */\n      tag_232\n      jumpi\n        /* \"@openzeppelin/contracts-upgradeable/proxy/utils/Initializable.sol\":7189:7206  NotInitializing() */\n      mload(0x40)\n      0xd7e6bcf800000000000000000000000000000000000000000000000000000000\n      dup2\n      mstore\n      0x04\n      add\n      mload(0x40)\n      dup1\n      swap2\n      sub\n      swap1\n      revert\n        /* \"@openzeppelin/contracts-upgradeable/proxy/utils/Initializable.sol\":7144:7217  if (!_isInitializing()) {... */\n    tag_232:\n        /* \"@openzeppelin/contracts-upgradeable/proxy/utils/Initializable.sol\":7082:7223  function _checkInitializing() internal view virtual {... */\n      jump\t// out\n        /* \"@openzeppelin/contracts-upgradeable/access/OwnableUpgradeable.sol\":1980:2215  function __Ownable_init_unchained(address initialOwner) internal onlyInitializing {... */\n    tag_211:\n        /* \"@openzeppelin/contracts-upgradeable/proxy/utils/Initializable.sol\":6929:6949  _checkInitializing() */\n      tag_234\n        /* \"@openzeppelin/contracts-upgradeable/proxy/utils/Initializable.sol\":6929:6947  _checkInitializing */\n      tag_208\n        /* \"@openzeppelin/contracts-upgradeable/proxy/utils/Initializable.sol\":6929:6949  _checkInitializing() */\n      jump\t// in\n    tag_234:\n        /* \"@openzeppelin/contracts-upgradeable/access/OwnableUpgradeable.sol\":2100:2101  0 */\n      0x00\n        /* \"@openzeppelin/contracts-upgradeable/access/OwnableUpgradeable.sol\":2076:2102  initialOwner == address(0) */\n      0xffffffffffffffffffffffffffffffffffffffff\n      and\n        /* \"@openzeppelin/contracts-upgradeable/access/OwnableUpgradeable.sol\":2076:2088  initialOwner */\n      dup2\n        /* \"@openzeppelin/contracts-upgradeable/access/OwnableUpgradeable.sol\":2076:2102  initialOwner == address(0) */\n      0xffffffffffffffffffffffffffffffffffffffff\n      and\n      sub\n        /* \"@openzeppelin/contracts-upgradeable/access/OwnableUpgradeable.sol\":2072:2167  if (initialOwner == address(0)) {... */\n      tag_236\n      jumpi\n        /* \"@openzeppelin/contracts-upgradeable/access/OwnableUpgradeable.sol\":2153:2154  0 */\n      0x00\n        /* \"@openzeppelin/contracts-upgradeable/access/OwnableUpgradeable.sol\":2125:2156  OwnableInvalidOwner(address(0)) */\n      mload(0x40)\n      0x1e4fbdf700000000000000000000000000000000000000000000000000000000\n      dup2\n      mstore\n      0x04\n      add\n      tag_237\n      swap2\n      swap1\n      tag_56\n      jump\t// in\n    tag_237:\n      mload(0x40)\n      dup1\n      swap2\n      sub\n      swap1\n      revert\n        /* \"@openzeppelin/contracts-upgradeable/access/OwnableUpgradeable.sol\":2072:2167  if (initialOwner == address(0)) {... */\n    tag_236:\n        /* \"@openzeppelin/contracts-upgradeable/access/OwnableUpgradeable.sol\":2176:2208  _transferOwnership(initialOwner) */\n      tag_238\n        /* \"@openzeppelin/contracts-upgradeable/access/OwnableUpgradeable.sol\":2195:2207  initialOwner */\n      dup2\n        /* \"@openzeppelin/contracts-upgradeable/access/OwnableUpgradeable.sol\":2176:2194  _transferOwnership */\n      tag_123\n        /* \"@openzeppelin/contracts-upgradeable/access/OwnableUpgradeable.sol\":2176:2208  _transferOwnership(initialOwner) */\n      jump\t// in\n    tag_238:\n        /* \"@openzeppelin/contracts-upgradeable/access/OwnableUpgradeable.sol\":1980:2215  function __Ownable_init_unchained(address initialOwner) internal onlyInitializing {... */\n      pop\n      jump\t// out\n        /* \"@openzeppelin/contracts/utils/StorageSlot.sol\":1899:2062  function getAddressSlot(bytes32 slot) internal pure returns (AddressSlot storage r) {... */\n    tag_217:\n        /* \"@openzeppelin/contracts/utils/StorageSlot.sol\":1960:1981  AddressSlot storage r */\n      0x00\n        /* \"@openzeppelin/contracts/utils/StorageSlot.sol\":2042:2046  slot */\n      dup2\n        /* \"@openzeppelin/contracts/utils/StorageSlot.sol\":2032:2046  r.slot := slot */\n      swap1\n      pop\n        /* \"@openzeppelin/contracts/utils/StorageSlot.sol\":1899:2062  function getAddressSlot(bytes32 slot) internal pure returns (AddressSlot storage r) {... */\n      swap2\n      swap1\n      pop\n      jump\t// out\n        /* \"@openzeppelin/contracts/proxy/ERC1967/ERC1967Utils.sol\":1671:1952  function _setImplementation(address newImplementation) private {... */\n    tag_220:\n        /* \"@openzeppelin/contracts/proxy/ERC1967/ERC1967Utils.sol\":1781:1782  0 */\n      0x00\n        /* \"@openzeppelin/contracts/proxy/ERC1967/ERC1967Utils.sol\":1748:1765  newImplementation */\n      dup2\n        /* \"@openzeppelin/contracts/proxy/ERC1967/ERC1967Utils.sol\":1748:1777  newImplementation.code.length */\n      0xffffffffffffffffffffffffffffffffffffffff\n      and\n      extcodesize\n        /* \"@openzeppelin/contracts/proxy/ERC1967/ERC1967Utils.sol\":1748:1782  newImplementation.code.length == 0 */\n      sub\n        /* \"@openzeppelin/contracts/proxy/ERC1967/ERC1967Utils.sol\":1744:1863  if (newImplementation.code.length == 0) {... */\n      tag_241\n      jumpi\n        /* \"@openzeppelin/contracts/proxy/ERC1967/ERC1967Utils.sol\":1834:1851  newImplementation */\n      dup1\n        /* \"@openzeppelin/contracts/proxy/ERC1967/ERC1967Utils.sol\":1805:1852  ERC1967InvalidImplementation(newImplementation) */\n      mload(0x40)\n      0x4c9c8ce300000000000000000000000000000000000000000000000000000000\n      dup2\n      mstore\n      0x04\n      add\n      tag_242\n      swap2\n      swap1\n      tag_56\n      jump\t// in\n    tag_242:\n      mload(0x40)\n      dup1\n      swap2\n      sub\n      swap1\n      revert\n        /* \"@openzeppelin/contracts/proxy/ERC1967/ERC1967Utils.sol\":1744:1863  if (newImplementation.code.length == 0) {... */\n    tag_241:\n        /* \"@openzeppelin/contracts/proxy/ERC1967/ERC1967Utils.sol\":1928:1945  newImplementation */\n      dup1\n        /* \"@openzeppelin/contracts/proxy/ERC1967/ERC1967Utils.sol\":1872:1919  StorageSlot.getAddressSlot(IMPLEMENTATION_SLOT) */\n      tag_243\n        /* \"@openzeppelin/contracts/proxy/ERC1967/ERC1967Utils.sol\":811:877  0x360894a13ba1a3210667c828492db98dca3e2076cc3735a920a3ca505d382bbc */\n      0x360894a13ba1a3210667c828492db98dca3e2076cc3735a920a3ca505d382bbc\n        /* \"@openzeppelin/contracts/proxy/ERC1967/ERC1967Utils.sol\":1899:1918  IMPLEMENTATION_SLOT */\n      0x00\n      shl\n        /* \"@openzeppelin/contracts/proxy/ERC1967/ERC1967Utils.sol\":1872:1898  StorageSlot.getAddressSlot */\n      tag_217\n        /* \"@openzeppelin/contracts/proxy/ERC1967/ERC1967Utils.sol\":1872:1919  StorageSlot.getAddressSlot(IMPLEMENTATION_SLOT) */\n      jump\t// in\n    tag_243:\n        /* \"@openzeppelin/contracts/proxy/ERC1967/ERC1967Utils.sol\":1872:1925  StorageSlot.getAddressSlot(IMPLEMENTATION_SLOT).value */\n      0x00\n      add\n      0x00\n        /* \"@openzeppelin/contracts/proxy/ERC1967/ERC1967Utils.sol\":1872:1945  StorageSlot.getAddressSlot(IMPLEMENTATION_SLOT).value = newImplementation */\n      0x0100\n      exp\n      dup2\n      sload\n      dup2\n      0xffffffffffffffffffffffffffffffffffffffff\n      mul\n      not\n      and\n      swap1\n      dup4\n      0xffffffffffffffffffffffffffffffffffffffff\n      and\n      mul\n      or\n      swap1\n      sstore\n      pop\n        /* \"@openzeppelin/contracts/proxy/ERC1967/ERC1967Utils.sol\":1671:1952  function _setImplementation(address newImplementation) private {... */\n      pop\n      jump\t// out\n        /* \"@openzeppelin/contracts/utils/Address.sol\":3916:4169  function functionDelegateCall(address target, bytes memory data) internal returns (bytes memory) {... */\n    tag_223:\n        /* \"@openzeppelin/contracts/utils/Address.sol\":3999:4011  bytes memory */\n      0x60\n        /* \"@openzeppelin/contracts/utils/Address.sol\":4024:4036  bool success */\n      0x00\n        /* \"@openzeppelin/contracts/utils/Address.sol\":4038:4061  bytes memory returndata */\n      0x00\n        /* \"@openzeppelin/contracts/utils/Address.sol\":4065:4071  target */\n      dup5\n        /* \"@openzeppelin/contracts/utils/Address.sol\":4065:4084  target.delegatecall */\n      0xffffffffffffffffffffffffffffffffffffffff\n      and\n        /* \"@openzeppelin/contracts/utils/Address.sol\":4085:4089  data */\n      dup5\n        /* \"@openzeppelin/contracts/utils/Address.sol\":4065:4090  target.delegatecall(data) */\n      mload(0x40)\n      tag_245\n      swap2\n      swap1\n      tag_246\n      jump\t// in\n    tag_245:\n      0x00\n      mload(0x40)\n      dup1\n      dup4\n      sub\n      dup2\n      dup6\n      gas\n      delegatecall\n      swap2\n      pop\n      pop\n      returndatasize\n      dup1\n      0x00\n      dup2\n      eq\n      tag_249\n      jumpi\n      mload(0x40)\n      swap2\n      pop\n      and(add(returndatasize, 0x3f), not(0x1f))\n      dup3\n      add\n      0x40\n      mstore\n      returndatasize\n      dup3\n      mstore\n      returndatasize\n      0x00\n      0x20\n      dup5\n      add\n      returndatacopy\n      jump(tag_248)\n    tag_249:\n      0x60\n      swap2\n      pop\n    tag_248:\n      pop\n        /* \"@openzeppelin/contracts/utils/Address.sol\":4023:4090  (bool success, bytes memory returndata) = target.delegatecall(data) */\n      swap2\n      pop\n      swap2\n      pop\n        /* \"@openzeppelin/contracts/utils/Address.sol\":4107:4162  verifyCallResultFromTarget(target, success, returndata) */\n      tag_250\n        /* \"@openzeppelin/contracts/utils/Address.sol\":4134:4140  target */\n      dup6\n        /* \"@openzeppelin/contracts/utils/Address.sol\":4142:4149  success */\n      dup4\n        /* \"@openzeppelin/contracts/utils/Address.sol\":4151:4161  returndata */\n      dup4\n        /* \"@openzeppelin/contracts/utils/Address.sol\":4107:4133  verifyCallResultFromTarget */\n      tag_251\n        /* \"@openzeppelin/contracts/utils/Address.sol\":4107:4162  verifyCallResultFromTarget(target, success, returndata) */\n      jump\t// in\n    tag_250:\n        /* \"@openzeppelin/contracts/utils/Address.sol\":4100:4162  return verifyCallResultFromTarget(target, success, returndata) */\n      swap3\n      pop\n      pop\n      pop\n        /* \"@openzeppelin/contracts/utils/Address.sol\":3916:4169  function functionDelegateCall(address target, bytes memory data) internal returns (bytes memory) {... */\n      swap3\n      swap2\n      pop\n      pop\n      jump\t// out\n        /* \"@openzeppelin/contracts/proxy/ERC1967/ERC1967Utils.sol\":6113:6235  function _checkNonPayable() private {... */\n    tag_226:\n        /* \"@openzeppelin/contracts/proxy/ERC1967/ERC1967Utils.sol\":6175:6176  0 */\n      0x00\n        /* \"@openzeppelin/contracts/proxy/ERC1967/ERC1967Utils.sol\":6163:6172  msg.value */\n      callvalue\n        /* \"@openzeppelin/contracts/proxy/ERC1967/ERC1967Utils.sol\":6163:6176  msg.value > 0 */\n      gt\n        /* \"@openzeppelin/contracts/proxy/ERC1967/ERC1967Utils.sol\":6159:6229  if (msg.value > 0) {... */\n      iszero\n      tag_253\n      jumpi\n        /* \"@openzeppelin/contracts/proxy/ERC1967/ERC1967Utils.sol\":6199:6218  ERC1967NonPayable() */\n      mload(0x40)\n      0xb398979f00000000000000000000000000000000000000000000000000000000\n      dup2\n      mstore\n      0x04\n      add\n      mload(0x40)\n      dup1\n      swap2\n      sub\n      swap1\n      revert\n        /* \"@openzeppelin/contracts/proxy/ERC1967/ERC1967Utils.sol\":6159:6229  if (msg.value > 0) {... */\n    tag_253:\n        /* \"@openzeppelin/contracts/proxy/ERC1967/ERC1967Utils.sol\":6113:6235  function _checkNonPayable() private {... */\n      jump\t// out\n        /* \"@openzeppelin/contracts-upgradeable/proxy/utils/Initializable.sol\":8485:8605  function _isInitializing() internal view returns (bool) {... */\n    tag_231:\n        /* \"@openzeppelin/contracts-upgradeable/proxy/utils/Initializable.sol\":8535:8539  bool */\n      0x00\n        /* \"@openzeppelin/contracts-upgradeable/proxy/utils/Initializable.sol\":8558:8584  _getInitializableStorage() */\n      tag_255\n        /* \"@openzeppelin/contracts-upgradeable/proxy/utils/Initializable.sol\":8558:8582  _getInitializableStorage */\n      tag_129\n        /* \"@openzeppelin/contracts-upgradeable/proxy/utils/Initializable.sol\":8558:8584  _getInitializableStorage() */\n      jump\t// in\n    tag_255:\n        /* \"@openzeppelin/contracts-upgradeable/proxy/utils/Initializable.sol\":8558:8598  _getInitializableStorage()._initializing */\n      0x00\n      add\n      0x08\n      swap1\n      sload\n      swap1\n      0x0100\n      exp\n      swap1\n      div\n      0xff\n      and\n        /* \"@openzeppelin/contracts-upgradeable/proxy/utils/Initializable.sol\":8551:8598  return _getInitializableStorage()._initializing */\n      swap1\n      pop\n        /* \"@openzeppelin/contracts-upgradeable/proxy/utils/Initializable.sol\":8485:8605  function _isInitializing() internal view returns (bool) {... */\n      swap1\n      jump\t// out\n        /* \"@openzeppelin/contracts/utils/Address.sol\":4437:5019  function verifyCallResultFromTarget(... */\n    tag_251:\n        /* \"@openzeppelin/contracts/utils/Address.sol\":4581:4593  bytes memory */\n      0x60\n        /* \"@openzeppelin/contracts/utils/Address.sol\":4610:4617  success */\n      dup3\n        /* \"@openzeppelin/contracts/utils/Address.sol\":4605:5013  if (!success) {... */\n      tag_257\n      jumpi\n        /* \"@openzeppelin/contracts/utils/Address.sol\":4633:4652  _revert(returndata) */\n      tag_258\n        /* \"@openzeppelin/contracts/utils/Address.sol\":4641:4651  returndata */\n      dup3\n        /* \"@openzeppelin/contracts/utils/Address.sol\":4633:4640  _revert */\n      tag_259\n        /* \"@openzeppelin/contracts/utils/Address.sol\":4633:4652  _revert(returndata) */\n      jump\t// in\n    tag_258:\n        /* \"@openzeppelin/contracts/utils/Address.sol\":4605:5013  if (!success) {... */\n      jump(tag_260)\n    tag_257:\n        /* \"@openzeppelin/contracts/utils/Address.sol\":4878:4879  0 */\n      0x00\n        /* \"@openzeppelin/contracts/utils/Address.sol\":4857:4867  returndata */\n      dup3\n        /* \"@openzeppelin/contracts/utils/Address.sol\":4857:4874  returndata.length */\n      mload\n        /* \"@openzeppelin/contracts/utils/Address.sol\":4857:4879  returndata.length == 0 */\n      eq\n        /* \"@openzeppelin/contracts/utils/Address.sol\":4857:4906  returndata.length == 0 && target.code.length == 0 */\n      dup1\n      iszero\n      tag_261\n      jumpi\n      pop\n        /* \"@openzeppelin/contracts/utils/Address.sol\":4905:4906  0 */\n      0x00\n        /* \"@openzeppelin/contracts/utils/Address.sol\":4883:4889  target */\n      dup5\n        /* \"@openzeppelin/contracts/utils/Address.sol\":4883:4901  target.code.length */\n      0xffffffffffffffffffffffffffffffffffffffff\n      and\n      extcodesize\n        /* \"@openzeppelin/contracts/utils/Address.sol\":4883:4906  target.code.length == 0 */\n      eq\n        /* \"@openzeppelin/contracts/utils/Address.sol\":4857:4906  returndata.length == 0 && target.code.length == 0 */\n    tag_261:\n        /* \"@openzeppelin/contracts/utils/Address.sol\":4853:4972  if (returndata.length == 0 && target.code.length == 0) {... */\n      iszero\n      tag_262\n      jumpi\n        /* \"@openzeppelin/contracts/utils/Address.sol\":4950:4956  target */\n      dup4\n        /* \"@openzeppelin/contracts/utils/Address.sol\":4933:4957  AddressEmptyCode(target) */\n      mload(0x40)\n      0x9996b31500000000000000000000000000000000000000000000000000000000\n      dup2\n      mstore\n      0x04\n      add\n      tag_263\n      swap2\n      swap1\n      tag_56\n      jump\t// in\n    tag_263:\n      mload(0x40)\n      dup1\n      swap2\n      sub\n      swap1\n      revert\n        /* \"@openzeppelin/contracts/utils/Address.sol\":4853:4972  if (returndata.length == 0 && target.code.length == 0) {... */\n    tag_262:\n        /* \"@openzeppelin/contracts/utils/Address.sol\":4992:5002  returndata */\n      dup2\n        /* \"@openzeppelin/contracts/utils/Address.sol\":4985:5002  return returndata */\n      swap1\n      pop\n      jump(tag_256)\n        /* \"@openzeppelin/contracts/utils/Address.sol\":4605:5013  if (!success) {... */\n    tag_260:\n        /* \"@openzeppelin/contracts/utils/Address.sol\":4437:5019  function verifyCallResultFromTarget(... */\n    tag_256:\n      swap4\n      swap3\n      pop\n      pop\n      pop\n      jump\t// out\n        /* \"@openzeppelin/contracts/utils/Address.sol\":5559:5993  function _revert(bytes memory returndata) private pure {... */\n    tag_259:\n        /* \"@openzeppelin/contracts/utils/Address.sol\":5710:5711  0 */\n      0x00\n        /* \"@openzeppelin/contracts/utils/Address.sol\":5690:5700  returndata */\n      dup2\n        /* \"@openzeppelin/contracts/utils/Address.sol\":5690:5707  returndata.length */\n      mload\n        /* \"@openzeppelin/contracts/utils/Address.sol\":5690:5711  returndata.length > 0 */\n      gt\n        /* \"@openzeppelin/contracts/utils/Address.sol\":5686:5987  if (returndata.length > 0) {... */\n      iszero\n      tag_265\n      jumpi\n        /* \"@openzeppelin/contracts/utils/Address.sol\":5894:5904  returndata */\n      dup1\n        /* \"@openzeppelin/contracts/utils/Address.sol\":5888:5905  mload(returndata) */\n      mload\n        /* \"@openzeppelin/contracts/utils/Address.sol\":5881:5885  0x20 */\n      0x20\n        /* \"@openzeppelin/contracts/utils/Address.sol\":5869:5879  returndata */\n      dup3\n        /* \"@openzeppelin/contracts/utils/Address.sol\":5865:5886  add(returndata, 0x20) */\n      add\n        /* \"@openzeppelin/contracts/utils/Address.sol\":5858:5906  revert(add(returndata, 0x20), mload(returndata)) */\n      revert\n        /* \"@openzeppelin/contracts/utils/Address.sol\":5686:5987  if (returndata.length > 0) {... */\n    tag_265:\n        /* \"@openzeppelin/contracts/utils/Address.sol\":5957:5976  Errors.FailedCall() */\n      mload(0x40)\n      0xd6bda27500000000000000000000000000000000000000000000000000000000\n      dup2\n      mstore\n      0x04\n      add\n      mload(0x40)\n      dup1\n      swap2\n      sub\n      swap1\n      revert\n        /* \"#utility.yul\":7:82   */\n    tag_267:\n        /* \"#utility.yul\":40:46   */\n      0x00\n        /* \"#utility.yul\":73:75   */\n      0x40\n        /* \"#utility.yul\":67:76   */\n      mload\n        /* \"#utility.yul\":57:76   */\n      swap1\n      pop\n        /* \"#utility.yul\":7:82   */\n      swap1\n      jump\t// out\n        /* \"#utility.yul\":88:205   */\n    tag_268:\n        /* \"#utility.yul\":197:198   */\n      0x00\n        /* \"#utility.yul\":194:195   */\n      0x00\n        /* \"#utility.yul\":187:199   */\n      revert\n        /* \"#utility.yul\":211:328   */\n    tag_269:\n        /* \"#utility.yul\":320:321   */\n      0x00\n        /* \"#utility.yul\":317:318   */\n      0x00\n        /* \"#utility.yul\":310:322   */\n      revert\n        /* \"#utility.yul\":334:411   */\n    tag_270:\n        /* \"#utility.yul\":371:378   */\n      0x00\n        /* \"#utility.yul\":400:405   */\n      dup2\n        /* \"#utility.yul\":389:405   */\n      swap1\n      pop\n        /* \"#utility.yul\":334:411   */\n      swap2\n      swap1\n      pop\n      jump\t// out\n        /* \"#utility.yul\":417:539   */\n    tag_271:\n        /* \"#utility.yul\":490:514   */\n      tag_333\n        /* \"#utility.yul\":508:513   */\n      dup2\n        /* \"#utility.yul\":490:514   */\n      tag_270\n      jump\t// in\n    tag_333:\n        /* \"#utility.yul\":483:488   */\n      dup2\n        /* \"#utility.yul\":480:515   */\n      eq\n        /* \"#utility.yul\":470:533   */\n      tag_334\n      jumpi\n        /* \"#utility.yul\":529:530   */\n      0x00\n        /* \"#utility.yul\":526:527   */\n      0x00\n        /* \"#utility.yul\":519:531   */\n      revert\n        /* \"#utility.yul\":470:533   */\n    tag_334:\n        /* \"#utility.yul\":417:539   */\n      pop\n      jump\t// out\n        /* \"#utility.yul\":545:684   */\n    tag_272:\n        /* \"#utility.yul\":591:596   */\n      0x00\n        /* \"#utility.yul\":629:635   */\n      dup2\n        /* \"#utility.yul\":616:636   */\n      calldataload\n        /* \"#utility.yul\":607:636   */\n      swap1\n      pop\n        /* \"#utility.yul\":645:678   */\n      tag_336\n        /* \"#utility.yul\":672:677   */\n      dup2\n        /* \"#utility.yul\":645:678   */\n      tag_271\n      jump\t// in\n    tag_336:\n        /* \"#utility.yul\":545:684   */\n      swap3\n      swap2\n      pop\n      pop\n      jump\t// out\n        /* \"#utility.yul\":690:1019   */\n    tag_20:\n        /* \"#utility.yul\":749:755   */\n      0x00\n        /* \"#utility.yul\":798:800   */\n      0x20\n        /* \"#utility.yul\":786:795   */\n      dup3\n        /* \"#utility.yul\":777:784   */\n      dup5\n        /* \"#utility.yul\":773:796   */\n      sub\n        /* \"#utility.yul\":769:801   */\n      slt\n        /* \"#utility.yul\":766:885   */\n      iszero\n      tag_338\n      jumpi\n        /* \"#utility.yul\":804:883   */\n      tag_339\n      tag_268\n      jump\t// in\n    tag_339:\n        /* \"#utility.yul\":766:885   */\n    tag_338:\n        /* \"#utility.yul\":924:925   */\n      0x00\n        /* \"#utility.yul\":949:1002   */\n      tag_340\n        /* \"#utility.yul\":994:1001   */\n      dup5\n        /* \"#utility.yul\":985:991   */\n      dup3\n        /* \"#utility.yul\":974:983   */\n      dup6\n        /* \"#utility.yul\":970:992   */\n      add\n        /* \"#utility.yul\":949:1002   */\n      tag_272\n      jump\t// in\n    tag_340:\n        /* \"#utility.yul\":939:1002   */\n      swap2\n      pop\n        /* \"#utility.yul\":895:1012   */\n      pop\n        /* \"#utility.yul\":690:1019   */\n      swap3\n      swap2\n      pop\n      pop\n      jump\t// out\n        /* \"#utility.yul\":1025:1151   */\n    tag_273:\n        /* \"#utility.yul\":1062:1069   */\n      0x00\n        /* \"#utility.yul\":1102:1144   */\n      0xffffffffffffffffffffffffffffffffffffffff\n        /* \"#utility.yul\":1095:1100   */\n      dup3\n        /* \"#utility.yul\":1091:1145   */\n      and\n        /* \"#utility.yul\":1080:1145   */\n      swap1\n      pop\n        /* \"#utility.yul\":1025:1151   */\n      swap2\n      swap1\n      pop\n      jump\t// out\n        /* \"#utility.yul\":1157:1253   */\n    tag_274:\n        /* \"#utility.yul\":1194:1201   */\n      0x00\n        /* \"#utility.yul\":1223:1247   */\n      tag_343\n        /* \"#utility.yul\":1241:1246   */\n      dup3\n        /* \"#utility.yul\":1223:1247   */\n      tag_273\n      jump\t// in\n    tag_343:\n        /* \"#utility.yul\":1212:1247   */\n      swap1\n      pop\n        /* \"#utility.yul\":1157:1253   */\n      swap2\n      swap1\n      pop\n      jump\t// out\n        /* \"#utility.yul\":1259:1377   */\n    tag_275:\n        /* \"#utility.yul\":1346:1370   */\n      tag_345\n        /* \"#utility.yul\":1364:1369   */\n      dup2\n        /* \"#utility.yul\":1346:1370   */\n      tag_274\n      jump\t// in\n    tag_345:\n        /* \"#utility.yul\":1341:1344   */\n      dup3\n        /* \"#utility.yul\":1334:1371   */\n      mstore\n        /* \"#utility.yul\":1259:1377   */\n      pop\n      pop\n      jump\t// out\n        /* \"#utility.yul\":1383:1460   */\n    tag_276:\n        /* \"#utility.yul\":1420:1427   */\n      0x00\n        /* \"#utility.yul\":1449:1454   */\n      dup2\n        /* \"#utility.yul\":1438:1454   */\n      swap1\n      pop\n        /* \"#utility.yul\":1383:1460   */\n      swap2\n      swap1\n      pop\n      jump\t// out\n        /* \"#utility.yul\":1466:1584   */\n    tag_277:\n        /* \"#utility.yul\":1553:1577   */\n      tag_348\n        /* \"#utility.yul\":1571:1576   */\n      dup2\n        /* \"#utility.yul\":1553:1577   */\n      tag_276\n      jump\t// in\n    tag_348:\n        /* \"#utility.yul\":1548:1551   */\n      dup3\n        /* \"#utility.yul\":1541:1578   */\n      mstore\n        /* \"#utility.yul\":1466:1584   */\n      pop\n      pop\n      jump\t// out\n        /* \"#utility.yul\":1590:1922   */\n    tag_23:\n        /* \"#utility.yul\":1711:1715   */\n      0x00\n        /* \"#utility.yul\":1749:1751   */\n      0x40\n        /* \"#utility.yul\":1738:1747   */\n      dup3\n        /* \"#utility.yul\":1734:1752   */\n      add\n        /* \"#utility.yul\":1726:1752   */\n      swap1\n      pop\n        /* \"#utility.yul\":1762:1833   */\n      tag_350\n        /* \"#utility.yul\":1830:1831   */\n      0x00\n        /* \"#utility.yul\":1819:1828   */\n      dup4\n        /* \"#utility.yul\":1815:1832   */\n      add\n        /* \"#utility.yul\":1806:1812   */\n      dup6\n        /* \"#utility.yul\":1762:1833   */\n      tag_275\n      jump\t// in\n    tag_350:\n        /* \"#utility.yul\":1843:1915   */\n      tag_351\n        /* \"#utility.yul\":1911:1913   */\n      0x20\n        /* \"#utility.yul\":1900:1909   */\n      dup4\n        /* \"#utility.yul\":1896:1914   */\n      add\n        /* \"#utility.yul\":1887:1893   */\n      dup5\n        /* \"#utility.yul\":1843:1915   */\n      tag_277\n      jump\t// in\n    tag_351:\n        /* \"#utility.yul\":1590:1922   */\n      swap4\n      swap3\n      pop\n      pop\n      pop\n      jump\t// out\n        /* \"#utility.yul\":1928:2018   */\n    tag_278:\n        /* \"#utility.yul\":1962:1969   */\n      0x00\n        /* \"#utility.yul\":2005:2010   */\n      dup2\n        /* \"#utility.yul\":1998:2011   */\n      iszero\n        /* \"#utility.yul\":1991:2012   */\n      iszero\n        /* \"#utility.yul\":1980:2012   */\n      swap1\n      pop\n        /* \"#utility.yul\":1928:2018   */\n      swap2\n      swap1\n      pop\n      jump\t// out\n        /* \"#utility.yul\":2024:2133   */\n    tag_279:\n        /* \"#utility.yul\":2105:2126   */\n      tag_354\n        /* \"#utility.yul\":2120:2125   */\n      dup2\n        /* \"#utility.yul\":2105:2126   */\n      tag_278\n      jump\t// in\n    tag_354:\n        /* \"#utility.yul\":2100:2103   */\n      dup3\n        /* \"#utility.yul\":2093:2127   */\n      mstore\n        /* \"#utility.yul\":2024:2133   */\n      pop\n      pop\n      jump\t// out\n        /* \"#utility.yul\":2139:2349   */\n    tag_34:\n        /* \"#utility.yul\":2226:2230   */\n      0x00\n        /* \"#utility.yul\":2264:2266   */\n      0x20\n        /* \"#utility.yul\":2253:2262   */\n      dup3\n        /* \"#utility.yul\":2249:2267   */\n      add\n        /* \"#utility.yul\":2241:2267   */\n      swap1\n      pop\n        /* \"#utility.yul\":2277:2342   */\n      tag_356\n        /* \"#utility.yul\":2339:2340   */\n      0x00\n        /* \"#utility.yul\":2328:2337   */\n      dup4\n        /* \"#utility.yul\":2324:2341   */\n      add\n        /* \"#utility.yul\":2315:2321   */\n      dup5\n        /* \"#utility.yul\":2277:2342   */\n      tag_279\n      jump\t// in\n    tag_356:\n        /* \"#utility.yul\":2139:2349   */\n      swap3\n      swap2\n      pop\n      pop\n      jump\t// out\n        /* \"#utility.yul\":2355:2477   */\n    tag_280:\n        /* \"#utility.yul\":2428:2452   */\n      tag_358\n        /* \"#utility.yul\":2446:2451   */\n      dup2\n        /* \"#utility.yul\":2428:2452   */\n      tag_274\n      jump\t// in\n    tag_358:\n        /* \"#utility.yul\":2421:2426   */\n      dup2\n        /* \"#utility.yul\":2418:2453   */\n      eq\n        /* \"#utility.yul\":2408:2471   */\n      tag_359\n      jumpi\n        /* \"#utility.yul\":2467:2468   */\n      0x00\n        /* \"#utility.yul\":2464:2465   */\n      0x00\n        /* \"#utility.yul\":2457:2469   */\n      revert\n        /* \"#utility.yul\":2408:2471   */\n    tag_359:\n        /* \"#utility.yul\":2355:2477   */\n      pop\n      jump\t// out\n        /* \"#utility.yul\":2483:2622   */\n    tag_281:\n        /* \"#utility.yul\":2529:2534   */\n      0x00\n        /* \"#utility.yul\":2567:2573   */\n      dup2\n        /* \"#utility.yul\":2554:2574   */\n      calldataload\n        /* \"#utility.yul\":2545:2574   */\n      swap1\n      pop\n        /* \"#utility.yul\":2583:2616   */\n      tag_361\n        /* \"#utility.yul\":2610:2615   */\n      dup2\n        /* \"#utility.yul\":2583:2616   */\n      tag_280\n      jump\t// in\n    tag_361:\n        /* \"#utility.yul\":2483:2622   */\n      swap3\n      swap2\n      pop\n      pop\n      jump\t// out\n        /* \"#utility.yul\":2628:2745   */\n    tag_282:\n        /* \"#utility.yul\":2737:2738   */\n      0x00\n        /* \"#utility.yul\":2734:2735   */\n      0x00\n        /* \"#utility.yul\":2727:2739   */\n      revert\n        /* \"#utility.yul\":2751:2868   */\n    tag_283:\n        /* \"#utility.yul\":2860:2861   */\n      0x00\n        /* \"#utility.yul\":2857:2858   */\n      0x00\n        /* \"#utility.yul\":2850:2862   */\n      revert\n        /* \"#utility.yul\":2874:2976   */\n    tag_284:\n        /* \"#utility.yul\":2915:2921   */\n      0x00\n        /* \"#utility.yul\":2966:2968   */\n      0x1f\n        /* \"#utility.yul\":2962:2969   */\n      not\n        /* \"#utility.yul\":2957:2959   */\n      0x1f\n        /* \"#utility.yul\":2950:2955   */\n      dup4\n        /* \"#utility.yul\":2946:2960   */\n      add\n        /* \"#utility.yul\":2942:2970   */\n      and\n        /* \"#utility.yul\":2932:2970   */\n      swap1\n      pop\n        /* \"#utility.yul\":2874:2976   */\n      swap2\n      swap1\n      pop\n      jump\t// out\n        /* \"#utility.yul\":2982:3162   */\n    tag_285:\n        /* \"#utility.yul\":3030:3107   */\n      0x4e487b7100000000000000000000000000000000000000000000000000000000\n        /* \"#utility.yul\":3027:3028   */\n      0x00\n        /* \"#utility.yul\":3020:3108   */\n      mstore\n        /* \"#utility.yul\":3127:3131   */\n      0x41\n        /* \"#utility.yul\":3124:3125   */\n      0x04\n        /* \"#utility.yul\":3117:3132   */\n      mstore\n        /* \"#utility.yul\":3151:3155   */\n      0x24\n        /* \"#utility.yul\":3148:3149   */\n      0x00\n        /* \"#utility.yul\":3141:3156   */\n      revert\n        /* \"#utility.yul\":3168:3449   */\n    tag_286:\n        /* \"#utility.yul\":3251:3278   */\n      tag_367\n        /* \"#utility.yul\":3273:3277   */\n      dup3\n        /* \"#utility.yul\":3251:3278   */\n      tag_284\n      jump\t// in\n    tag_367:\n        /* \"#utility.yul\":3243:3249   */\n      dup2\n        /* \"#utility.yul\":3239:3279   */\n      add\n        /* \"#utility.yul\":3381:3387   */\n      dup2\n        /* \"#utility.yul\":3369:3379   */\n      dup2\n        /* \"#utility.yul\":3366:3388   */\n      lt\n        /* \"#utility.yul\":3345:3363   */\n      0xffffffffffffffff\n        /* \"#utility.yul\":3333:3343   */\n      dup3\n        /* \"#utility.yul\":3330:3364   */\n      gt\n        /* \"#utility.yul\":3327:3389   */\n      or\n        /* \"#utility.yul\":3324:3412   */\n      iszero\n      tag_368\n      jumpi\n        /* \"#utility.yul\":3392:3410   */\n      tag_369\n      tag_285\n      jump\t// in\n    tag_369:\n        /* \"#utility.yul\":3324:3412   */\n    tag_368:\n        /* \"#utility.yul\":3432:3442   */\n      dup1\n        /* \"#utility.yul\":3428:3430   */\n      0x40\n        /* \"#utility.yul\":3421:3443   */\n      mstore\n        /* \"#utility.yul\":3211:3449   */\n      pop\n        /* \"#utility.yul\":3168:3449   */\n      pop\n      pop\n      jump\t// out\n        /* \"#utility.yul\":3455:3584   */\n    tag_287:\n        /* \"#utility.yul\":3489:3495   */\n      0x00\n        /* \"#utility.yul\":3516:3536   */\n      tag_371\n      tag_267\n      jump\t// in\n    tag_371:\n        /* \"#utility.yul\":3506:3536   */\n      swap1\n      pop\n        /* \"#utility.yul\":3545:3578   */\n      tag_372\n        /* \"#utility.yul\":3573:3577   */\n      dup3\n        /* \"#utility.yul\":3565:3571   */\n      dup3\n        /* \"#utility.yul\":3545:3578   */\n      tag_286\n      jump\t// in\n    tag_372:\n        /* \"#utility.yul\":3455:3584   */\n      swap2\n      swap1\n      pop\n      jump\t// out\n        /* \"#utility.yul\":3590:3897   */\n    tag_288:\n        /* \"#utility.yul\":3651:3655   */\n      0x00\n        /* \"#utility.yul\":3741:3759   */\n      0xffffffffffffffff\n        /* \"#utility.yul\":3733:3739   */\n      dup3\n        /* \"#utility.yul\":3730:3760   */\n      gt\n        /* \"#utility.yul\":3727:3783   */\n      iszero\n      tag_374\n      jumpi\n        /* \"#utility.yul\":3763:3781   */\n      tag_375\n      tag_285\n      jump\t// in\n    tag_375:\n        /* \"#utility.yul\":3727:3783   */\n    tag_374:\n        /* \"#utility.yul\":3801:3830   */\n      tag_376\n        /* \"#utility.yul\":3823:3829   */\n      dup3\n        /* \"#utility.yul\":3801:3830   */\n      tag_284\n      jump\t// in\n    tag_376:\n        /* \"#utility.yul\":3793:3830   */\n      swap1\n      pop\n        /* \"#utility.yul\":3885:3889   */\n      0x20\n        /* \"#utility.yul\":3879:3883   */\n      dup2\n        /* \"#utility.yul\":3875:3890   */\n      add\n        /* \"#utility.yul\":3867:3890   */\n      swap1\n      pop\n        /* \"#utility.yul\":3590:3897   */\n      swap2\n      swap1\n      pop\n      jump\t// out\n        /* \"#utility.yul\":3903:4051   */\n    tag_289:\n        /* \"#utility.yul\":4001:4007   */\n      dup3\n        /* \"#utility.yul\":3996:3999   */\n      dup2\n        /* \"#utility.yul\":3991:3994   */\n      dup4\n        /* \"#utility.yul\":3978:4008   */\n      calldatacopy\n        /* \"#utility.yul\":4042:4043   */\n      0x00\n        /* \"#utility.yul\":4033:4039   */\n      dup4\n        /* \"#utility.yul\":4028:4031   */\n      dup4\n        /* \"#utility.yul\":4024:4040   */\n      add\n        /* \"#utility.yul\":4017:4044   */\n      mstore\n        /* \"#utility.yul\":3903:4051   */\n      pop\n      pop\n      pop\n      jump\t// out\n        /* \"#utility.yul\":4057:4480   */\n    tag_290:\n        /* \"#utility.yul\":4134:4139   */\n      0x00\n        /* \"#utility.yul\":4159:4224   */\n      tag_379\n        /* \"#utility.yul\":4175:4223   */\n      tag_380\n        /* \"#utility.yul\":4216:4222   */\n      dup5\n        /* \"#utility.yul\":4175:4223   */\n      tag_288\n      jump\t// in\n    tag_380:\n        /* \"#utility.yul\":4159:4224   */\n      tag_287\n      jump\t// in\n    tag_379:\n        /* \"#utility.yul\":4150:4224   */\n      swap1\n      pop\n        /* \"#utility.yul\":4247:4253   */\n      dup3\n        /* \"#utility.yul\":4240:4245   */\n      dup2\n        /* \"#utility.yul\":4233:4254   */\n      mstore\n        /* \"#utility.yul\":4285:4289   */\n      0x20\n        /* \"#utility.yul\":4278:4283   */\n      dup2\n        /* \"#utility.yul\":4274:4290   */\n      add\n        /* \"#utility.yul\":4323:4326   */\n      dup5\n        /* \"#utility.yul\":4314:4320   */\n      dup5\n        /* \"#utility.yul\":4309:4312   */\n      dup5\n        /* \"#utility.yul\":4305:4321   */\n      add\n        /* \"#utility.yul\":4302:4327   */\n      gt\n        /* \"#utility.yul\":4299:4411   */\n      iszero\n      tag_381\n      jumpi\n        /* \"#utility.yul\":4330:4409   */\n      tag_382\n      tag_283\n      jump\t// in\n    tag_382:\n        /* \"#utility.yul\":4299:4411   */\n    tag_381:\n        /* \"#utility.yul\":4420:4474   */\n      tag_383\n        /* \"#utility.yul\":4467:4473   */\n      dup5\n        /* \"#utility.yul\":4462:4465   */\n      dup3\n        /* \"#utility.yul\":4457:4460   */\n      dup6\n        /* \"#utility.yul\":4420:4474   */\n      tag_289\n      jump\t// in\n    tag_383:\n        /* \"#utility.yul\":4140:4480   */\n      pop\n        /* \"#utility.yul\":4057:4480   */\n      swap4\n      swap3\n      pop\n      pop\n      pop\n      jump\t// out\n        /* \"#utility.yul\":4499:4837   */\n    tag_291:\n        /* \"#utility.yul\":4554:4559   */\n      0x00\n        /* \"#utility.yul\":4603:4606   */\n      dup3\n        /* \"#utility.yul\":4596:4600   */\n      0x1f\n        /* \"#utility.yul\":4588:4594   */\n      dup4\n        /* \"#utility.yul\":4584:4601   */\n      add\n        /* \"#utility.yul\":4580:4607   */\n      slt\n        /* \"#utility.yul\":4570:4692   */\n      tag_385\n      jumpi\n        /* \"#utility.yul\":4611:4690   */\n      tag_386\n      tag_282\n      jump\t// in\n    tag_386:\n        /* \"#utility.yul\":4570:4692   */\n    tag_385:\n        /* \"#utility.yul\":4728:4734   */\n      dup2\n        /* \"#utility.yul\":4715:4735   */\n      calldataload\n        /* \"#utility.yul\":4753:4831   */\n      tag_387\n        /* \"#utility.yul\":4827:4830   */\n      dup5\n        /* \"#utility.yul\":4819:4825   */\n      dup3\n        /* \"#utility.yul\":4812:4816   */\n      0x20\n        /* \"#utility.yul\":4804:4810   */\n      dup7\n        /* \"#utility.yul\":4800:4817   */\n      add\n        /* \"#utility.yul\":4753:4831   */\n      tag_290\n      jump\t// in\n    tag_387:\n        /* \"#utility.yul\":4744:4831   */\n      swap2\n      pop\n        /* \"#utility.yul\":4560:4837   */\n      pop\n        /* \"#utility.yul\":4499:4837   */\n      swap3\n      swap2\n      pop\n      pop\n      jump\t// out\n        /* \"#utility.yul\":4843:5495   */\n    tag_37:\n        /* \"#utility.yul\":4920:4926   */\n      0x00\n        /* \"#utility.yul\":4928:4934   */\n      0x00\n        /* \"#utility.yul\":4977:4979   */\n      0x40\n        /* \"#utility.yul\":4965:4974   */\n      dup4\n        /* \"#utility.yul\":4956:4963   */\n      dup6\n        /* \"#utility.yul\":4952:4975   */\n      sub\n        /* \"#utility.yul\":4948:4980   */\n      slt\n        /* \"#utility.yul\":4945:5064   */\n      iszero\n      tag_389\n      jumpi\n        /* \"#utility.yul\":4983:5062   */\n      tag_390\n      tag_268\n      jump\t// in\n    tag_390:\n        /* \"#utility.yul\":4945:5064   */\n    tag_389:\n        /* \"#utility.yul\":5103:5104   */\n      0x00\n        /* \"#utility.yul\":5128:5181   */\n      tag_391\n        /* \"#utility.yul\":5173:5180   */\n      dup6\n        /* \"#utility.yul\":5164:5170   */\n      dup3\n        /* \"#utility.yul\":5153:5162   */\n      dup7\n        /* \"#utility.yul\":5149:5171   */\n      add\n        /* \"#utility.yul\":5128:5181   */\n      tag_281\n      jump\t// in\n    tag_391:\n        /* \"#utility.yul\":5118:5181   */\n      swap3\n      pop\n        /* \"#utility.yul\":5074:5191   */\n      pop\n        /* \"#utility.yul\":5258:5260   */\n      0x20\n        /* \"#utility.yul\":5247:5256   */\n      dup4\n        /* \"#utility.yul\":5243:5261   */\n      add\n        /* \"#utility.yul\":5230:5262   */\n      calldataload\n        /* \"#utility.yul\":5289:5307   */\n      0xffffffffffffffff\n        /* \"#utility.yul\":5281:5287   */\n      dup2\n        /* \"#utility.yul\":5278:5308   */\n      gt\n        /* \"#utility.yul\":5275:5392   */\n      iszero\n      tag_392\n      jumpi\n        /* \"#utility.yul\":5311:5390   */\n      tag_393\n      tag_269\n      jump\t// in\n    tag_393:\n        /* \"#utility.yul\":5275:5392   */\n    tag_392:\n        /* \"#utility.yul\":5416:5478   */\n      tag_394\n        /* \"#utility.yul\":5470:5477   */\n      dup6\n        /* \"#utility.yul\":5461:5467   */\n      dup3\n        /* \"#utility.yul\":5450:5459   */\n      dup7\n        /* \"#utility.yul\":5446:5468   */\n      add\n        /* \"#utility.yul\":5416:5478   */\n      tag_291\n      jump\t// in\n    tag_394:\n        /* \"#utility.yul\":5406:5478   */\n      swap2\n      pop\n        /* \"#utility.yul\":5201:5488   */\n      pop\n        /* \"#utility.yul\":4843:5495   */\n      swap3\n      pop\n      swap3\n      swap1\n      pop\n      jump\t// out\n        /* \"#utility.yul\":5501:5619   */\n    tag_292:\n        /* \"#utility.yul\":5588:5612   */\n      tag_396\n        /* \"#utility.yul\":5606:5611   */\n      dup2\n        /* \"#utility.yul\":5588:5612   */\n      tag_270\n      jump\t// in\n    tag_396:\n        /* \"#utility.yul\":5583:5586   */\n      dup3\n        /* \"#utility.yul\":5576:5613   */\n      mstore\n        /* \"#utility.yul\":5501:5619   */\n      pop\n      pop\n      jump\t// out\n        /* \"#utility.yul\":5625:5847   */\n    tag_43:\n        /* \"#utility.yul\":5718:5722   */\n      0x00\n        /* \"#utility.yul\":5756:5758   */\n      0x20\n        /* \"#utility.yul\":5745:5754   */\n      dup3\n        /* \"#utility.yul\":5741:5759   */\n      add\n        /* \"#utility.yul\":5733:5759   */\n      swap1\n      pop\n        /* \"#utility.yul\":5769:5840   */\n      tag_398\n        /* \"#utility.yul\":5837:5838   */\n      0x00\n        /* \"#utility.yul\":5826:5835   */\n      dup4\n        /* \"#utility.yul\":5822:5839   */\n      add\n        /* \"#utility.yul\":5813:5819   */\n      dup5\n        /* \"#utility.yul\":5769:5840   */\n      tag_292\n      jump\t// in\n    tag_398:\n        /* \"#utility.yul\":5625:5847   */\n      swap3\n      swap2\n      pop\n      pop\n      jump\t// out\n        /* \"#utility.yul\":5853:5970   */\n    tag_293:\n        /* \"#utility.yul\":5962:5963   */\n      0x00\n        /* \"#utility.yul\":5959:5960   */\n      0x00\n        /* \"#utility.yul\":5952:5964   */\n      revert\n        /* \"#utility.yul\":5976:6093   */\n    tag_294:\n        /* \"#utility.yul\":6085:6086   */\n      0x00\n        /* \"#utility.yul\":6082:6083   */\n      0x00\n        /* \"#utility.yul\":6075:6087   */\n      revert\n        /* \"#utility.yul\":6116:6684   */\n    tag_295:\n        /* \"#utility.yul\":6189:6197   */\n      0x00\n        /* \"#utility.yul\":6199:6205   */\n      0x00\n        /* \"#utility.yul\":6249:6252   */\n      dup4\n        /* \"#utility.yul\":6242:6246   */\n      0x1f\n        /* \"#utility.yul\":6234:6240   */\n      dup5\n        /* \"#utility.yul\":6230:6247   */\n      add\n        /* \"#utility.yul\":6226:6253   */\n      slt\n        /* \"#utility.yul\":6216:6338   */\n      tag_402\n      jumpi\n        /* \"#utility.yul\":6257:6336   */\n      tag_403\n      tag_282\n      jump\t// in\n    tag_403:\n        /* \"#utility.yul\":6216:6338   */\n    tag_402:\n        /* \"#utility.yul\":6370:6376   */\n      dup3\n        /* \"#utility.yul\":6357:6377   */\n      calldataload\n        /* \"#utility.yul\":6347:6377   */\n      swap1\n      pop\n        /* \"#utility.yul\":6400:6418   */\n      0xffffffffffffffff\n        /* \"#utility.yul\":6392:6398   */\n      dup2\n        /* \"#utility.yul\":6389:6419   */\n      gt\n        /* \"#utility.yul\":6386:6503   */\n      iszero\n      tag_404\n      jumpi\n        /* \"#utility.yul\":6422:6501   */\n      tag_405\n      tag_293\n      jump\t// in\n    tag_405:\n        /* \"#utility.yul\":6386:6503   */\n    tag_404:\n        /* \"#utility.yul\":6536:6540   */\n      0x20\n        /* \"#utility.yul\":6528:6534   */\n      dup4\n        /* \"#utility.yul\":6524:6541   */\n      add\n        /* \"#utility.yul\":6512:6541   */\n      swap2\n      pop\n        /* \"#utility.yul\":6590:6593   */\n      dup4\n        /* \"#utility.yul\":6582:6586   */\n      0x20\n        /* \"#utility.yul\":6574:6580   */\n      dup3\n        /* \"#utility.yul\":6570:6587   */\n      mul\n        /* \"#utility.yul\":6560:6568   */\n      dup4\n        /* \"#utility.yul\":6556:6588   */\n      add\n        /* \"#utility.yul\":6553:6594   */\n      gt\n        /* \"#utility.yul\":6550:6678   */\n      iszero\n      tag_406\n      jumpi\n        /* \"#utility.yul\":6597:6676   */\n      tag_407\n      tag_294\n      jump\t// in\n    tag_407:\n        /* \"#utility.yul\":6550:6678   */\n    tag_406:\n        /* \"#utility.yul\":6116:6684   */\n      swap3\n      pop\n      swap3\n      swap1\n      pop\n      jump\t// out\n        /* \"#utility.yul\":6690:7249   */\n    tag_47:\n        /* \"#utility.yul\":6776:6782   */\n      0x00\n        /* \"#utility.yul\":6784:6790   */\n      0x00\n        /* \"#utility.yul\":6833:6835   */\n      0x20\n        /* \"#utility.yul\":6821:6830   */\n      dup4\n        /* \"#utility.yul\":6812:6819   */\n      dup6\n        /* \"#utility.yul\":6808:6831   */\n      sub\n        /* \"#utility.yul\":6804:6836   */\n      slt\n        /* \"#utility.yul\":6801:6920   */\n      iszero\n      tag_409\n      jumpi\n        /* \"#utility.yul\":6839:6918   */\n      tag_410\n      tag_268\n      jump\t// in\n    tag_410:\n        /* \"#utility.yul\":6801:6920   */\n    tag_409:\n        /* \"#utility.yul\":6987:6988   */\n      0x00\n        /* \"#utility.yul\":6976:6985   */\n      dup4\n        /* \"#utility.yul\":6972:6989   */\n      add\n        /* \"#utility.yul\":6959:6990   */\n      calldataload\n        /* \"#utility.yul\":7017:7035   */\n      0xffffffffffffffff\n        /* \"#utility.yul\":7009:7015   */\n      dup2\n        /* \"#utility.yul\":7006:7036   */\n      gt\n        /* \"#utility.yul\":7003:7120   */\n      iszero\n      tag_411\n      jumpi\n        /* \"#utility.yul\":7039:7118   */\n      tag_412\n      tag_269\n      jump\t// in\n    tag_412:\n        /* \"#utility.yul\":7003:7120   */\n    tag_411:\n        /* \"#utility.yul\":7152:7232   */\n      tag_413\n        /* \"#utility.yul\":7224:7231   */\n      dup6\n        /* \"#utility.yul\":7215:7221   */\n      dup3\n        /* \"#utility.yul\":7204:7213   */\n      dup7\n        /* \"#utility.yul\":7200:7222   */\n      add\n        /* \"#utility.yul\":7152:7232   */\n      tag_295\n      jump\t// in\n    tag_413:\n        /* \"#utility.yul\":7134:7232   */\n      swap3\n      pop\n      swap3\n      pop\n        /* \"#utility.yul\":6930:7242   */\n      pop\n        /* \"#utility.yul\":6690:7249   */\n      swap3\n      pop\n      swap3\n      swap1\n      pop\n      jump\t// out\n        /* \"#utility.yul\":7255:7477   */\n    tag_56:\n        /* \"#utility.yul\":7348:7352   */\n      0x00\n        /* \"#utility.yul\":7386:7388   */\n      0x20\n        /* \"#utility.yul\":7375:7384   */\n      dup3\n        /* \"#utility.yul\":7371:7389   */\n      add\n        /* \"#utility.yul\":7363:7389   */\n      swap1\n      pop\n        /* \"#utility.yul\":7399:7470   */\n      tag_415\n        /* \"#utility.yul\":7467:7468   */\n      0x00\n        /* \"#utility.yul\":7456:7465   */\n      dup4\n        /* \"#utility.yul\":7452:7469   */\n      add\n        /* \"#utility.yul\":7443:7449   */\n      dup5\n        /* \"#utility.yul\":7399:7470   */\n      tag_275\n      jump\t// in\n    tag_415:\n        /* \"#utility.yul\":7255:7477   */\n      swap3\n      swap2\n      pop\n      pop\n      jump\t// out\n        /* \"#utility.yul\":7483:7582   */\n    tag_296:\n        /* \"#utility.yul\":7535:7541   */\n      0x00\n        /* \"#utility.yul\":7569:7574   */\n      dup2\n        /* \"#utility.yul\":7563:7575   */\n      mload\n        /* \"#utility.yul\":7553:7575   */\n      swap1\n      pop\n        /* \"#utility.yul\":7483:7582   */\n      swap2\n      swap1\n      pop\n      jump\t// out\n        /* \"#utility.yul\":7588:7757   */\n    tag_297:\n        /* \"#utility.yul\":7672:7683   */\n      0x00\n        /* \"#utility.yul\":7706:7712   */\n      dup3\n        /* \"#utility.yul\":7701:7704   */\n      dup3\n        /* \"#utility.yul\":7694:7713   */\n      mstore\n        /* \"#utility.yul\":7746:7750   */\n      0x20\n        /* \"#utility.yul\":7741:7744   */\n      dup3\n        /* \"#utility.yul\":7737:7751   */\n      add\n        /* \"#utility.yul\":7722:7751   */\n      swap1\n      pop\n        /* \"#utility.yul\":7588:7757   */\n      swap3\n      swap2\n      pop\n      pop\n      jump\t// out\n        /* \"#utility.yul\":7763:7902   */\n    tag_298:\n        /* \"#utility.yul\":7852:7858   */\n      dup3\n        /* \"#utility.yul\":7847:7850   */\n      dup2\n        /* \"#utility.yul\":7842:7845   */\n      dup4\n        /* \"#utility.yul\":7836:7859   */\n      mcopy\n        /* \"#utility.yul\":7893:7894   */\n      0x00\n        /* \"#utility.yul\":7884:7890   */\n      dup4\n        /* \"#utility.yul\":7879:7882   */\n      dup4\n        /* \"#utility.yul\":7875:7891   */\n      add\n        /* \"#utility.yul\":7868:7895   */\n      mstore\n        /* \"#utility.yul\":7763:7902   */\n      pop\n      pop\n      pop\n      jump\t// out\n        /* \"#utility.yul\":7908:8285   */\n    tag_299:\n        /* \"#utility.yul\":7996:7999   */\n      0x00\n        /* \"#utility.yul\":8024:8063   */\n      tag_420\n        /* \"#utility.yul\":8057:8062   */\n      dup3\n        /* \"#utility.yul\":8024:8063   */\n      tag_296\n      jump\t// in\n    tag_420:\n        /* \"#utility.yul\":8079:8150   */\n      tag_421\n        /* \"#utility.yul\":8143:8149   */\n      dup2\n        /* \"#utility.yul\":8138:8141   */\n      dup6\n        /* \"#utility.yul\":8079:8150   */\n      tag_297\n      jump\t// in\n    tag_421:\n        /* \"#utility.yul\":8072:8150   */\n      swap4\n      pop\n        /* \"#utility.yul\":8159:8224   */\n      tag_422\n        /* \"#utility.yul\":8217:8223   */\n      dup2\n        /* \"#utility.yul\":8212:8215   */\n      dup6\n        /* \"#utility.yul\":8205:8209   */\n      0x20\n        /* \"#utility.yul\":8198:8203   */\n      dup7\n        /* \"#utility.yul\":8194:8210   */\n      add\n        /* \"#utility.yul\":8159:8224   */\n      tag_298\n      jump\t// in\n    tag_422:\n        /* \"#utility.yul\":8249:8278   */\n      tag_423\n        /* \"#utility.yul\":8271:8277   */\n      dup2\n        /* \"#utility.yul\":8249:8278   */\n      tag_284\n      jump\t// in\n    tag_423:\n        /* \"#utility.yul\":8244:8247   */\n      dup5\n        /* \"#utility.yul\":8240:8279   */\n      add\n        /* \"#utility.yul\":8233:8279   */\n      swap2\n      pop\n        /* \"#utility.yul\":8000:8285   */\n      pop\n        /* \"#utility.yul\":7908:8285   */\n      swap3\n      swap2\n      pop\n      pop\n      jump\t// out\n        /* \"#utility.yul\":8291:8604   */\n    tag_61:\n        /* \"#utility.yul\":8404:8408   */\n      0x00\n        /* \"#utility.yul\":8442:8444   */\n      0x20\n        /* \"#utility.yul\":8431:8440   */\n      dup3\n        /* \"#utility.yul\":8427:8445   */\n      add\n        /* \"#utility.yul\":8419:8445   */\n      swap1\n      pop\n        /* \"#utility.yul\":8491:8500   */\n      dup2\n        /* \"#utility.yul\":8485:8489   */\n      dup2\n        /* \"#utility.yul\":8481:8501   */\n      sub\n        /* \"#utility.yul\":8477:8478   */\n      0x00\n        /* \"#utility.yul\":8466:8475   */\n      dup4\n        /* \"#utility.yul\":8462:8479   */\n      add\n        /* \"#utility.yul\":8455:8502   */\n      mstore\n        /* \"#utility.yul\":8519:8597   */\n      tag_425\n        /* \"#utility.yul\":8592:8596   */\n      dup2\n        /* \"#utility.yul\":8583:8589   */\n      dup5\n        /* \"#utility.yul\":8519:8597   */\n      tag_299\n      jump\t// in\n    tag_425:\n        /* \"#utility.yul\":8511:8597   */\n      swap1\n      pop\n        /* \"#utility.yul\":8291:8604   */\n      swap3\n      swap2\n      pop\n      pop\n      jump\t// out\n        /* \"#utility.yul\":8610:8939   */\n    tag_65:\n        /* \"#utility.yul\":8669:8675   */\n      0x00\n        /* \"#utility.yul\":8718:8720   */\n      0x20\n        /* \"#utility.yul\":8706:8715   */\n      dup3\n        /* \"#utility.yul\":8697:8704   */\n      dup5\n        /* \"#utility.yul\":8693:8716   */\n      sub\n        /* \"#utility.yul\":8689:8721   */\n      slt\n        /* \"#utility.yul\":8686:8805   */\n      iszero\n      tag_427\n      jumpi\n        /* \"#utility.yul\":8724:8803   */\n      tag_428\n      tag_268\n      jump\t// in\n    tag_428:\n        /* \"#utility.yul\":8686:8805   */\n    tag_427:\n        /* \"#utility.yul\":8844:8845   */\n      0x00\n        /* \"#utility.yul\":8869:8922   */\n      tag_429\n        /* \"#utility.yul\":8914:8921   */\n      dup5\n        /* \"#utility.yul\":8905:8911   */\n      dup3\n        /* \"#utility.yul\":8894:8903   */\n      dup6\n        /* \"#utility.yul\":8890:8912   */\n      add\n        /* \"#utility.yul\":8869:8922   */\n      tag_281\n      jump\t// in\n    tag_429:\n        /* \"#utility.yul\":8859:8922   */\n      swap2\n      pop\n        /* \"#utility.yul\":8815:8932   */\n      pop\n        /* \"#utility.yul\":8610:8939   */\n      swap3\n      swap2\n      pop\n      pop\n      jump\t// out\n        /* \"#utility.yul\":8945:9419   */\n    tag_74:\n        /* \"#utility.yul\":9013:9019   */\n      0x00\n        /* \"#utility.yul\":9021:9027   */\n      0x00\n        /* \"#utility.yul\":9070:9072   */\n      0x40\n        /* \"#utility.yul\":9058:9067   */\n      dup4\n        /* \"#utility.yul\":9049:9056   */\n      dup6\n        /* \"#utility.yul\":9045:9068   */\n      sub\n        /* \"#utility.yul\":9041:9073   */\n      slt\n        /* \"#utility.yul\":9038:9157   */\n      iszero\n      tag_431\n      jumpi\n        /* \"#utility.yul\":9076:9155   */\n      tag_432\n      tag_268\n      jump\t// in\n    tag_432:\n        /* \"#utility.yul\":9038:9157   */\n    tag_431:\n        /* \"#utility.yul\":9196:9197   */\n      0x00\n        /* \"#utility.yul\":9221:9274   */\n      tag_433\n        /* \"#utility.yul\":9266:9273   */\n      dup6\n        /* \"#utility.yul\":9257:9263   */\n      dup3\n        /* \"#utility.yul\":9246:9255   */\n      dup7\n        /* \"#utility.yul\":9242:9264   */\n      add\n        /* \"#utility.yul\":9221:9274   */\n      tag_272\n      jump\t// in\n    tag_433:\n        /* \"#utility.yul\":9211:9274   */\n      swap3\n      pop\n        /* \"#utility.yul\":9167:9284   */\n      pop\n        /* \"#utility.yul\":9323:9325   */\n      0x20\n        /* \"#utility.yul\":9349:9402   */\n      tag_434\n        /* \"#utility.yul\":9394:9401   */\n      dup6\n        /* \"#utility.yul\":9385:9391   */\n      dup3\n        /* \"#utility.yul\":9374:9383   */\n      dup7\n        /* \"#utility.yul\":9370:9392   */\n      add\n        /* \"#utility.yul\":9349:9402   */\n      tag_281\n      jump\t// in\n    tag_434:\n        /* \"#utility.yul\":9339:9402   */\n      swap2\n      pop\n        /* \"#utility.yul\":9294:9412   */\n      pop\n        /* \"#utility.yul\":8945:9419   */\n      swap3\n      pop\n      swap3\n      swap1\n      pop\n      jump\t// out\n        /* \"#utility.yul\":9425:9605   */\n    tag_103:\n        /* \"#utility.yul\":9473:9550   */\n      0x4e487b7100000000000000000000000000000000000000000000000000000000\n        /* \"#utility.yul\":9470:9471   */\n      0x00\n        /* \"#utility.yul\":9463:9551   */\n      mstore\n        /* \"#utility.yul\":9570:9574   */\n      0x32\n        /* \"#utility.yul\":9567:9568   */\n      0x04\n        /* \"#utility.yul\":9560:9575   */\n      mstore\n        /* \"#utility.yul\":9594:9598   */\n      0x24\n        /* \"#utility.yul\":9591:9592   */\n      0x00\n        /* \"#utility.yul\":9584:9599   */\n      revert\n        /* \"#utility.yul\":9611:9773   */\n    tag_300:\n        /* \"#utility.yul\":9751:9765   */\n      0x496e76616c696420686173680000000000000000000000000000000000000000\n        /* \"#utility.yul\":9747:9748   */\n      0x00\n        /* \"#utility.yul\":9739:9745   */\n      dup3\n        /* \"#utility.yul\":9735:9749   */\n      add\n        /* \"#utility.yul\":9728:9766   */\n      mstore\n        /* \"#utility.yul\":9611:9773   */\n      pop\n      jump\t// out\n        /* \"#utility.yul\":9779:10145   */\n    tag_301:\n        /* \"#utility.yul\":9921:9924   */\n      0x00\n        /* \"#utility.yul\":9942:10009   */\n      tag_438\n        /* \"#utility.yul\":10006:10008   */\n      0x0c\n        /* \"#utility.yul\":10001:10004   */\n      dup4\n        /* \"#utility.yul\":9942:10009   */\n      tag_297\n      jump\t// in\n    tag_438:\n        /* \"#utility.yul\":9935:10009   */\n      swap2\n      pop\n        /* \"#utility.yul\":10018:10111   */\n      tag_439\n        /* \"#utility.yul\":10107:10110   */\n      dup3\n        /* \"#utility.yul\":10018:10111   */\n      tag_300\n      jump\t// in\n    tag_439:\n        /* \"#utility.yul\":10136:10138   */\n      0x20\n        /* \"#utility.yul\":10131:10134   */\n      dup3\n        /* \"#utility.yul\":10127:10139   */\n      add\n        /* \"#utility.yul\":10120:10139   */\n      swap1\n      pop\n        /* \"#utility.yul\":9779:10145   */\n      swap2\n      swap1\n      pop\n      jump\t// out\n        /* \"#utility.yul\":10151:10570   */\n    tag_106:\n        /* \"#utility.yul\":10317:10321   */\n      0x00\n        /* \"#utility.yul\":10355:10357   */\n      0x20\n        /* \"#utility.yul\":10344:10353   */\n      dup3\n        /* \"#utility.yul\":10340:10358   */\n      add\n        /* \"#utility.yul\":10332:10358   */\n      swap1\n      pop\n        /* \"#utility.yul\":10404:10413   */\n      dup2\n        /* \"#utility.yul\":10398:10402   */\n      dup2\n        /* \"#utility.yul\":10394:10414   */\n      sub\n        /* \"#utility.yul\":10390:10391   */\n      0x00\n        /* \"#utility.yul\":10379:10388   */\n      dup4\n        /* \"#utility.yul\":10375:10392   */\n      add\n        /* \"#utility.yul\":10368:10415   */\n      mstore\n        /* \"#utility.yul\":10432:10563   */\n      tag_441\n        /* \"#utility.yul\":10558:10562   */\n      dup2\n        /* \"#utility.yul\":10432:10563   */\n      tag_301\n      jump\t// in\n    tag_441:\n        /* \"#utility.yul\":10424:10563   */\n      swap1\n      pop\n        /* \"#utility.yul\":10151:10570   */\n      swap2\n      swap1\n      pop\n      jump\t// out\n        /* \"#utility.yul\":10576:10744   */\n    tag_302:\n        /* \"#utility.yul\":10716:10736   */\n      0x416c726561647920726567697374657265640000000000000000000000000000\n        /* \"#utility.yul\":10712:10713   */\n      0x00\n        /* \"#utility.yul\":10704:10710   */\n      dup3\n        /* \"#utility.yul\":10700:10714   */\n      add\n        /* \"#utility.yul\":10693:10737   */\n      mstore\n        /* \"#utility.yul\":10576:10744   */\n      pop\n      jump\t// out\n        /* \"#utility.yul\":10750:11116   */\n    tag_303:\n        /* \"#utility.yul\":10892:10895   */\n      0x00\n        /* \"#utility.yul\":10913:10980   */\n      tag_444\n        /* \"#utility.yul\":10977:10979   */\n      0x12\n        /* \"#utility.yul\":10972:10975   */\n      dup4\n        /* \"#utility.yul\":10913:10980   */\n      tag_297\n      jump\t// in\n    tag_444:\n        /* \"#utility.yul\":10906:10980   */\n      swap2\n      pop\n        /* \"#utility.yul\":10989:11082   */\n      tag_445\n        /* \"#utility.yul\":11078:11081   */\n      dup3\n        /* \"#utility.yul\":10989:11082   */\n      tag_302\n      jump\t// in\n    tag_445:\n        /* \"#utility.yul\":11107:11109   */\n      0x20\n        /* \"#utility.yul\":11102:11105   */\n      dup3\n        /* \"#utility.yul\":11098:11110   */\n      add\n        /* \"#utility.yul\":11091:11110   */\n      swap1\n      pop\n        /* \"#utility.yul\":10750:11116   */\n      swap2\n      swap1\n      pop\n      jump\t// out\n        /* \"#utility.yul\":11122:11541   */\n    tag_109:\n        /* \"#utility.yul\":11288:11292   */\n      0x00\n        /* \"#utility.yul\":11326:11328   */\n      0x20\n        /* \"#utility.yul\":11315:11324   */\n      dup3\n        /* \"#utility.yul\":11311:11329   */\n      add\n        /* \"#utility.yul\":11303:11329   */\n      swap1\n      pop\n        /* \"#utility.yul\":11375:11384   */\n      dup2\n        /* \"#utility.yul\":11369:11373   */\n      dup2\n        /* \"#utility.yul\":11365:11385   */\n      sub\n        /* \"#utility.yul\":11361:11362   */\n      0x00\n        /* \"#utility.yul\":11350:11359   */\n      dup4\n        /* \"#utility.yul\":11346:11363   */\n      add\n        /* \"#utility.yul\":11339:11386   */\n      mstore\n        /* \"#utility.yul\":11403:11534   */\n      tag_447\n        /* \"#utility.yul\":11529:11533   */\n      dup2\n        /* \"#utility.yul\":11403:11534   */\n      tag_303\n      jump\t// in\n    tag_447:\n        /* \"#utility.yul\":11395:11534   */\n      swap1\n      pop\n        /* \"#utility.yul\":11122:11541   */\n      swap2\n      swap1\n      pop\n      jump\t// out\n        /* \"#utility.yul\":11547:11652   */\n    tag_304:\n        /* \"#utility.yul\":11583:11590   */\n      0x00\n        /* \"#utility.yul\":11623:11645   */\n      0xffffffffffffffffffff\n        /* \"#utility.yul\":11616:11621   */\n      dup3\n        /* \"#utility.yul\":11612:11646   */\n      and\n        /* \"#utility.yul\":11601:11646   */\n      swap1\n      pop\n        /* \"#utility.yul\":11547:11652   */\n      swap2\n      swap1\n      pop\n      jump\t// out\n        /* \"#utility.yul\":11658:11778   */\n    tag_305:\n        /* \"#utility.yul\":11730:11753   */\n      tag_450\n        /* \"#utility.yul\":11747:11752   */\n      dup2\n        /* \"#utility.yul\":11730:11753   */\n      tag_304\n      jump\t// in\n    tag_450:\n        /* \"#utility.yul\":11723:11728   */\n      dup2\n        /* \"#utility.yul\":11720:11754   */\n      eq\n        /* \"#utility.yul\":11710:11772   */\n      tag_451\n      jumpi\n        /* \"#utility.yul\":11768:11769   */\n      0x00\n        /* \"#utility.yul\":11765:11766   */\n      0x00\n        /* \"#utility.yul\":11758:11770   */\n      revert\n        /* \"#utility.yul\":11710:11772   */\n    tag_451:\n        /* \"#utility.yul\":11658:11778   */\n      pop\n      jump\t// out\n        /* \"#utility.yul\":11784:11925   */\n    tag_306:\n        /* \"#utility.yul\":11840:11845   */\n      0x00\n        /* \"#utility.yul\":11871:11877   */\n      dup2\n        /* \"#utility.yul\":11865:11878   */\n      mload\n        /* \"#utility.yul\":11856:11878   */\n      swap1\n      pop\n        /* \"#utility.yul\":11887:11919   */\n      tag_453\n        /* \"#utility.yul\":11913:11918   */\n      dup2\n        /* \"#utility.yul\":11887:11919   */\n      tag_305\n      jump\t// in\n    tag_453:\n        /* \"#utility.yul\":11784:11925   */\n      swap3\n      swap2\n      pop\n      pop\n      jump\t// out\n        /* \"#utility.yul\":11931:12007   */\n    tag_307:\n        /* \"#utility.yul\":11967:11974   */\n      0x00\n        /* \"#utility.yul\":11996:12001   */\n      dup2\n        /* \"#utility.yul\":11985:12001   */\n      swap1\n      pop\n        /* \"#utility.yul\":11931:12007   */\n      swap2\n      swap1\n      pop\n      jump\t// out\n        /* \"#utility.yul\":12013:12133   */\n    tag_308:\n        /* \"#utility.yul\":12085:12108   */\n      tag_456\n        /* \"#utility.yul\":12102:12107   */\n      dup2\n        /* \"#utility.yul\":12085:12108   */\n      tag_307\n      jump\t// in\n    tag_456:\n        /* \"#utility.yul\":12078:12083   */\n      dup2\n        /* \"#utility.yul\":12075:12109   */\n      eq\n        /* \"#utility.yul\":12065:12127   */\n      tag_457\n      jumpi\n        /* \"#utility.yul\":12123:12124   */\n      0x00\n        /* \"#utility.yul\":12120:12121   */\n      0x00\n        /* \"#utility.yul\":12113:12125   */\n      revert\n        /* \"#utility.yul\":12065:12127   */\n    tag_457:\n        /* \"#utility.yul\":12013:12133   */\n      pop\n      jump\t// out\n        /* \"#utility.yul\":12139:12280   */\n    tag_309:\n        /* \"#utility.yul\":12195:12200   */\n      0x00\n        /* \"#utility.yul\":12226:12232   */\n      dup2\n        /* \"#utility.yul\":12220:12233   */\n      mload\n        /* \"#utility.yul\":12211:12233   */\n      swap1\n      pop\n        /* \"#utility.yul\":12242:12274   */\n      tag_459\n        /* \"#utility.yul\":12268:12273   */\n      dup2\n        /* \"#utility.yul\":12242:12274   */\n      tag_308\n      jump\t// in\n    tag_459:\n        /* \"#utility.yul\":12139:12280   */\n      swap3\n      swap2\n      pop\n      pop\n      jump\t// out\n        /* \"#utility.yul\":12286:12408   */\n    tag_310:\n        /* \"#utility.yul\":12359:12383   */\n      tag_461\n        /* \"#utility.yul\":12377:12382   */\n      dup2\n        /* \"#utility.yul\":12359:12383   */\n      tag_276\n      jump\t// in\n    tag_461:\n        /* \"#utility.yul\":12352:12357   */\n      dup2\n        /* \"#utility.yul\":12349:12384   */\n      eq\n        /* \"#utility.yul\":12339:12402   */\n      tag_462\n      jumpi\n        /* \"#utility.yul\":12398:12399   */\n      0x00\n        /* \"#utility.yul\":12395:12396   */\n      0x00\n        /* \"#utility.yul\":12388:12400   */\n      revert\n        /* \"#utility.yul\":12339:12402   */\n    tag_462:\n        /* \"#utility.yul\":12286:12408   */\n      pop\n      jump\t// out\n        /* \"#utility.yul\":12414:12557   */\n    tag_311:\n        /* \"#utility.yul\":12471:12476   */\n      0x00\n        /* \"#utility.yul\":12502:12508   */\n      dup2\n        /* \"#utility.yul\":12496:12509   */\n      mload\n        /* \"#utility.yul\":12487:12509   */\n      swap1\n      pop\n        /* \"#utility.yul\":12518:12551   */\n      tag_464\n        /* \"#utility.yul\":12545:12550   */\n      dup2\n        /* \"#utility.yul\":12518:12551   */\n      tag_310\n      jump\t// in\n    tag_464:\n        /* \"#utility.yul\":12414:12557   */\n      swap3\n      swap2\n      pop\n      pop\n      jump\t// out\n        /* \"#utility.yul\":12563:13534   */\n    tag_113:\n        /* \"#utility.yul\":12666:12672   */\n      0x00\n        /* \"#utility.yul\":12674:12680   */\n      0x00\n        /* \"#utility.yul\":12682:12688   */\n      0x00\n        /* \"#utility.yul\":12690:12696   */\n      0x00\n        /* \"#utility.yul\":12698:12704   */\n      0x00\n        /* \"#utility.yul\":12747:12750   */\n      0xa0\n        /* \"#utility.yul\":12735:12744   */\n      dup7\n        /* \"#utility.yul\":12726:12733   */\n      dup9\n        /* \"#utility.yul\":12722:12745   */\n      sub\n        /* \"#utility.yul\":12718:12751   */\n      slt\n        /* \"#utility.yul\":12715:12835   */\n      iszero\n      tag_466\n      jumpi\n        /* \"#utility.yul\":12754:12833   */\n      tag_467\n      tag_268\n      jump\t// in\n    tag_467:\n        /* \"#utility.yul\":12715:12835   */\n    tag_466:\n        /* \"#utility.yul\":12874:12875   */\n      0x00\n        /* \"#utility.yul\":12899:12962   */\n      tag_468\n        /* \"#utility.yul\":12954:12961   */\n      dup9\n        /* \"#utility.yul\":12945:12951   */\n      dup3\n        /* \"#utility.yul\":12934:12943   */\n      dup10\n        /* \"#utility.yul\":12930:12952   */\n      add\n        /* \"#utility.yul\":12899:12962   */\n      tag_306\n      jump\t// in\n    tag_468:\n        /* \"#utility.yul\":12889:12962   */\n      swap6\n      pop\n        /* \"#utility.yul\":12845:12972   */\n      pop\n        /* \"#utility.yul\":13011:13013   */\n      0x20\n        /* \"#utility.yul\":13037:13100   */\n      tag_469\n        /* \"#utility.yul\":13092:13099   */\n      dup9\n        /* \"#utility.yul\":13083:13089   */\n      dup3\n        /* \"#utility.yul\":13072:13081   */\n      dup10\n        /* \"#utility.yul\":13068:13090   */\n      add\n        /* \"#utility.yul\":13037:13100   */\n      tag_309\n      jump\t// in\n    tag_469:\n        /* \"#utility.yul\":13027:13100   */\n      swap5\n      pop\n        /* \"#utility.yul\":12982:13110   */\n      pop\n        /* \"#utility.yul\":13149:13151   */\n      0x40\n        /* \"#utility.yul\":13175:13239   */\n      tag_470\n        /* \"#utility.yul\":13231:13238   */\n      dup9\n        /* \"#utility.yul\":13222:13228   */\n      dup3\n        /* \"#utility.yul\":13211:13220   */\n      dup10\n        /* \"#utility.yul\":13207:13229   */\n      add\n        /* \"#utility.yul\":13175:13239   */\n      tag_311\n      jump\t// in\n    tag_470:\n        /* \"#utility.yul\":13165:13239   */\n      swap4\n      pop\n        /* \"#utility.yul\":13120:13249   */\n      pop\n        /* \"#utility.yul\":13288:13290   */\n      0x60\n        /* \"#utility.yul\":13314:13378   */\n      tag_471\n        /* \"#utility.yul\":13370:13377   */\n      dup9\n        /* \"#utility.yul\":13361:13367   */\n      dup3\n        /* \"#utility.yul\":13350:13359   */\n      dup10\n        /* \"#utility.yul\":13346:13368   */\n      add\n        /* \"#utility.yul\":13314:13378   */\n      tag_311\n      jump\t// in\n    tag_471:\n        /* \"#utility.yul\":13304:13378   */\n      swap3\n      pop\n        /* \"#utility.yul\":13259:13388   */\n      pop\n        /* \"#utility.yul\":13427:13430   */\n      0x80\n        /* \"#utility.yul\":13454:13517   */\n      tag_472\n        /* \"#utility.yul\":13509:13516   */\n      dup9\n        /* \"#utility.yul\":13500:13506   */\n      dup3\n        /* \"#utility.yul\":13489:13498   */\n      dup10\n        /* \"#utility.yul\":13485:13507   */\n      add\n        /* \"#utility.yul\":13454:13517   */\n      tag_306\n      jump\t// in\n    tag_472:\n        /* \"#utility.yul\":13444:13517   */\n      swap2\n      pop\n        /* \"#utility.yul\":13398:13527   */\n      pop\n        /* \"#utility.yul\":12563:13534   */\n      swap3\n      swap6\n      pop\n      swap3\n      swap6\n      swap1\n      swap4\n      pop\n      jump\t// out\n        /* \"#utility.yul\":13540:13719   */\n    tag_312:\n        /* \"#utility.yul\":13680:13711   */\n      0x496e76616c69642074696d657374616d702066726f6d206f7261636c65000000\n        /* \"#utility.yul\":13676:13677   */\n      0x00\n        /* \"#utility.yul\":13668:13674   */\n      dup3\n        /* \"#utility.yul\":13664:13678   */\n      add\n        /* \"#utility.yul\":13657:13712   */\n      mstore\n        /* \"#utility.yul\":13540:13719   */\n      pop\n      jump\t// out\n        /* \"#utility.yul\":13725:14091   */\n    tag_313:\n        /* \"#utility.yul\":13867:13870   */\n      0x00\n        /* \"#utility.yul\":13888:13955   */\n      tag_475\n        /* \"#utility.yul\":13952:13954   */\n      0x1d\n        /* \"#utility.yul\":13947:13950   */\n      dup4\n        /* \"#utility.yul\":13888:13955   */\n      tag_297\n      jump\t// in\n    tag_475:\n        /* \"#utility.yul\":13881:13955   */\n      swap2\n      pop\n        /* \"#utility.yul\":13964:14057   */\n      tag_476\n        /* \"#utility.yul\":14053:14056   */\n      dup3\n        /* \"#utility.yul\":13964:14057   */\n      tag_312\n      jump\t// in\n    tag_476:\n        /* \"#utility.yul\":14082:14084   */\n      0x20\n        /* \"#utility.yul\":14077:14080   */\n      dup3\n        /* \"#utility.yul\":14073:14085   */\n      add\n        /* \"#utility.yul\":14066:14085   */\n      swap1\n      pop\n        /* \"#utility.yul\":13725:14091   */\n      swap2\n      swap1\n      pop\n      jump\t// out\n        /* \"#utility.yul\":14097:14516   */\n    tag_116:\n        /* \"#utility.yul\":14263:14267   */\n      0x00\n        /* \"#utility.yul\":14301:14303   */\n      0x20\n        /* \"#utility.yul\":14290:14299   */\n      dup3\n        /* \"#utility.yul\":14286:14304   */\n      add\n        /* \"#utility.yul\":14278:14304   */\n      swap1\n      pop\n        /* \"#utility.yul\":14350:14359   */\n      dup2\n        /* \"#utility.yul\":14344:14348   */\n      dup2\n        /* \"#utility.yul\":14340:14360   */\n      sub\n        /* \"#utility.yul\":14336:14337   */\n      0x00\n        /* \"#utility.yul\":14325:14334   */\n      dup4\n        /* \"#utility.yul\":14321:14338   */\n      add\n        /* \"#utility.yul\":14314:14361   */\n      mstore\n        /* \"#utility.yul\":14378:14509   */\n      tag_478\n        /* \"#utility.yul\":14504:14508   */\n      dup2\n        /* \"#utility.yul\":14378:14509   */\n      tag_313\n      jump\t// in\n    tag_478:\n        /* \"#utility.yul\":14370:14509   */\n      swap1\n      pop\n        /* \"#utility.yul\":14097:14516   */\n      swap2\n      swap1\n      pop\n      jump\t// out\n        /* \"#utility.yul\":14522:14744   */\n    tag_118:\n        /* \"#utility.yul\":14615:14619   */\n      0x00\n        /* \"#utility.yul\":14653:14655   */\n      0x20\n        /* \"#utility.yul\":14642:14651   */\n      dup3\n        /* \"#utility.yul\":14638:14656   */\n      add\n        /* \"#utility.yul\":14630:14656   */\n      swap1\n      pop\n        /* \"#utility.yul\":14666:14737   */\n      tag_480\n        /* \"#utility.yul\":14734:14735   */\n      0x00\n        /* \"#utility.yul\":14723:14732   */\n      dup4\n        /* \"#utility.yul\":14719:14736   */\n      add\n        /* \"#utility.yul\":14710:14716   */\n      dup5\n        /* \"#utility.yul\":14666:14737   */\n      tag_277\n      jump\t// in\n    tag_480:\n        /* \"#utility.yul\":14522:14744   */\n      swap3\n      swap2\n      pop\n      pop\n      jump\t// out\n        /* \"#utility.yul\":14750:14835   */\n    tag_314:\n        /* \"#utility.yul\":14795:14802   */\n      0x00\n        /* \"#utility.yul\":14824:14829   */\n      dup2\n        /* \"#utility.yul\":14813:14829   */\n      swap1\n      pop\n        /* \"#utility.yul\":14750:14835   */\n      swap2\n      swap1\n      pop\n      jump\t// out\n        /* \"#utility.yul\":14841:14942   */\n    tag_315:\n        /* \"#utility.yul\":14877:14884   */\n      0x00\n        /* \"#utility.yul\":14917:14935   */\n      0xffffffffffffffff\n        /* \"#utility.yul\":14910:14915   */\n      dup3\n        /* \"#utility.yul\":14906:14936   */\n      and\n        /* \"#utility.yul\":14895:14936   */\n      swap1\n      pop\n        /* \"#utility.yul\":14841:14942   */\n      swap2\n      swap1\n      pop\n      jump\t// out\n        /* \"#utility.yul\":14948:15008   */\n    tag_316:\n        /* \"#utility.yul\":14976:14979   */\n      0x00\n        /* \"#utility.yul\":14997:15002   */\n      dup2\n        /* \"#utility.yul\":14990:15002   */\n      swap1\n      pop\n        /* \"#utility.yul\":14948:15008   */\n      swap2\n      swap1\n      pop\n      jump\t// out\n        /* \"#utility.yul\":15014:15170   */\n    tag_317:\n        /* \"#utility.yul\":15071:15080   */\n      0x00\n        /* \"#utility.yul\":15104:15164   */\n      tag_485\n        /* \"#utility.yul\":15121:15163   */\n      tag_486\n        /* \"#utility.yul\":15130:15162   */\n      tag_487\n        /* \"#utility.yul\":15156:15161   */\n      dup5\n        /* \"#utility.yul\":15130:15162   */\n      tag_314\n      jump\t// in\n    tag_487:\n        /* \"#utility.yul\":15121:15163   */\n      tag_316\n      jump\t// in\n    tag_486:\n        /* \"#utility.yul\":15104:15164   */\n      tag_315\n      jump\t// in\n    tag_485:\n        /* \"#utility.yul\":15091:15164   */\n      swap1\n      pop\n        /* \"#utility.yul\":15014:15170   */\n      swap2\n      swap1\n      pop\n      jump\t// out\n        /* \"#utility.yul\":15176:15321   */\n    tag_318:\n        /* \"#utility.yul\":15270:15314   */\n      tag_489\n        /* \"#utility.yul\":15308:15313   */\n      dup2\n        /* \"#utility.yul\":15270:15314   */\n      tag_317\n      jump\t// in\n    tag_489:\n        /* \"#utility.yul\":15265:15268   */\n      dup3\n        /* \"#utility.yul\":15258:15315   */\n      mstore\n        /* \"#utility.yul\":15176:15321   */\n      pop\n      pop\n      jump\t// out\n        /* \"#utility.yul\":15327:15563   */\n    tag_142:\n        /* \"#utility.yul\":15427:15431   */\n      0x00\n        /* \"#utility.yul\":15465:15467   */\n      0x20\n        /* \"#utility.yul\":15454:15463   */\n      dup3\n        /* \"#utility.yul\":15450:15468   */\n      add\n        /* \"#utility.yul\":15442:15468   */\n      swap1\n      pop\n        /* \"#utility.yul\":15478:15556   */\n      tag_491\n        /* \"#utility.yul\":15553:15554   */\n      0x00\n        /* \"#utility.yul\":15542:15551   */\n      dup4\n        /* \"#utility.yul\":15538:15555   */\n      add\n        /* \"#utility.yul\":15529:15535   */\n      dup5\n        /* \"#utility.yul\":15478:15556   */\n      tag_318\n      jump\t// in\n    tag_491:\n        /* \"#utility.yul\":15327:15563   */\n      swap3\n      swap2\n      pop\n      pop\n      jump\t// out\n        /* \"#utility.yul\":15569:15732   */\n    tag_319:\n        /* \"#utility.yul\":15709:15724   */\n      0x4e6f7420746865206f776e657200000000000000000000000000000000000000\n        /* \"#utility.yul\":15705:15706   */\n      0x00\n        /* \"#utility.yul\":15697:15703   */\n      dup3\n        /* \"#utility.yul\":15693:15707   */\n      add\n        /* \"#utility.yul\":15686:15725   */\n      mstore\n        /* \"#utility.yul\":15569:15732   */\n      pop\n      jump\t// out\n        /* \"#utility.yul\":15738:16104   */\n    tag_320:\n        /* \"#utility.yul\":15880:15883   */\n      0x00\n        /* \"#utility.yul\":15901:15968   */\n      tag_494\n        /* \"#utility.yul\":15965:15967   */\n      0x0d\n        /* \"#utility.yul\":15960:15963   */\n      dup4\n        /* \"#utility.yul\":15901:15968   */\n      tag_297\n      jump\t// in\n    tag_494:\n        /* \"#utility.yul\":15894:15968   */\n      swap2\n      pop\n        /* \"#utility.yul\":15977:16070   */\n      tag_495\n        /* \"#utility.yul\":16066:16069   */\n      dup3\n        /* \"#utility.yul\":15977:16070   */\n      tag_319\n      jump\t// in\n    tag_495:\n        /* \"#utility.yul\":16095:16097   */\n      0x20\n        /* \"#utility.yul\":16090:16093   */\n      dup3\n        /* \"#utility.yul\":16086:16098   */\n      add\n        /* \"#utility.yul\":16079:16098   */\n      swap1\n      pop\n        /* \"#utility.yul\":15738:16104   */\n      swap2\n      swap1\n      pop\n      jump\t// out\n        /* \"#utility.yul\":16110:16529   */\n    tag_159:\n        /* \"#utility.yul\":16276:16280   */\n      0x00\n        /* \"#utility.yul\":16314:16316   */\n      0x20\n        /* \"#utility.yul\":16303:16312   */\n      dup3\n        /* \"#utility.yul\":16299:16317   */\n      add\n        /* \"#utility.yul\":16291:16317   */\n      swap1\n      pop\n        /* \"#utility.yul\":16363:16372   */\n      dup2\n        /* \"#utility.yul\":16357:16361   */\n      dup2\n        /* \"#utility.yul\":16353:16373   */\n      sub\n        /* \"#utility.yul\":16349:16350   */\n      0x00\n        /* \"#utility.yul\":16338:16347   */\n      dup4\n        /* \"#utility.yul\":16334:16351   */\n      add\n        /* \"#utility.yul\":16327:16374   */\n      mstore\n        /* \"#utility.yul\":16391:16522   */\n      tag_497\n        /* \"#utility.yul\":16517:16521   */\n      dup2\n        /* \"#utility.yul\":16391:16522   */\n      tag_320\n      jump\t// in\n    tag_497:\n        /* \"#utility.yul\":16383:16522   */\n      swap1\n      pop\n        /* \"#utility.yul\":16110:16529   */\n      swap2\n      swap1\n      pop\n      jump\t// out\n        /* \"#utility.yul\":16535:16702   */\n    tag_321:\n        /* \"#utility.yul\":16675:16694   */\n      0x496e76616c6964206e6577206f776e6572000000000000000000000000000000\n        /* \"#utility.yul\":16671:16672   */\n      0x00\n        /* \"#utility.yul\":16663:16669   */\n      dup3\n        /* \"#utility.yul\":16659:16673   */\n      add\n        /* \"#utility.yul\":16652:16695   */\n      mstore\n        /* \"#utility.yul\":16535:16702   */\n      pop\n      jump\t// out\n        /* \"#utility.yul\":16708:17074   */\n    tag_322:\n        /* \"#utility.yul\":16850:16853   */\n      0x00\n        /* \"#utility.yul\":16871:16938   */\n      tag_500\n        /* \"#utility.yul\":16935:16937   */\n      0x11\n        /* \"#utility.yul\":16930:16933   */\n      dup4\n        /* \"#utility.yul\":16871:16938   */\n      tag_297\n      jump\t// in\n    tag_500:\n        /* \"#utility.yul\":16864:16938   */\n      swap2\n      pop\n        /* \"#utility.yul\":16947:17040   */\n      tag_501\n        /* \"#utility.yul\":17036:17039   */\n      dup3\n        /* \"#utility.yul\":16947:17040   */\n      tag_321\n      jump\t// in\n    tag_501:\n        /* \"#utility.yul\":17065:17067   */\n      0x20\n        /* \"#utility.yul\":17060:17063   */\n      dup3\n        /* \"#utility.yul\":17056:17068   */\n      add\n        /* \"#utility.yul\":17049:17068   */\n      swap1\n      pop\n        /* \"#utility.yul\":16708:17074   */\n      swap2\n      swap1\n      pop\n      jump\t// out\n        /* \"#utility.yul\":17080:17499   */\n    tag_162:\n        /* \"#utility.yul\":17246:17250   */\n      0x00\n        /* \"#utility.yul\":17284:17286   */\n      0x20\n        /* \"#utility.yul\":17273:17282   */\n      dup3\n        /* \"#utility.yul\":17269:17287   */\n      add\n        /* \"#utility.yul\":17261:17287   */\n      swap1\n      pop\n        /* \"#utility.yul\":17333:17342   */\n      dup2\n        /* \"#utility.yul\":17327:17331   */\n      dup2\n        /* \"#utility.yul\":17323:17343   */\n      sub\n        /* \"#utility.yul\":17319:17320   */\n      0x00\n        /* \"#utility.yul\":17308:17317   */\n      dup4\n        /* \"#utility.yul\":17304:17321   */\n      add\n        /* \"#utility.yul\":17297:17344   */\n      mstore\n        /* \"#utility.yul\":17361:17492   */\n      tag_503\n        /* \"#utility.yul\":17487:17491   */\n      dup2\n        /* \"#utility.yul\":17361:17492   */\n      tag_322\n      jump\t// in\n    tag_503:\n        /* \"#utility.yul\":17353:17492   */\n      swap1\n      pop\n        /* \"#utility.yul\":17080:17499   */\n      swap2\n      swap1\n      pop\n      jump\t// out\n        /* \"#utility.yul\":17505:17648   */\n    tag_323:\n        /* \"#utility.yul\":17562:17567   */\n      0x00\n        /* \"#utility.yul\":17593:17599   */\n      dup2\n        /* \"#utility.yul\":17587:17600   */\n      mload\n        /* \"#utility.yul\":17578:17600   */\n      swap1\n      pop\n        /* \"#utility.yul\":17609:17642   */\n      tag_505\n        /* \"#utility.yul\":17636:17641   */\n      dup2\n        /* \"#utility.yul\":17609:17642   */\n      tag_271\n      jump\t// in\n    tag_505:\n        /* \"#utility.yul\":17505:17648   */\n      swap3\n      swap2\n      pop\n      pop\n      jump\t// out\n        /* \"#utility.yul\":17654:18005   */\n    tag_180:\n        /* \"#utility.yul\":17724:17730   */\n      0x00\n        /* \"#utility.yul\":17773:17775   */\n      0x20\n        /* \"#utility.yul\":17761:17770   */\n      dup3\n        /* \"#utility.yul\":17752:17759   */\n      dup5\n        /* \"#utility.yul\":17748:17771   */\n      sub\n        /* \"#utility.yul\":17744:17776   */\n      slt\n        /* \"#utility.yul\":17741:17860   */\n      iszero\n      tag_507\n      jumpi\n        /* \"#utility.yul\":17779:17858   */\n      tag_508\n      tag_268\n      jump\t// in\n    tag_508:\n        /* \"#utility.yul\":17741:17860   */\n    tag_507:\n        /* \"#utility.yul\":17899:17900   */\n      0x00\n        /* \"#utility.yul\":17924:17988   */\n      tag_509\n        /* \"#utility.yul\":17980:17987   */\n      dup5\n        /* \"#utility.yul\":17971:17977   */\n      dup3\n        /* \"#utility.yul\":17960:17969   */\n      dup6\n        /* \"#utility.yul\":17956:17978   */\n      add\n        /* \"#utility.yul\":17924:17988   */\n      tag_323\n      jump\t// in\n    tag_509:\n        /* \"#utility.yul\":17914:17988   */\n      swap2\n      pop\n        /* \"#utility.yul\":17870:17998   */\n      pop\n        /* \"#utility.yul\":17654:18005   */\n      swap3\n      swap2\n      pop\n      pop\n      jump\t// out\n        /* \"#utility.yul\":18011:18109   */\n    tag_324:\n        /* \"#utility.yul\":18062:18068   */\n      0x00\n        /* \"#utility.yul\":18096:18101   */\n      dup2\n        /* \"#utility.yul\":18090:18102   */\n      mload\n        /* \"#utility.yul\":18080:18102   */\n      swap1\n      pop\n        /* \"#utility.yul\":18011:18109   */\n      swap2\n      swap1\n      pop\n      jump\t// out\n        /* \"#utility.yul\":18115:18262   */\n    tag_325:\n        /* \"#utility.yul\":18216:18227   */\n      0x00\n        /* \"#utility.yul\":18253:18256   */\n      dup2\n        /* \"#utility.yul\":18238:18256   */\n      swap1\n      pop\n        /* \"#utility.yul\":18115:18262   */\n      swap3\n      swap2\n      pop\n      pop\n      jump\t// out\n        /* \"#utility.yul\":18268:18654   */\n    tag_326:\n        /* \"#utility.yul\":18372:18375   */\n      0x00\n        /* \"#utility.yul\":18400:18438   */\n      tag_513\n        /* \"#utility.yul\":18432:18437   */\n      dup3\n        /* \"#utility.yul\":18400:18438   */\n      tag_324\n      jump\t// in\n    tag_513:\n        /* \"#utility.yul\":18454:18542   */\n      tag_514\n        /* \"#utility.yul\":18535:18541   */\n      dup2\n        /* \"#utility.yul\":18530:18533   */\n      dup6\n        /* \"#utility.yul\":18454:18542   */\n      tag_325\n      jump\t// in\n    tag_514:\n        /* \"#utility.yul\":18447:18542   */\n      swap4\n      pop\n        /* \"#utility.yul\":18551:18616   */\n      tag_515\n        /* \"#utility.yul\":18609:18615   */\n      dup2\n        /* \"#utility.yul\":18604:18607   */\n      dup6\n        /* \"#utility.yul\":18597:18601   */\n      0x20\n        /* \"#utility.yul\":18590:18595   */\n      dup7\n        /* \"#utility.yul\":18586:18602   */\n      add\n        /* \"#utility.yul\":18551:18616   */\n      tag_298\n      jump\t// in\n    tag_515:\n        /* \"#utility.yul\":18641:18647   */\n      dup1\n        /* \"#utility.yul\":18636:18639   */\n      dup5\n        /* \"#utility.yul\":18632:18648   */\n      add\n        /* \"#utility.yul\":18625:18648   */\n      swap2\n      pop\n        /* \"#utility.yul\":18376:18654   */\n      pop\n        /* \"#utility.yul\":18268:18654   */\n      swap3\n      swap2\n      pop\n      pop\n      jump\t// out\n        /* \"#utility.yul\":18660:18931   */\n    tag_246:\n        /* \"#utility.yul\":18790:18793   */\n      0x00\n        /* \"#utility.yul\":18812:18905   */\n      tag_517\n        /* \"#utility.yul\":18901:18904   */\n      dup3\n        /* \"#utility.yul\":18892:18898   */\n      dup5\n        /* \"#utility.yul\":18812:18905   */\n      tag_326\n      jump\t// in\n    tag_517:\n        /* \"#utility.yul\":18805:18905   */\n      swap2\n      pop\n        /* \"#utility.yul\":18922:18925   */\n      dup2\n        /* \"#utility.yul\":18915:18925   */\n      swap1\n      pop\n        /* \"#utility.yul\":18660:18931   */\n      swap3\n      swap2\n      pop\n      pop\n      jump\t// out\n\n    auxdata: 0xa2646970667358221220aaf870c982c53aa3e7f4eb1c1cc14af8cabd8bf22c9e8511f49c8b48911b119c64736f6c634300081e0033\n}\n",
				"bytecode": {
					"linkReferences": {},
					"object": "60a06040523073ffffffffffffffffffffffffffffffffffffffff1660809073ffffffffffffffffffffffffffffffffffffffff16815250348015610042575f5ffd5b5061005161005660201b60201c565b6101d1565b5f61006561015460201b60201c565b9050805f0160089054906101000a900460ff16156100af576040517ff92ee8a900000000000000000000000000000000000000000000000000000000815260040160405180910390fd5b67ffffffffffffffff8016815f015f9054906101000a900467ffffffffffffffff1667ffffffffffffffff16146101515767ffffffffffffffff815f015f6101000a81548167ffffffffffffffff021916908367ffffffffffffffff1602179055507fc7f505b2f371ae2175ee4913f4499e1f2633a7b5936321eed1cdaeb6115181d267ffffffffffffffff60405161014891906101b8565b60405180910390a15b50565b5f5f61016461016d60201b60201c565b90508091505090565b5f7ff0c57e16840df040f15088dc2f81fe391c3923bec73e23a9662efc9c229c6a005f1b905090565b5f67ffffffffffffffff82169050919050565b6101b281610196565b82525050565b5f6020820190506101cb5f8301846101a9565b92915050565b608051611f7d6101f75f395f8181610db401528181610e090152610fc30152611f7d5ff3fe6080604052600436106100c1575f3560e01c8063715018a61161007e578063c4d66de811610058578063c4d66de814610253578063e1fa8e841461027b578063ef5d6bbb146102a3578063f2fde38b146102cb576100c1565b8063715018a6146101e95780638da5cb5b146101ff578063ad3cb1cc14610229576100c1565b806301e64725146100c5578063213681cd1461010257806327258b221461013f5780634f1ef2861461017b57806352d1902d1461019757806357b77c64146101c1575b5f5ffd5b3480156100d0575f5ffd5b506100eb60048036038101906100e69190611671565b6102f3565b6040516100f99291906116f3565b60405180910390f35b34801561010d575f5ffd5b5061012860048036038101906101239190611671565b610332565b6040516101369291906116f3565b60405180910390f35b34801561014a575f5ffd5b5061016560048036038101906101609190611671565b6103c4565b6040516101729190611734565b60405180910390f35b610195600480360381019061019091906118b3565b6103e4565b005b3480156101a2575f5ffd5b506101ab610403565b6040516101b8919061191c565b60405180910390f35b3480156101cc575f5ffd5b506101e760048036038101906101e29190611992565b610434565b005b3480156101f4575f5ffd5b506101fd6106cc565b005b34801561020a575f5ffd5b506102136106df565b60405161022091906119dd565b60405180910390f35b348015610234575f5ffd5b5061023d610714565b60405161024a9190611a56565b60405180910390f35b34801561025e575f5ffd5b5061027960048036038101906102749190611a76565b61074d565b005b348015610286575f5ffd5b506102a1600480360381019061029c9190611671565b610915565b005b3480156102ae575f5ffd5b506102c960048036038101906102c49190611aa1565b610b70565b005b3480156102d6575f5ffd5b506102f160048036038101906102ec9190611a76565b610d2e565b005b6001602052805f5260405f205f91509050805f015f9054906101000a900473ffffffffffffffffffffffffffffffffffffffff16908060010154905082565b5f5f5f60015f8581526020019081526020015f206040518060400160405290815f82015f9054906101000a900473ffffffffffffffffffffffffffffffffffffffff1673ffffffffffffffffffffffffffffffffffffffff1673ffffffffffffffffffffffffffffffffffffffff1681526020016001820154815250509050805f015181602001519250925050915091565b5f5f60015f8481526020019081526020015f206001015414159050919050565b6103ec610db2565b6103f582610e98565b6103ff8282610ea3565b5050565b5f61040c610fc1565b7f360894a13ba1a3210667c828492db98dca3e2076cc3735a920a3ca505d382bbc5f1b905090565b61043c611048565b5f5f90505b828290508110156106c7575f8383838181106104605761045f611adf565b5b9050602002013590505f5f1b81036104ad576040517f08c379a00000000000000000000000000000000000000000000000000000000081526004016104a490611b56565b60405180910390fd5b5f60015f8381526020019081526020015f206001015414610503576040517f08c379a00000000000000000000000000000000000000000000000000000000081526004016104fa90611bbe565b60405180910390fd5b5f5f5f5f9054906101000a900473ffffffffffffffffffffffffffffffffffffffff1673ffffffffffffffffffffffffffffffffffffffff1663feaf968c6040518163ffffffff1660e01b815260040160a060405180830381865afa15801561056e573d5f5f3e3d5ffd5b505050506040513d601f19601f820116820180604052508101906105929190611c78565b509350509250505f81116105db576040517f08c379a00000000000000000000000000000000000000000000000000000000081526004016105d290611d39565b60405180910390fd5b60405180604001604052803373ffffffffffffffffffffffffffffffffffffffff1681526020018281525060015f8581526020019081526020015f205f820151815f015f6101000a81548173ffffffffffffffffffffffffffffffffffffffff021916908373ffffffffffffffffffffffffffffffffffffffff160217905550602082015181600101559050503373ffffffffffffffffffffffffffffffffffffffff16837f6569e54c43a697fc61e67763858d5abef16899d2b13215c7c07090aa878b24a8836040516106af9190611d57565b60405180910390a35050508080600101915050610441565b505050565b6106d4611048565b6106dd5f6110cf565b565b5f5f6106e96111a0565b9050805f015f9054906101000a900473ffffffffffffffffffffffffffffffffffffffff1691505090565b6040518060400160405280600581526020017f352e302e3000000000000000000000000000000000000000000000000000000081525081565b5f6107566111c7565b90505f815f0160089054906101000a900460ff161590505f825f015f9054906101000a900467ffffffffffffffff1690505f5f8267ffffffffffffffff1614801561079e5750825b90505f60018367ffffffffffffffff161480156107d157505f3073ffffffffffffffffffffffffffffffffffffffff163b145b9050811580156107df575080155b15610816576040517ff92ee8a900000000000000000000000000000000000000000000000000000000815260040160405180910390fd5b6001855f015f6101000a81548167ffffffffffffffff021916908367ffffffffffffffff1602179055508315610863576001855f0160086101000a81548160ff0219169083151502179055505b61086c336111da565b6108746111ee565b855f5f6101000a81548173ffffffffffffffffffffffffffffffffffffffff021916908373ffffffffffffffffffffffffffffffffffffffff160217905550831561090d575f855f0160086101000a81548160ff0219169083151502179055507fc7f505b2f371ae2175ee4913f4499e1f2633a7b5936321eed1cdaeb6115181d260016040516109049190611dc5565b60405180910390a15b505050505050565b61091d611048565b5f5f1b8103610961576040517f08c379a000000000000000000000000000000000000000000000000000000000815260040161095890611b56565b60405180910390fd5b5f60015f8381526020019081526020015f2060010154146109b7576040517f08c379a00000000000000000000000000000000000000000000000000000000081526004016109ae90611bbe565b60405180910390fd5b5f5f5f5f9054906101000a900473ffffffffffffffffffffffffffffffffffffffff1673ffffffffffffffffffffffffffffffffffffffff1663feaf968c6040518163ffffffff1660e01b815260040160a060405180830381865afa158015610a22573d5f5f3e3d5ffd5b505050506040513d601f19601f82011682018060405250810190610a469190611c78565b509350509250505f8111610a8f576040517f08c379a0000000000000000000000000000000000000000000000000000000008152600401610a8690611d39565b60405180910390fd5b60405180604001604052803373ffffffffffffffffffffffffffffffffffffffff1681526020018281525060015f8581526020019081526020015f205f820151815f015f6101000a81548173ffffffffffffffffffffffffffffffffffffffff021916908373ffffffffffffffffffffffffffffffffffffffff160217905550602082015181600101559050503373ffffffffffffffffffffffffffffffffffffffff16837f6569e54c43a697fc61e67763858d5abef16899d2b13215c7c07090aa878b24a883604051610b639190611d57565b60405180910390a3505050565b3373ffffffffffffffffffffffffffffffffffffffff1660015f8481526020019081526020015f205f015f9054906101000a900473ffffffffffffffffffffffffffffffffffffffff1673ffffffffffffffffffffffffffffffffffffffff1614610c10576040517f08c379a0000000000000000000000000000000000000000000000000000000008152600401610c0790611e28565b60405180910390fd5b5f73ffffffffffffffffffffffffffffffffffffffff168173ffffffffffffffffffffffffffffffffffffffff1603610c7e576040517f08c379a0000000000000000000000000000000000000000000000000000000008152600401610c7590611e90565b60405180910390fd5b8060015f8481526020019081526020015f205f015f6101000a81548173ffffffffffffffffffffffffffffffffffffffff021916908373ffffffffffffffffffffffffffffffffffffffff1602179055508073ffffffffffffffffffffffffffffffffffffffff163373ffffffffffffffffffffffffffffffffffffffff16837f0b659dccc8eb950324170e8d9598af5ee04ee070883eb28651a96788721fbf8360405160405180910390a45050565b610d36611048565b5f73ffffffffffffffffffffffffffffffffffffffff168173ffffffffffffffffffffffffffffffffffffffff1603610da6575f6040517f1e4fbdf7000000000000000000000000000000000000000000000000000000008152600401610d9d91906119dd565b60405180910390fd5b610daf816110cf565b50565b7f000000000000000000000000000000000000000000000000000000000000000073ffffffffffffffffffffffffffffffffffffffff163073ffffffffffffffffffffffffffffffffffffffff161480610e5f57507f000000000000000000000000000000000000000000000000000000000000000073ffffffffffffffffffffffffffffffffffffffff16610e466111f8565b73ffffffffffffffffffffffffffffffffffffffff1614155b15610e96576040517fe07c8dba00000000000000000000000000000000000000000000000000000000815260040160405180910390fd5b565b610ea0611048565b50565b8173ffffffffffffffffffffffffffffffffffffffff166352d1902d6040518163ffffffff1660e01b8152600401602060405180830381865afa925050508015610f0b57506040513d601f19601f82011682018060405250810190610f089190611ec2565b60015b610f4c57816040517f4c9c8ce3000000000000000000000000000000000000000000000000000000008152600401610f4391906119dd565b60405180910390fd5b7f360894a13ba1a3210667c828492db98dca3e2076cc3735a920a3ca505d382bbc5f1b8114610fb257806040517faa1d49a4000000000000000000000000000000000000000000000000000000008152600401610fa9919061191c565b60405180910390fd5b610fbc838361124b565b505050565b7f000000000000000000000000000000000000000000000000000000000000000073ffffffffffffffffffffffffffffffffffffffff163073ffffffffffffffffffffffffffffffffffffffff1614611046576040517fe07c8dba00000000000000000000000000000000000000000000000000000000815260040160405180910390fd5b565b6110506112bd565b73ffffffffffffffffffffffffffffffffffffffff1661106e6106df565b73ffffffffffffffffffffffffffffffffffffffff16146110cd576110916112bd565b6040517f118cdaa70000000000000000000000000000000000000000000000000000000081526004016110c491906119dd565b60405180910390fd5b565b5f6110d86111a0565b90505f815f015f9054906101000a900473ffffffffffffffffffffffffffffffffffffffff16905082825f015f6101000a81548173ffffffffffffffffffffffffffffffffffffffff021916908373ffffffffffffffffffffffffffffffffffffffff1602179055508273ffffffffffffffffffffffffffffffffffffffff168173ffffffffffffffffffffffffffffffffffffffff167f8be0079c531659141344cd1fd0a4f28419497f9722a3daafe3b4186f6b6457e060405160405180910390a3505050565b5f7f9016d09d72d40fdae2fd8ceac6b6234c7706214fd39c1cd1e609a0528c199300905090565b5f5f6111d16112c4565b90508091505090565b6111e26112ed565b6111eb8161132d565b50565b6111f66112ed565b565b5f6112247f360894a13ba1a3210667c828492db98dca3e2076cc3735a920a3ca505d382bbc5f1b6113b1565b5f015f9054906101000a900473ffffffffffffffffffffffffffffffffffffffff16905090565b611254826113ba565b8173ffffffffffffffffffffffffffffffffffffffff167fbc7cd75a20ee27fd9adebab32041f755214dbc6bffa90cc0225b39da2e5c2d3b60405160405180910390a25f815111156112b0576112aa8282611483565b506112b9565b6112b8611503565b5b5050565b5f33905090565b5f7ff0c57e16840df040f15088dc2f81fe391c3923bec73e23a9662efc9c229c6a005f1b905090565b6112f561153f565b61132b576040517fd7e6bcf800000000000000000000000000000000000000000000000000000000815260040160405180910390fd5b565b6113356112ed565b5f73ffffffffffffffffffffffffffffffffffffffff168173ffffffffffffffffffffffffffffffffffffffff16036113a5575f6040517f1e4fbdf700000000000000000000000000000000000000000000000000000000815260040161139c91906119dd565b60405180910390fd5b6113ae816110cf565b50565b5f819050919050565b5f8173ffffffffffffffffffffffffffffffffffffffff163b0361141557806040517f4c9c8ce300000000000000000000000000000000000000000000000000000000815260040161140c91906119dd565b60405180910390fd5b806114417f360894a13ba1a3210667c828492db98dca3e2076cc3735a920a3ca505d382bbc5f1b6113b1565b5f015f6101000a81548173ffffffffffffffffffffffffffffffffffffffff021916908373ffffffffffffffffffffffffffffffffffffffff16021790555050565b60605f5f8473ffffffffffffffffffffffffffffffffffffffff16846040516114ac9190611f31565b5f60405180830381855af49150503d805f81146114e4576040519150601f19603f3d011682016040523d82523d5f602084013e6114e9565b606091505b50915091506114f985838361155d565b9250505092915050565b5f34111561153d576040517fb398979f00000000000000000000000000000000000000000000000000000000815260040160405180910390fd5b565b5f6115486111c7565b5f0160089054906101000a900460ff16905090565b6060826115725761156d826115ea565b6115e2565b5f825114801561159857505f8473ffffffffffffffffffffffffffffffffffffffff163b145b156115da57836040517f9996b3150000000000000000000000000000000000000000000000000000000081526004016115d191906119dd565b60405180910390fd5b8190506115e3565b5b9392505050565b5f815111156115fb57805160208201fd5b6040517fd6bda27500000000000000000000000000000000000000000000000000000000815260040160405180910390fd5b5f604051905090565b5f5ffd5b5f5ffd5b5f819050919050565b6116508161163e565b811461165a575f5ffd5b50565b5f8135905061166b81611647565b92915050565b5f6020828403121561168657611685611636565b5b5f6116938482850161165d565b91505092915050565b5f73ffffffffffffffffffffffffffffffffffffffff82169050919050565b5f6116c58261169c565b9050919050565b6116d5816116bb565b82525050565b5f819050919050565b6116ed816116db565b82525050565b5f6040820190506117065f8301856116cc565b61171360208301846116e4565b9392505050565b5f8115159050919050565b61172e8161171a565b82525050565b5f6020820190506117475f830184611725565b92915050565b611756816116bb565b8114611760575f5ffd5b50565b5f813590506117718161174d565b92915050565b5f5ffd5b5f5ffd5b5f601f19601f8301169050919050565b7f4e487b71000000000000000000000000000000000000000000000000000000005f52604160045260245ffd5b6117c58261177f565b810181811067ffffffffffffffff821117156117e4576117e361178f565b5b80604052505050565b5f6117f661162d565b905061180282826117bc565b919050565b5f67ffffffffffffffff8211156118215761182061178f565b5b61182a8261177f565b9050602081019050919050565b828183375f83830152505050565b5f61185761185284611807565b6117ed565b9050828152602081018484840111156118735761187261177b565b5b61187e848285611837565b509392505050565b5f82601f83011261189a57611899611777565b5b81356118aa848260208601611845565b91505092915050565b5f5f604083850312156118c9576118c8611636565b5b5f6118d685828601611763565b925050602083013567ffffffffffffffff8111156118f7576118f661163a565b5b61190385828601611886565b9150509250929050565b6119168161163e565b82525050565b5f60208201905061192f5f83018461190d565b92915050565b5f5ffd5b5f5ffd5b5f5f83601f84011261195257611951611777565b5b8235905067ffffffffffffffff81111561196f5761196e611935565b5b60208301915083602082028301111561198b5761198a611939565b5b9250929050565b5f5f602083850312156119a8576119a7611636565b5b5f83013567ffffffffffffffff8111156119c5576119c461163a565b5b6119d18582860161193d565b92509250509250929050565b5f6020820190506119f05f8301846116cc565b92915050565b5f81519050919050565b5f82825260208201905092915050565b8281835e5f83830152505050565b5f611a28826119f6565b611a328185611a00565b9350611a42818560208601611a10565b611a4b8161177f565b840191505092915050565b5f6020820190508181035f830152611a6e8184611a1e565b905092915050565b5f60208284031215611a8b57611a8a611636565b5b5f611a9884828501611763565b91505092915050565b5f5f60408385031215611ab757611ab6611636565b5b5f611ac48582860161165d565b9250506020611ad585828601611763565b9150509250929050565b7f4e487b71000000000000000000000000000000000000000000000000000000005f52603260045260245ffd5b7f496e76616c6964206861736800000000000000000000000000000000000000005f82015250565b5f611b40600c83611a00565b9150611b4b82611b0c565b602082019050919050565b5f6020820190508181035f830152611b6d81611b34565b9050919050565b7f416c7265616479207265676973746572656400000000000000000000000000005f82015250565b5f611ba8601283611a00565b9150611bb382611b74565b602082019050919050565b5f6020820190508181035f830152611bd581611b9c565b9050919050565b5f69ffffffffffffffffffff82169050919050565b611bfa81611bdc565b8114611c04575f5ffd5b50565b5f81519050611c1581611bf1565b92915050565b5f819050919050565b611c2d81611c1b565b8114611c37575f5ffd5b50565b5f81519050611c4881611c24565b92915050565b611c57816116db565b8114611c61575f5ffd5b50565b5f81519050611c7281611c4e565b92915050565b5f5f5f5f5f60a08688031215611c9157611c90611636565b5b5f611c9e88828901611c07565b9550506020611caf88828901611c3a565b9450506040611cc088828901611c64565b9350506060611cd188828901611c64565b9250506080611ce288828901611c07565b9150509295509295909350565b7f496e76616c69642074696d657374616d702066726f6d206f7261636c650000005f82015250565b5f611d23601d83611a00565b9150611d2e82611cef565b602082019050919050565b5f6020820190508181035f830152611d5081611d17565b9050919050565b5f602082019050611d6a5f8301846116e4565b92915050565b5f819050919050565b5f67ffffffffffffffff82169050919050565b5f819050919050565b5f611daf611daa611da584611d70565b611d8c565b611d79565b9050919050565b611dbf81611d95565b82525050565b5f602082019050611dd85f830184611db6565b92915050565b7f4e6f7420746865206f776e6572000000000000000000000000000000000000005f82015250565b5f611e12600d83611a00565b9150611e1d82611dde565b602082019050919050565b5f6020820190508181035f830152611e3f81611e06565b9050919050565b7f496e76616c6964206e6577206f776e65720000000000000000000000000000005f82015250565b5f611e7a601183611a00565b9150611e8582611e46565b602082019050919050565b5f6020820190508181035f830152611ea781611e6e565b9050919050565b5f81519050611ebc81611647565b92915050565b5f60208284031215611ed757611ed6611636565b5b5f611ee484828501611eae565b91505092915050565b5f81519050919050565b5f81905092915050565b5f611f0b82611eed565b611f158185611ef7565b9350611f25818560208601611a10565b80840191505092915050565b5f611f3c8284611f01565b91508190509291505056fea2646970667358221220aaf870c982c53aa3e7f4eb1c1cc14af8cabd8bf22c9e8511f49c8b48911b119c64736f6c634300081e0033",
					"opcodes": "PUSH1 0xA0 PUSH1 0x40 MSTORE ADDRESS PUSH20 0xFFFFFFFFFFFFFFFFFFFFFFFFFFFFFFFFFFFFFFFF AND PUSH1 0x80 SWAP1 PUSH20 0xFFFFFFFFFFFFFFFFFFFFFFFFFFFFFFFFFFFFFFFF AND DUP2 MSTORE POP CALLVALUE DUP1 ISZERO PUSH2 0x42 JUMPI PUSH0 PUSH0 REVERT JUMPDEST POP PUSH2 0x51 PUSH2 0x56 PUSH1 0x20 SHL PUSH1 0x20 SHR JUMP JUMPDEST PUSH2 0x1D1 JUMP JUMPDEST PUSH0 PUSH2 0x65 PUSH2 0x154 PUSH1 0x20 SHL PUSH1 0x20 SHR JUMP JUMPDEST SWAP1 POP DUP1 PUSH0 ADD PUSH1 0x8 SWAP1 SLOAD SWAP1 PUSH2 0x100 EXP SWAP1 DIV PUSH1 0xFF AND ISZERO PUSH2 0xAF JUMPI PUSH1 0x40 MLOAD PUSH32 0xF92EE8A900000000000000000000000000000000000000000000000000000000 DUP2 MSTORE PUSH1 0x4 ADD PUSH1 0x40 MLOAD DUP1 SWAP2 SUB SWAP1 REVERT JUMPDEST PUSH8 0xFFFFFFFFFFFFFFFF DUP1 AND DUP2 PUSH0 ADD PUSH0 SWAP1 SLOAD SWAP1 PUSH2 0x100 EXP SWAP1 DIV PUSH8 0xFFFFFFFFFFFFFFFF AND PUSH8 0xFFFFFFFFFFFFFFFF AND EQ PUSH2 0x151 JUMPI PUSH8 0xFFFFFFFFFFFFFFFF DUP2 PUSH0 ADD PUSH0 PUSH2 0x100 EXP DUP2 SLOAD DUP2 PUSH8 0xFFFFFFFFFFFFFFFF MUL NOT AND SWAP1 DUP4 PUSH8 0xFFFFFFFFFFFFFFFF AND MUL OR SWAP1 SSTORE POP PUSH32 0xC7F505B2F371AE2175EE4913F4499E1F2633A7B5936321EED1CDAEB6115181D2 PUSH8 0xFFFFFFFFFFFFFFFF PUSH1 0x40 MLOAD PUSH2 0x148 SWAP2 SWAP1 PUSH2 0x1B8 JUMP JUMPDEST PUSH1 0x40 MLOAD DUP1 SWAP2 SUB SWAP1 LOG1 JUMPDEST POP JUMP JUMPDEST PUSH0 PUSH0 PUSH2 0x164 PUSH2 0x16D PUSH1 0x20 SHL PUSH1 0x20 SHR JUMP JUMPDEST SWAP1 POP DUP1 SWAP2 POP POP SWAP1 JUMP JUMPDEST PUSH0 PUSH32 0xF0C57E16840DF040F15088DC2F81FE391C3923BEC73E23A9662EFC9C229C6A00 PUSH0 SHL SWAP1 POP SWAP1 JUMP JUMPDEST PUSH0 PUSH8 0xFFFFFFFFFFFFFFFF DUP3 AND SWAP1 POP SWAP2 SWAP1 POP JUMP JUMPDEST PUSH2 0x1B2 DUP2 PUSH2 0x196 JUMP JUMPDEST DUP3 MSTORE POP POP JUMP JUMPDEST PUSH0 PUSH1 0x20 DUP3 ADD SWAP1 POP PUSH2 0x1CB PUSH0 DUP4 ADD DUP5 PUSH2 0x1A9 JUMP JUMPDEST SWAP3 SWAP2 POP POP JUMP JUMPDEST PUSH1 0x80 MLOAD PUSH2 0x1F7D PUSH2 0x1F7 PUSH0 CODECOPY PUSH0 DUP2 DUP2 PUSH2 0xDB4 ADD MSTORE DUP2 DUP2 PUSH2 0xE09 ADD MSTORE PUSH2 0xFC3 ADD MSTORE PUSH2 0x1F7D PUSH0 RETURN INVALID PUSH1 0x80 PUSH1 0x40 MSTORE PUSH1 0x4 CALLDATASIZE LT PUSH2 0xC1 JUMPI PUSH0 CALLDATALOAD PUSH1 0xE0 SHR DUP1 PUSH4 0x715018A6 GT PUSH2 0x7E JUMPI DUP1 PUSH4 0xC4D66DE8 GT PUSH2 0x58 JUMPI DUP1 PUSH4 0xC4D66DE8 EQ PUSH2 0x253 JUMPI DUP1 PUSH4 0xE1FA8E84 EQ PUSH2 0x27B JUMPI DUP1 PUSH4 0xEF5D6BBB EQ PUSH2 0x2A3 JUMPI DUP1 PUSH4 0xF2FDE38B EQ PUSH2 0x2CB JUMPI PUSH2 0xC1 JUMP JUMPDEST DUP1 PUSH4 0x715018A6 EQ PUSH2 0x1E9 JUMPI DUP1 PUSH4 0x8DA5CB5B EQ PUSH2 0x1FF JUMPI DUP1 PUSH4 0xAD3CB1CC EQ PUSH2 0x229 JUMPI PUSH2 0xC1 JUMP JUMPDEST DUP1 PUSH4 0x1E64725 EQ PUSH2 0xC5 JUMPI DUP1 PUSH4 0x213681CD EQ PUSH2 0x102 JUMPI DUP1 PUSH4 0x27258B22 EQ PUSH2 0x13F JUMPI DUP1 PUSH4 0x4F1EF286 EQ PUSH2 0x17B JUMPI DUP1 PUSH4 0x52D1902D EQ PUSH2 0x197 JUMPI DUP1 PUSH4 0x57B77C64 EQ PUSH2 0x1C1 JUMPI JUMPDEST PUSH0 PUSH0 REVERT JUMPDEST CALLVALUE DUP1 ISZERO PUSH2 0xD0 JUMPI PUSH0 PUSH0 REVERT JUMPDEST POP PUSH2 0xEB PUSH1 0x4 DUP1 CALLDATASIZE SUB DUP2 ADD SWAP1 PUSH2 0xE6 SWAP2 SWAP1 PUSH2 0x1671 JUMP JUMPDEST PUSH2 0x2F3 JUMP JUMPDEST PUSH1 0x40 MLOAD PUSH2 0xF9 SWAP3 SWAP2 SWAP1 PUSH2 0x16F3 JUMP JUMPDEST PUSH1 0x40 MLOAD DUP1 SWAP2 SUB SWAP1 RETURN JUMPDEST CALLVALUE DUP1 ISZERO PUSH2 0x10D JUMPI PUSH0 PUSH0 REVERT JUMPDEST POP PUSH2 0x128 PUSH1 0x4 DUP1 CALLDATASIZE SUB DUP2 ADD SWAP1 PUSH2 0x123 SWAP2 SWAP1 PUSH2 0x1671 JUMP JUMPDEST PUSH2 0x332 JUMP JUMPDEST PUSH1 0x40 MLOAD PUSH2 0x136 SWAP3 SWAP2 SWAP1 PUSH2 0x16F3 JUMP JUMPDEST PUSH1 0x40 MLOAD DUP1 SWAP2 SUB SWAP1 RETURN JUMPDEST CALLVALUE DUP1 ISZERO PUSH2 0x14A JUMPI PUSH0 PUSH0 REVERT JUMPDEST POP PUSH2 0x165 PUSH1 0x4 DUP1 CALLDATASIZE SUB DUP2 ADD SWAP1 PUSH2 0x160 SWAP2 SWAP1 PUSH2 0x1671 JUMP JUMPDEST PUSH2 0x3C4 JUMP JUMPDEST PUSH1 0x40 MLOAD PUSH2 0x172 SWAP2 SWAP1 PUSH2 0x1734 JUMP JUMPDEST PUSH1 0x40 MLOAD DUP1 SWAP2 SUB SWAP1 RETURN JUMPDEST PUSH2 0x195 PUSH1 0x4 DUP1 CALLDATASIZE SUB DUP2 ADD SWAP1 PUSH2 0x190 SWAP2 SWAP1 PUSH2 0x18B3 JUMP JUMPDEST PUSH2 0x3E4 JUMP JUMPDEST STOP JUMPDEST CALLVALUE DUP1 ISZERO PUSH2 0x1A2 JUMPI PUSH0 PUSH0 REVERT JUMPDEST POP PUSH2 0x1AB PUSH2 0x403 JUMP JUMPDEST PUSH1 0x40 MLOAD PUSH2 0x1B8 SWAP2 SWAP1 PUSH2 0x191C JUMP JUMPDEST PUSH1 0x40 MLOAD DUP1 SWAP2 SUB SWAP1 RETURN JUMPDEST CALLVALUE DUP1 ISZERO PUSH2 0x1CC JUMPI PUSH0 PUSH0 REVERT JUMPDEST POP PUSH2 0x1E7 PUSH1 0x4 DUP1 CALLDATASIZE SUB DUP2 ADD SWAP1 PUSH2 0x1E2 SWAP2 SWAP1 PUSH2 0x1992 JUMP JUMPDEST PUSH2 0x434 JUMP JUMPDEST STOP JUMPDEST CALLVALUE DUP1 ISZERO PUSH2 0x1F4 JUMPI PUSH0 PUSH0 REVERT JUMPDEST POP PUSH2 0x1FD PUSH2 0x6CC JUMP JUMPDEST STOP JUMPDEST CALLVALUE DUP1 ISZERO PUSH2 0x20A JUMPI PUSH0 PUSH0 REVERT JUMPDEST POP PUSH2 0x213 PUSH2 0x6DF JUMP JUMPDEST PUSH1 0x40 MLOAD PUSH2 0x220 SWAP2 SWAP1 PUSH2 0x19DD JUMP JUMPDEST PUSH1 0x40 MLOAD DUP1 SWAP2 SUB SWAP1 RETURN JUMPDEST CALLVALUE DUP1 ISZERO PUSH2 0x234 JUMPI PUSH0 PUSH0 REVERT JUMPDEST POP PUSH2 0x23D PUSH2 0x714 JUMP JUMPDEST PUSH1 0x40 MLOAD PUSH2 0x24A SWAP2 SWAP1 PUSH2 0x1A56 JUMP JUMPDEST PUSH1 0x40 MLOAD DUP1 SWAP2 SUB SWAP1 RETURN JUMPDEST CALLVALUE DUP1 ISZERO PUSH2 0x25E JUMPI PUSH0 PUSH0 REVERT JUMPDEST POP PUSH2 0x279 PUSH1 0x4 DUP1 CALLDATASIZE SUB DUP2 ADD SWAP1 PUSH2 0x274 SWAP2 SWAP1 PUSH2 0x1A76 JUMP JUMPDEST PUSH2 0x74D JUMP JUMPDEST STOP JUMPDEST CALLVALUE DUP1 ISZERO PUSH2 0x286 JUMPI PUSH0 PUSH0 REVERT JUMPDEST POP PUSH2 0x2A1 PUSH1 0x4 DUP1 CALLDATASIZE SUB DUP2 ADD SWAP1 PUSH2 0x29C SWAP2 SWAP1 PUSH2 0x1671 JUMP JUMPDEST PUSH2 0x915 JUMP JUMPDEST STOP JUMPDEST CALLVALUE DUP1 ISZERO PUSH2 0x2AE JUMPI PUSH0 PUSH0 REVERT JUMPDEST POP PUSH2 0x2C9 PUSH1 0x4 DUP1 CALLDATASIZE SUB DUP2 ADD SWAP1 PUSH2 0x2C4 SWAP2 SWAP1 PUSH2 0x1AA1 JUMP JUMPDEST PUSH2 0xB70 JUMP JUMPDEST STOP JUMPDEST CALLVALUE DUP1 ISZERO PUSH2 0x2D6 JUMPI PUSH0 PUSH0 REVERT JUMPDEST POP PUSH2 0x2F1 PUSH1 0x4 DUP1 CALLDATASIZE SUB DUP2 ADD SWAP1 PUSH2 0x2EC SWAP2 SWAP1 PUSH2 0x1A76 JUMP JUMPDEST PUSH2 0xD2E JUMP JUMPDEST STOP JUMPDEST PUSH1 0x1 PUSH1 0x20 MSTORE DUP1 PUSH0 MSTORE PUSH1 0x40 PUSH0 KECCAK256 PUSH0 SWAP2 POP SWAP1 POP DUP1 PUSH0 ADD PUSH0 SWAP1 SLOAD SWAP1 PUSH2 0x100 EXP SWAP1 DIV PUSH20 0xFFFFFFFFFFFFFFFFFFFFFFFFFFFFFFFFFFFFFFFF AND SWAP1 DUP1 PUSH1 0x1 ADD SLOAD SWAP1 POP DUP3 JUMP JUMPDEST PUSH0 PUSH0 PUSH0 PUSH1 0x1 PUSH0 DUP6 DUP2 MSTORE PUSH1 0x20 ADD SWAP1 DUP2 MSTORE PUSH1 0x20 ADD PUSH0 KECCAK256 PUSH1 0x40 MLOAD DUP1 PUSH1 0x40 ADD PUSH1 0x40 MSTORE SWAP1 DUP2 PUSH0 DUP3 ADD PUSH0 SWAP1 SLOAD SWAP1 PUSH2 0x100 EXP SWAP1 DIV PUSH20 0xFFFFFFFFFFFFFFFFFFFFFFFFFFFFFFFFFFFFFFFF AND PUSH20 0xFFFFFFFFFFFFFFFFFFFFFFFFFFFFFFFFFFFFFFFF AND PUSH20 0xFFFFFFFFFFFFFFFFFFFFFFFFFFFFFFFFFFFFFFFF AND DUP2 MSTORE PUSH1 0x20 ADD PUSH1 0x1 DUP3 ADD SLOAD DUP2 MSTORE POP POP SWAP1 POP DUP1 PUSH0 ADD MLOAD DUP2 PUSH1 0x20 ADD MLOAD SWAP3 POP SWAP3 POP POP SWAP2 POP SWAP2 JUMP JUMPDEST PUSH0 PUSH0 PUSH1 0x1 PUSH0 DUP5 DUP2 MSTORE PUSH1 0x20 ADD SWAP1 DUP2 MSTORE PUSH1 0x20 ADD PUSH0 KECCAK256 PUSH1 0x1 ADD SLOAD EQ ISZERO SWAP1 POP SWAP2 SWAP1 POP JUMP JUMPDEST PUSH2 0x3EC PUSH2 0xDB2 JUMP JUMPDEST PUSH2 0x3F5 DUP3 PUSH2 0xE98 JUMP JUMPDEST PUSH2 0x3FF DUP3 DUP3 PUSH2 0xEA3 JUMP JUMPDEST POP POP JUMP JUMPDEST PUSH0 PUSH2 0x40C PUSH2 0xFC1 JUMP JUMPDEST PUSH32 0x360894A13BA1A3210667C828492DB98DCA3E2076CC3735A920A3CA505D382BBC PUSH0 SHL SWAP1 POP SWAP1 JUMP JUMPDEST PUSH2 0x43C PUSH2 0x1048 JUMP JUMPDEST PUSH0 PUSH0 SWAP1 POP JUMPDEST DUP3 DUP3 SWAP1 POP DUP2 LT ISZERO PUSH2 0x6C7 JUMPI PUSH0 DUP4 DUP4 DUP4 DUP2 DUP2 LT PUSH2 0x460 JUMPI PUSH2 0x45F PUSH2 0x1ADF JUMP JUMPDEST JUMPDEST SWAP1 POP PUSH1 0x20 MUL ADD CALLDATALOAD SWAP1 POP PUSH0 PUSH0 SHL DUP2 SUB PUSH2 0x4AD JUMPI PUSH1 0x40 MLOAD PUSH32 0x8C379A000000000000000000000000000000000000000000000000000000000 DUP2 MSTORE PUSH1 0x4 ADD PUSH2 0x4A4 SWAP1 PUSH2 0x1B56 JUMP JUMPDEST PUSH1 0x40 MLOAD DUP1 SWAP2 SUB SWAP1 REVERT JUMPDEST PUSH0 PUSH1 0x1 PUSH0 DUP4 DUP2 MSTORE PUSH1 0x20 ADD SWAP1 DUP2 MSTORE PUSH1 0x20 ADD PUSH0 KECCAK256 PUSH1 0x1 ADD SLOAD EQ PUSH2 0x503 JUMPI PUSH1 0x40 MLOAD PUSH32 0x8C379A000000000000000000000000000000000000000000000000000000000 DUP2 MSTORE PUSH1 0x4 ADD PUSH2 0x4FA SWAP1 PUSH2 0x1BBE JUMP JUMPDEST PUSH1 0x40 MLOAD DUP1 SWAP2 SUB SWAP1 REVERT JUMPDEST PUSH0 PUSH0 PUSH0 PUSH0 SWAP1 SLOAD SWAP1 PUSH2 0x100 EXP SWAP1 DIV PUSH20 0xFFFFFFFFFFFFFFFFFFFFFFFFFFFFFFFFFFFFFFFF AND PUSH20 0xFFFFFFFFFFFFFFFFFFFFFFFFFFFFFFFFFFFFFFFF AND PUSH4 0xFEAF968C PUSH1 0x40 MLOAD DUP2 PUSH4 0xFFFFFFFF AND PUSH1 0xE0 SHL DUP2 MSTORE PUSH1 0x4 ADD PUSH1 0xA0 PUSH1 0x40 MLOAD DUP1 DUP4 SUB DUP2 DUP7 GAS STATICCALL ISZERO DUP1 ISZERO PUSH2 0x56E JUMPI RETURNDATASIZE PUSH0 PUSH0 RETURNDATACOPY RETURNDATASIZE PUSH0 REVERT JUMPDEST POP POP POP POP PUSH1 0x40 MLOAD RETURNDATASIZE PUSH1 0x1F NOT PUSH1 0x1F DUP3 ADD AND DUP3 ADD DUP1 PUSH1 0x40 MSTORE POP DUP2 ADD SWAP1 PUSH2 0x592 SWAP2 SWAP1 PUSH2 0x1C78 JUMP JUMPDEST POP SWAP4 POP POP SWAP3 POP POP PUSH0 DUP2 GT PUSH2 0x5DB JUMPI PUSH1 0x40 MLOAD PUSH32 0x8C379A000000000000000000000000000000000000000000000000000000000 DUP2 MSTORE PUSH1 0x4 ADD PUSH2 0x5D2 SWAP1 PUSH2 0x1D39 JUMP JUMPDEST PUSH1 0x40 MLOAD DUP1 SWAP2 SUB SWAP1 REVERT JUMPDEST PUSH1 0x40 MLOAD DUP1 PUSH1 0x40 ADD PUSH1 0x40 MSTORE DUP1 CALLER PUSH20 0xFFFFFFFFFFFFFFFFFFFFFFFFFFFFFFFFFFFFFFFF AND DUP2 MSTORE PUSH1 0x20 ADD DUP3 DUP2 MSTORE POP PUSH1 0x1 PUSH0 DUP6 DUP2 MSTORE PUSH1 0x20 ADD SWAP1 DUP2 MSTORE PUSH1 0x20 ADD PUSH0 KECCAK256 PUSH0 DUP3 ADD MLOAD DUP2 PUSH0 ADD PUSH0 PUSH2 0x100 EXP DUP2 SLOAD DUP2 PUSH20 0xFFFFFFFFFFFFFFFFFFFFFFFFFFFFFFFFFFFFFFFF MUL NOT AND SWAP1 DUP4 PUSH20 0xFFFFFFFFFFFFFFFFFFFFFFFFFFFFFFFFFFFFFFFF AND MUL OR SWAP1 SSTORE POP PUSH1 0x20 DUP3 ADD MLOAD DUP2 PUSH1 0x1 ADD SSTORE SWAP1 POP POP CALLER PUSH20 0xFFFFFFFFFFFFFFFFFFFFFFFFFFFFFFFFFFFFFFFF AND DUP4 PUSH32 0x6569E54C43A697FC61E67763858D5ABEF16899D2B13215C7C07090AA878B24A8 DUP4 PUSH1 0x40 MLOAD PUSH2 0x6AF SWAP2 SWAP1 PUSH2 0x1D57 JUMP JUMPDEST PUSH1 0x40 MLOAD DUP1 SWAP2 SUB SWAP1 LOG3 POP POP POP DUP1 DUP1 PUSH1 0x1 ADD SWAP2 POP POP PUSH2 0x441 JUMP JUMPDEST POP POP POP JUMP JUMPDEST PUSH2 0x6D4 PUSH2 0x1048 JUMP JUMPDEST PUSH2 0x6DD PUSH0 PUSH2 0x10CF JUMP JUMPDEST JUMP JUMPDEST PUSH0 PUSH0 PUSH2 0x6E9 PUSH2 0x11A0 JUMP JUMPDEST SWAP1 POP DUP1 PUSH0 ADD PUSH0 SWAP1 SLOAD SWAP1 PUSH2 0x100 EXP SWAP1 DIV PUSH20 0xFFFFFFFFFFFFFFFFFFFFFFFFFFFFFFFFFFFFFFFF AND SWAP2 POP POP SWAP1 JUMP JUMPDEST PUSH1 0x40 MLOAD DUP1 PUSH1 0x40 ADD PUSH1 0x40 MSTORE DUP1 PUSH1 0x5 DUP2 MSTORE PUSH1 0x20 ADD PUSH32 0x352E302E30000000000000000000000000000000000000000000000000000000 DUP2 MSTORE POP DUP2 JUMP JUMPDEST PUSH0 PUSH2 0x756 PUSH2 0x11C7 JUMP JUMPDEST SWAP1 POP PUSH0 DUP2 PUSH0 ADD PUSH1 0x8 SWAP1 SLOAD SWAP1 PUSH2 0x100 EXP SWAP1 DIV PUSH1 0xFF AND ISZERO SWAP1 POP PUSH0 DUP3 PUSH0 ADD PUSH0 SWAP1 SLOAD SWAP1 PUSH2 0x100 EXP SWAP1 DIV PUSH8 0xFFFFFFFFFFFFFFFF AND SWAP1 POP PUSH0 PUSH0 DUP3 PUSH8 0xFFFFFFFFFFFFFFFF AND EQ DUP1 ISZERO PUSH2 0x79E JUMPI POP DUP3 JUMPDEST SWAP1 POP PUSH0 PUSH1 0x1 DUP4 PUSH8 0xFFFFFFFFFFFFFFFF AND EQ DUP1 ISZERO PUSH2 0x7D1 JUMPI POP PUSH0 ADDRESS PUSH20 0xFFFFFFFFFFFFFFFFFFFFFFFFFFFFFFFFFFFFFFFF AND EXTCODESIZE EQ JUMPDEST SWAP1 POP DUP2 ISZERO DUP1 ISZERO PUSH2 0x7DF JUMPI POP DUP1 ISZERO JUMPDEST ISZERO PUSH2 0x816 JUMPI PUSH1 0x40 MLOAD PUSH32 0xF92EE8A900000000000000000000000000000000000000000000000000000000 DUP2 MSTORE PUSH1 0x4 ADD PUSH1 0x40 MLOAD DUP1 SWAP2 SUB SWAP1 REVERT JUMPDEST PUSH1 0x1 DUP6 PUSH0 ADD PUSH0 PUSH2 0x100 EXP DUP2 SLOAD DUP2 PUSH8 0xFFFFFFFFFFFFFFFF MUL NOT AND SWAP1 DUP4 PUSH8 0xFFFFFFFFFFFFFFFF AND MUL OR SWAP1 SSTORE POP DUP4 ISZERO PUSH2 0x863 JUMPI PUSH1 0x1 DUP6 PUSH0 ADD PUSH1 0x8 PUSH2 0x100 EXP DUP2 SLOAD DUP2 PUSH1 0xFF MUL NOT AND SWAP1 DUP4 ISZERO ISZERO MUL OR SWAP1 SSTORE POP JUMPDEST PUSH2 0x86C CALLER PUSH2 0x11DA JUMP JUMPDEST PUSH2 0x874 PUSH2 0x11EE JUMP JUMPDEST DUP6 PUSH0 PUSH0 PUSH2 0x100 EXP DUP2 SLOAD DUP2 PUSH20 0xFFFFFFFFFFFFFFFFFFFFFFFFFFFFFFFFFFFFFFFF MUL NOT AND SWAP1 DUP4 PUSH20 0xFFFFFFFFFFFFFFFFFFFFFFFFFFFFFFFFFFFFFFFF AND MUL OR SWAP1 SSTORE POP DUP4 ISZERO PUSH2 0x90D JUMPI PUSH0 DUP6 PUSH0 ADD PUSH1 0x8 PUSH2 0x100 EXP DUP2 SLOAD DUP2 PUSH1 0xFF MUL NOT AND SWAP1 DUP4 ISZERO ISZERO MUL OR SWAP1 SSTORE POP PUSH32 0xC7F505B2F371AE2175EE4913F4499E1F2633A7B5936321EED1CDAEB6115181D2 PUSH1 0x1 PUSH1 0x40 MLOAD PUSH2 0x904 SWAP2 SWAP1 PUSH2 0x1DC5 JUMP JUMPDEST PUSH1 0x40 MLOAD DUP1 SWAP2 SUB SWAP1 LOG1 JUMPDEST POP POP POP POP POP POP JUMP JUMPDEST PUSH2 0x91D PUSH2 0x1048 JUMP JUMPDEST PUSH0 PUSH0 SHL DUP2 SUB PUSH2 0x961 JUMPI PUSH1 0x40 MLOAD PUSH32 0x8C379A000000000000000000000000000000000000000000000000000000000 DUP2 MSTORE PUSH1 0x4 ADD PUSH2 0x958 SWAP1 PUSH2 0x1B56 JUMP JUMPDEST PUSH1 0x40 MLOAD DUP1 SWAP2 SUB SWAP1 REVERT JUMPDEST PUSH0 PUSH1 0x1 PUSH0 DUP4 DUP2 MSTORE PUSH1 0x20 ADD SWAP1 DUP2 MSTORE PUSH1 0x20 ADD PUSH0 KECCAK256 PUSH1 0x1 ADD SLOAD EQ PUSH2 0x9B7 JUMPI PUSH1 0x40 MLOAD PUSH32 0x8C379A000000000000000000000000000000000000000000000000000000000 DUP2 MSTORE PUSH1 0x4 ADD PUSH2 0x9AE SWAP1 PUSH2 0x1BBE JUMP JUMPDEST PUSH1 0x40 MLOAD DUP1 SWAP2 SUB SWAP1 REVERT JUMPDEST PUSH0 PUSH0 PUSH0 PUSH0 SWAP1 SLOAD SWAP1 PUSH2 0x100 EXP SWAP1 DIV PUSH20 0xFFFFFFFFFFFFFFFFFFFFFFFFFFFFFFFFFFFFFFFF AND PUSH20 0xFFFFFFFFFFFFFFFFFFFFFFFFFFFFFFFFFFFFFFFF AND PUSH4 0xFEAF968C PUSH1 0x40 MLOAD DUP2 PUSH4 0xFFFFFFFF AND PUSH1 0xE0 SHL DUP2 MSTORE PUSH1 0x4 ADD PUSH1 0xA0 PUSH1 0x40 MLOAD DUP1 DUP4 SUB DUP2 DUP7 GAS STATICCALL ISZERO DUP1 ISZERO PUSH2 0xA22 JUMPI RETURNDATASIZE PUSH0 PUSH0 RETURNDATACOPY RETURNDATASIZE PUSH0 REVERT JUMPDEST POP POP POP POP PUSH1 0x40 MLOAD RETURNDATASIZE PUSH1 0x1F NOT PUSH1 0x1F DUP3 ADD AND DUP3 ADD DUP1 PUSH1 0x40 MSTORE POP DUP2 ADD SWAP1 PUSH2 0xA46 SWAP2 SWAP1 PUSH2 0x1C78 JUMP JUMPDEST POP SWAP4 POP POP SWAP3 POP POP PUSH0 DUP2 GT PUSH2 0xA8F JUMPI PUSH1 0x40 MLOAD PUSH32 0x8C379A000000000000000000000000000000000000000000000000000000000 DUP2 MSTORE PUSH1 0x4 ADD PUSH2 0xA86 SWAP1 PUSH2 0x1D39 JUMP JUMPDEST PUSH1 0x40 MLOAD DUP1 SWAP2 SUB SWAP1 REVERT JUMPDEST PUSH1 0x40 MLOAD DUP1 PUSH1 0x40 ADD PUSH1 0x40 MSTORE DUP1 CALLER PUSH20 0xFFFFFFFFFFFFFFFFFFFFFFFFFFFFFFFFFFFFFFFF AND DUP2 MSTORE PUSH1 0x20 ADD DUP3 DUP2 MSTORE POP PUSH1 0x1 PUSH0 DUP6 DUP2 MSTORE PUSH1 0x20 ADD SWAP1 DUP2 MSTORE PUSH1 0x20 ADD PUSH0 KECCAK256 PUSH0 DUP3 ADD MLOAD DUP2 PUSH0 ADD PUSH0 PUSH2 0x100 EXP DUP2 SLOAD DUP2 PUSH20 0xFFFFFFFFFFFFFFFFFFFFFFFFFFFFFFFFFFFFFFFF MUL NOT AND SWAP1 DUP4 PUSH20 0xFFFFFFFFFFFFFFFFFFFFFFFFFFFFFFFFFFFFFFFF AND MUL OR SWAP1 SSTORE POP PUSH1 0x20 DUP3 ADD MLOAD DUP2 PUSH1 0x1 ADD SSTORE SWAP1 POP POP CALLER PUSH20 0xFFFFFFFFFFFFFFFFFFFFFFFFFFFFFFFFFFFFFFFF AND DUP4 PUSH32 0x6569E54C43A697FC61E67763858D5ABEF16899D2B13215C7C07090AA878B24A8 DUP4 PUSH1 0x40 MLOAD PUSH2 0xB63 SWAP2 SWAP1 PUSH2 0x1D57 JUMP JUMPDEST PUSH1 0x40 MLOAD DUP1 SWAP2 SUB SWAP1 LOG3 POP POP POP JUMP JUMPDEST CALLER PUSH20 0xFFFFFFFFFFFFFFFFFFFFFFFFFFFFFFFFFFFFFFFF AND PUSH1 0x1 PUSH0 DUP5 DUP2 MSTORE PUSH1 0x20 ADD SWAP1 DUP2 MSTORE PUSH1 0x20 ADD PUSH0 KECCAK256 PUSH0 ADD PUSH0 SWAP1 SLOAD SWAP1 PUSH2 0x100 EXP SWAP1 DIV PUSH20 0xFFFFFFFFFFFFFFFFFFFFFFFFFFFFFFFFFFFFFFFF AND PUSH20 0xFFFFFFFFFFFFFFFFFFFFFFFFFFFFFFFFFFFFFFFF AND EQ PUSH2 0xC10 JUMPI PUSH1 0x40 MLOAD PUSH32 0x8C379A000000000000000000000000000000000000000000000000000000000 DUP2 MSTORE PUSH1 0x4 ADD PUSH2 0xC07 SWAP1 PUSH2 0x1E28 JUMP JUMPDEST PUSH1 0x40 MLOAD DUP1 SWAP2 SUB SWAP1 REVERT JUMPDEST PUSH0 PUSH20 0xFFFFFFFFFFFFFFFFFFFFFFFFFFFFFFFFFFFFFFFF AND DUP2 PUSH20 0xFFFFFFFFFFFFFFFFFFFFFFFFFFFFFFFFFFFFFFFF AND SUB PUSH2 0xC7E JUMPI PUSH1 0x40 MLOAD PUSH32 0x8C379A000000000000000000000000000000000000000000000000000000000 DUP2 MSTORE PUSH1 0x4 ADD PUSH2 0xC75 SWAP1 PUSH2 0x1E90 JUMP JUMPDEST PUSH1 0x40 MLOAD DUP1 SWAP2 SUB SWAP1 REVERT JUMPDEST DUP1 PUSH1 0x1 PUSH0 DUP5 DUP2 MSTORE PUSH1 0x20 ADD SWAP1 DUP2 MSTORE PUSH1 0x20 ADD PUSH0 KECCAK256 PUSH0 ADD PUSH0 PUSH2 0x100 EXP DUP2 SLOAD DUP2 PUSH20 0xFFFFFFFFFFFFFFFFFFFFFFFFFFFFFFFFFFFFFFFF MUL NOT AND SWAP1 DUP4 PUSH20 0xFFFFFFFFFFFFFFFFFFFFFFFFFFFFFFFFFFFFFFFF AND MUL OR SWAP1 SSTORE POP DUP1 PUSH20 0xFFFFFFFFFFFFFFFFFFFFFFFFFFFFFFFFFFFFFFFF AND CALLER PUSH20 0xFFFFFFFFFFFFFFFFFFFFFFFFFFFFFFFFFFFFFFFF AND DUP4 PUSH32 0xB659DCCC8EB950324170E8D9598AF5EE04EE070883EB28651A96788721FBF83 PUSH1 0x40 MLOAD PUSH1 0x40 MLOAD DUP1 SWAP2 SUB SWAP1 LOG4 POP POP JUMP JUMPDEST PUSH2 0xD36 PUSH2 0x1048 JUMP JUMPDEST PUSH0 PUSH20 0xFFFFFFFFFFFFFFFFFFFFFFFFFFFFFFFFFFFFFFFF AND DUP2 PUSH20 0xFFFFFFFFFFFFFFFFFFFFFFFFFFFFFFFFFFFFFFFF AND SUB PUSH2 0xDA6 JUMPI PUSH0 PUSH1 0x40 MLOAD PUSH32 0x1E4FBDF700000000000000000000000000000000000000000000000000000000 DUP2 MSTORE PUSH1 0x4 ADD PUSH2 0xD9D SWAP2 SWAP1 PUSH2 0x19DD JUMP JUMPDEST PUSH1 0x40 MLOAD DUP1 SWAP2 SUB SWAP1 REVERT JUMPDEST PUSH2 0xDAF DUP2 PUSH2 0x10CF JUMP JUMPDEST POP JUMP JUMPDEST PUSH32 0x0 PUSH20 0xFFFFFFFFFFFFFFFFFFFFFFFFFFFFFFFFFFFFFFFF AND ADDRESS PUSH20 0xFFFFFFFFFFFFFFFFFFFFFFFFFFFFFFFFFFFFFFFF AND EQ DUP1 PUSH2 0xE5F JUMPI POP PUSH32 0x0 PUSH20 0xFFFFFFFFFFFFFFFFFFFFFFFFFFFFFFFFFFFFFFFF AND PUSH2 0xE46 PUSH2 0x11F8 JUMP JUMPDEST PUSH20 0xFFFFFFFFFFFFFFFFFFFFFFFFFFFFFFFFFFFFFFFF AND EQ ISZERO JUMPDEST ISZERO PUSH2 0xE96 JUMPI PUSH1 0x40 MLOAD PUSH32 0xE07C8DBA00000000000000000000000000000000000000000000000000000000 DUP2 MSTORE PUSH1 0x4 ADD PUSH1 0x40 MLOAD DUP1 SWAP2 SUB SWAP1 REVERT JUMPDEST JUMP JUMPDEST PUSH2 0xEA0 PUSH2 0x1048 JUMP JUMPDEST POP JUMP JUMPDEST DUP2 PUSH20 0xFFFFFFFFFFFFFFFFFFFFFFFFFFFFFFFFFFFFFFFF AND PUSH4 0x52D1902D PUSH1 0x40 MLOAD DUP2 PUSH4 0xFFFFFFFF AND PUSH1 0xE0 SHL DUP2 MSTORE PUSH1 0x4 ADD PUSH1 0x20 PUSH1 0x40 MLOAD DUP1 DUP4 SUB DUP2 DUP7 GAS STATICCALL SWAP3 POP POP POP DUP1 ISZERO PUSH2 0xF0B JUMPI POP PUSH1 0x40 MLOAD RETURNDATASIZE PUSH1 0x1F NOT PUSH1 0x1F DUP3 ADD AND DUP3 ADD DUP1 PUSH1 0x40 MSTORE POP DUP2 ADD SWAP1 PUSH2 0xF08 SWAP2 SWAP1 PUSH2 0x1EC2 JUMP JUMPDEST PUSH1 0x1 JUMPDEST PUSH2 0xF4C JUMPI DUP2 PUSH1 0x40 MLOAD PUSH32 0x4C9C8CE300000000000000000000000000000000000000000000000000000000 DUP2 MSTORE PUSH1 0x4 ADD PUSH2 0xF43 SWAP2 SWAP1 PUSH2 0x19DD JUMP JUMPDEST PUSH1 0x40 MLOAD DUP1 SWAP2 SUB SWAP1 REVERT JUMPDEST PUSH32 0x360894A13BA1A3210667C828492DB98DCA3E2076CC3735A920A3CA505D382BBC PUSH0 SHL DUP2 EQ PUSH2 0xFB2 JUMPI DUP1 PUSH1 0x40 MLOAD PUSH32 0xAA1D49A400000000000000000000000000000000000000000000000000000000 DUP2 MSTORE PUSH1 0x4 ADD PUSH2 0xFA9 SWAP2 SWAP1 PUSH2 0x191C JUMP JUMPDEST PUSH1 0x40 MLOAD DUP1 SWAP2 SUB SWAP1 REVERT JUMPDEST PUSH2 0xFBC DUP4 DUP4 PUSH2 0x124B JUMP JUMPDEST POP POP POP JUMP JUMPDEST PUSH32 0x0 PUSH20 0xFFFFFFFFFFFFFFFFFFFFFFFFFFFFFFFFFFFFFFFF AND ADDRESS PUSH20 0xFFFFFFFFFFFFFFFFFFFFFFFFFFFFFFFFFFFFFFFF AND EQ PUSH2 0x1046 JUMPI PUSH1 0x40 MLOAD PUSH32 0xE07C8DBA00000000000000000000000000000000000000000000000000000000 DUP2 MSTORE PUSH1 0x4 ADD PUSH1 0x40 MLOAD DUP1 SWAP2 SUB SWAP1 REVERT JUMPDEST JUMP JUMPDEST PUSH2 0x1050 PUSH2 0x12BD JUMP JUMPDEST PUSH20 0xFFFFFFFFFFFFFFFFFFFFFFFFFFFFFFFFFFFFFFFF AND PUSH2 0x106E PUSH2 0x6DF JUMP JUMPDEST PUSH20 0xFFFFFFFFFFFFFFFFFFFFFFFFFFFFFFFFFFFFFFFF AND EQ PUSH2 0x10CD JUMPI PUSH2 0x1091 PUSH2 0x12BD JUMP JUMPDEST PUSH1 0x40 MLOAD PUSH32 0x118CDAA700000000000000000000000000000000000000000000000000000000 DUP2 MSTORE PUSH1 0x4 ADD PUSH2 0x10C4 SWAP2 SWAP1 PUSH2 0x19DD JUMP JUMPDEST PUSH1 0x40 MLOAD DUP1 SWAP2 SUB SWAP1 REVERT JUMPDEST JUMP JUMPDEST PUSH0 PUSH2 0x10D8 PUSH2 0x11A0 JUMP JUMPDEST SWAP1 POP PUSH0 DUP2 PUSH0 ADD PUSH0 SWAP1 SLOAD SWAP1 PUSH2 0x100 EXP SWAP1 DIV PUSH20 0xFFFFFFFFFFFFFFFFFFFFFFFFFFFFFFFFFFFFFFFF AND SWAP1 POP DUP3 DUP3 PUSH0 ADD PUSH0 PUSH2 0x100 EXP DUP2 SLOAD DUP2 PUSH20 0xFFFFFFFFFFFFFFFFFFFFFFFFFFFFFFFFFFFFFFFF MUL NOT AND SWAP1 DUP4 PUSH20 0xFFFFFFFFFFFFFFFFFFFFFFFFFFFFFFFFFFFFFFFF AND MUL OR SWAP1 SSTORE POP DUP3 PUSH20 0xFFFFFFFFFFFFFFFFFFFFFFFFFFFFFFFFFFFFFFFF AND DUP2 PUSH20 0xFFFFFFFFFFFFFFFFFFFFFFFFFFFFFFFFFFFFFFFF AND PUSH32 0x8BE0079C531659141344CD1FD0A4F28419497F9722A3DAAFE3B4186F6B6457E0 PUSH1 0x40 MLOAD PUSH1 0x40 MLOAD DUP1 SWAP2 SUB SWAP1 LOG3 POP POP POP JUMP JUMPDEST PUSH0 PUSH32 0x9016D09D72D40FDAE2FD8CEAC6B6234C7706214FD39C1CD1E609A0528C199300 SWAP1 POP SWAP1 JUMP JUMPDEST PUSH0 PUSH0 PUSH2 0x11D1 PUSH2 0x12C4 JUMP JUMPDEST SWAP1 POP DUP1 SWAP2 POP POP SWAP1 JUMP JUMPDEST PUSH2 0x11E2 PUSH2 0x12ED JUMP JUMPDEST PUSH2 0x11EB DUP2 PUSH2 0x132D JUMP JUMPDEST POP JUMP JUMPDEST PUSH2 0x11F6 PUSH2 0x12ED JUMP JUMPDEST JUMP JUMPDEST PUSH0 PUSH2 0x1224 PUSH32 0x360894A13BA1A3210667C828492DB98DCA3E2076CC3735A920A3CA505D382BBC PUSH0 SHL PUSH2 0x13B1 JUMP JUMPDEST PUSH0 ADD PUSH0 SWAP1 SLOAD SWAP1 PUSH2 0x100 EXP SWAP1 DIV PUSH20 0xFFFFFFFFFFFFFFFFFFFFFFFFFFFFFFFFFFFFFFFF AND SWAP1 POP SWAP1 JUMP JUMPDEST PUSH2 0x1254 DUP3 PUSH2 0x13BA JUMP JUMPDEST DUP2 PUSH20 0xFFFFFFFFFFFFFFFFFFFFFFFFFFFFFFFFFFFFFFFF AND PUSH32 0xBC7CD75A20EE27FD9ADEBAB32041F755214DBC6BFFA90CC0225B39DA2E5C2D3B PUSH1 0x40 MLOAD PUSH1 0x40 MLOAD DUP1 SWAP2 SUB SWAP1 LOG2 PUSH0 DUP2 MLOAD GT ISZERO PUSH2 0x12B0 JUMPI PUSH2 0x12AA DUP3 DUP3 PUSH2 0x1483 JUMP JUMPDEST POP PUSH2 0x12B9 JUMP JUMPDEST PUSH2 0x12B8 PUSH2 0x1503 JUMP JUMPDEST JUMPDEST POP POP JUMP JUMPDEST PUSH0 CALLER SWAP1 POP SWAP1 JUMP JUMPDEST PUSH0 PUSH32 0xF0C57E16840DF040F15088DC2F81FE391C3923BEC73E23A9662EFC9C229C6A00 PUSH0 SHL SWAP1 POP SWAP1 JUMP JUMPDEST PUSH2 0x12F5 PUSH2 0x153F JUMP JUMPDEST PUSH2 0x132B JUMPI PUSH1 0x40 MLOAD PUSH32 0xD7E6BCF800000000000000000000000000000000000000000000000000000000 DUP2 MSTORE PUSH1 0x4 ADD PUSH1 0x40 MLOAD DUP1 SWAP2 SUB SWAP1 REVERT JUMPDEST JUMP JUMPDEST PUSH2 0x1335 PUSH2 0x12ED JUMP JUMPDEST PUSH0 PUSH20 0xFFFFFFFFFFFFFFFFFFFFFFFFFFFFFFFFFFFFFFFF AND DUP2 PUSH20 0xFFFFFFFFFFFFFFFFFFFFFFFFFFFFFFFFFFFFFFFF AND SUB PUSH2 0x13A5 JUMPI PUSH0 PUSH1 0x40 MLOAD PUSH32 0x1E4FBDF700000000000000000000000000000000000000000000000000000000 DUP2 MSTORE PUSH1 0x4 ADD PUSH2 0x139C SWAP2 SWAP1 PUSH2 0x19DD JUMP JUMPDEST PUSH1 0x40 MLOAD DUP1 SWAP2 SUB SWAP1 REVERT JUMPDEST PUSH2 0x13AE DUP2 PUSH2 0x10CF JUMP JUMPDEST POP JUMP JUMPDEST PUSH0 DUP2 SWAP1 POP SWAP2 SWAP1 POP JUMP JUMPDEST PUSH0 DUP2 PUSH20 0xFFFFFFFFFFFFFFFFFFFFFFFFFFFFFFFFFFFFFFFF AND EXTCODESIZE SUB PUSH2 0x1415 JUMPI DUP1 PUSH1 0x40 MLOAD PUSH32 0x4C9C8CE300000000000000000000000000000000000000000000000000000000 DUP2 MSTORE PUSH1 0x4 ADD PUSH2 0x140C SWAP2 SWAP1 PUSH2 0x19DD JUMP JUMPDEST PUSH1 0x40 MLOAD DUP1 SWAP2 SUB SWAP1 REVERT JUMPDEST DUP1 PUSH2 0x1441 PUSH32 0x360894A13BA1A3210667C828492DB98DCA3E2076CC3735A920A3CA505D382BBC PUSH0 SHL PUSH2 0x13B1 JUMP JUMPDEST PUSH0 ADD PUSH0 PUSH2 0x100 EXP DUP2 SLOAD DUP2 PUSH20 0xFFFFFFFFFFFFFFFFFFFFFFFFFFFFFFFFFFFFFFFF MUL NOT AND SWAP1 DUP4 PUSH20 0xFFFFFFFFFFFFFFFFFFFFFFFFFFFFFFFFFFFFFFFF AND MUL OR SWAP1 SSTORE POP POP JUMP JUMPDEST PUSH1 0x60 PUSH0 PUSH0 DUP5 PUSH20 0xFFFFFFFFFFFFFFFFFFFFFFFFFFFFFFFFFFFFFFFF AND DUP5 PUSH1 0x40 MLOAD PUSH2 0x14AC SWAP2 SWAP1 PUSH2 0x1F31 JUMP JUMPDEST PUSH0 PUSH1 0x40 MLOAD DUP1 DUP4 SUB DUP2 DUP6 GAS DELEGATECALL SWAP2 POP POP RETURNDATASIZE DUP1 PUSH0 DUP2 EQ PUSH2 0x14E4 JUMPI PUSH1 0x40 MLOAD SWAP2 POP PUSH1 0x1F NOT PUSH1 0x3F RETURNDATASIZE ADD AND DUP3 ADD PUSH1 0x40 MSTORE RETURNDATASIZE DUP3 MSTORE RETURNDATASIZE PUSH0 PUSH1 0x20 DUP5 ADD RETURNDATACOPY PUSH2 0x14E9 JUMP JUMPDEST PUSH1 0x60 SWAP2 POP JUMPDEST POP SWAP2 POP SWAP2 POP PUSH2 0x14F9 DUP6 DUP4 DUP4 PUSH2 0x155D JUMP JUMPDEST SWAP3 POP POP POP SWAP3 SWAP2 POP POP JUMP JUMPDEST PUSH0 CALLVALUE GT ISZERO PUSH2 0x153D JUMPI PUSH1 0x40 MLOAD PUSH32 0xB398979F00000000000000000000000000000000000000000000000000000000 DUP2 MSTORE PUSH1 0x4 ADD PUSH1 0x40 MLOAD DUP1 SWAP2 SUB SWAP1 REVERT JUMPDEST JUMP JUMPDEST PUSH0 PUSH2 0x1548 PUSH2 0x11C7 JUMP JUMPDEST PUSH0 ADD PUSH1 0x8 SWAP1 SLOAD SWAP1 PUSH2 0x100 EXP SWAP1 DIV PUSH1 0xFF AND SWAP1 POP SWAP1 JUMP JUMPDEST PUSH1 0x60 DUP3 PUSH2 0x1572 JUMPI PUSH2 0x156D DUP3 PUSH2 0x15EA JUMP JUMPDEST PUSH2 0x15E2 JUMP JUMPDEST PUSH0 DUP3 MLOAD EQ DUP1 ISZERO PUSH2 0x1598 JUMPI POP PUSH0 DUP5 PUSH20 0xFFFFFFFFFFFFFFFFFFFFFFFFFFFFFFFFFFFFFFFF AND EXTCODESIZE EQ JUMPDEST ISZERO PUSH2 0x15DA JUMPI DUP4 PUSH1 0x40 MLOAD PUSH32 0x9996B31500000000000000000000000000000000000000000000000000000000 DUP2 MSTORE PUSH1 0x4 ADD PUSH2 0x15D1 SWAP2 SWAP1 PUSH2 0x19DD JUMP JUMPDEST PUSH1 0x40 MLOAD DUP1 SWAP2 SUB SWAP1 REVERT JUMPDEST DUP2 SWAP1 POP PUSH2 0x15E3 JUMP JUMPDEST JUMPDEST SWAP4 SWAP3 POP POP POP JUMP JUMPDEST PUSH0 DUP2 MLOAD GT ISZERO PUSH2 0x15FB JUMPI DUP1 MLOAD PUSH1 0x20 DUP3 ADD REVERT JUMPDEST PUSH1 0x40 MLOAD PUSH32 0xD6BDA27500000000000000000000000000000000000000000000000000000000 DUP2 MSTORE PUSH1 0x4 ADD PUSH1 0x40 MLOAD DUP1 SWAP2 SUB SWAP1 REVERT JUMPDEST PUSH0 PUSH1 0x40 MLOAD SWAP1 POP SWAP1 JUMP JUMPDEST PUSH0 PUSH0 REVERT JUMPDEST PUSH0 PUSH0 REVERT JUMPDEST PUSH0 DUP2 SWAP1 POP SWAP2 SWAP1 POP JUMP JUMPDEST PUSH2 0x1650 DUP2 PUSH2 0x163E JUMP JUMPDEST DUP2 EQ PUSH2 0x165A JUMPI PUSH0 PUSH0 REVERT JUMPDEST POP JUMP JUMPDEST PUSH0 DUP2 CALLDATALOAD SWAP1 POP PUSH2 0x166B DUP2 PUSH2 0x1647 JUMP JUMPDEST SWAP3 SWAP2 POP POP JUMP JUMPDEST PUSH0 PUSH1 0x20 DUP3 DUP5 SUB SLT ISZERO PUSH2 0x1686 JUMPI PUSH2 0x1685 PUSH2 0x1636 JUMP JUMPDEST JUMPDEST PUSH0 PUSH2 0x1693 DUP5 DUP3 DUP6 ADD PUSH2 0x165D JUMP JUMPDEST SWAP2 POP POP SWAP3 SWAP2 POP POP JUMP JUMPDEST PUSH0 PUSH20 0xFFFFFFFFFFFFFFFFFFFFFFFFFFFFFFFFFFFFFFFF DUP3 AND SWAP1 POP SWAP2 SWAP1 POP JUMP JUMPDEST PUSH0 PUSH2 0x16C5 DUP3 PUSH2 0x169C JUMP JUMPDEST SWAP1 POP SWAP2 SWAP1 POP JUMP JUMPDEST PUSH2 0x16D5 DUP2 PUSH2 0x16BB JUMP JUMPDEST DUP3 MSTORE POP POP JUMP JUMPDEST PUSH0 DUP2 SWAP1 POP SWAP2 SWAP1 POP JUMP JUMPDEST PUSH2 0x16ED DUP2 PUSH2 0x16DB JUMP JUMPDEST DUP3 MSTORE POP POP JUMP JUMPDEST PUSH0 PUSH1 0x40 DUP3 ADD SWAP1 POP PUSH2 0x1706 PUSH0 DUP4 ADD DUP6 PUSH2 0x16CC JUMP JUMPDEST PUSH2 0x1713 PUSH1 0x20 DUP4 ADD DUP5 PUSH2 0x16E4 JUMP JUMPDEST SWAP4 SWAP3 POP POP POP JUMP JUMPDEST PUSH0 DUP2 ISZERO ISZERO SWAP1 POP SWAP2 SWAP1 POP JUMP JUMPDEST PUSH2 0x172E DUP2 PUSH2 0x171A JUMP JUMPDEST DUP3 MSTORE POP POP JUMP JUMPDEST PUSH0 PUSH1 0x20 DUP3 ADD SWAP1 POP PUSH2 0x1747 PUSH0 DUP4 ADD DUP5 PUSH2 0x1725 JUMP JUMPDEST SWAP3 SWAP2 POP POP JUMP JUMPDEST PUSH2 0x1756 DUP2 PUSH2 0x16BB JUMP JUMPDEST DUP2 EQ PUSH2 0x1760 JUMPI PUSH0 PUSH0 REVERT JUMPDEST POP JUMP JUMPDEST PUSH0 DUP2 CALLDATALOAD SWAP1 POP PUSH2 0x1771 DUP2 PUSH2 0x174D JUMP JUMPDEST SWAP3 SWAP2 POP POP JUMP JUMPDEST PUSH0 PUSH0 REVERT JUMPDEST PUSH0 PUSH0 REVERT JUMPDEST PUSH0 PUSH1 0x1F NOT PUSH1 0x1F DUP4 ADD AND SWAP1 POP SWAP2 SWAP1 POP JUMP JUMPDEST PUSH32 0x4E487B7100000000000000000000000000000000000000000000000000000000 PUSH0 MSTORE PUSH1 0x41 PUSH1 0x4 MSTORE PUSH1 0x24 PUSH0 REVERT JUMPDEST PUSH2 0x17C5 DUP3 PUSH2 0x177F JUMP JUMPDEST DUP2 ADD DUP2 DUP2 LT PUSH8 0xFFFFFFFFFFFFFFFF DUP3 GT OR ISZERO PUSH2 0x17E4 JUMPI PUSH2 0x17E3 PUSH2 0x178F JUMP JUMPDEST JUMPDEST DUP1 PUSH1 0x40 MSTORE POP POP POP JUMP JUMPDEST PUSH0 PUSH2 0x17F6 PUSH2 0x162D JUMP JUMPDEST SWAP1 POP PUSH2 0x1802 DUP3 DUP3 PUSH2 0x17BC JUMP JUMPDEST SWAP2 SWAP1 POP JUMP JUMPDEST PUSH0 PUSH8 0xFFFFFFFFFFFFFFFF DUP3 GT ISZERO PUSH2 0x1821 JUMPI PUSH2 0x1820 PUSH2 0x178F JUMP JUMPDEST JUMPDEST PUSH2 0x182A DUP3 PUSH2 0x177F JUMP JUMPDEST SWAP1 POP PUSH1 0x20 DUP2 ADD SWAP1 POP SWAP2 SWAP1 POP JUMP JUMPDEST DUP3 DUP2 DUP4 CALLDATACOPY PUSH0 DUP4 DUP4 ADD MSTORE POP POP POP JUMP JUMPDEST PUSH0 PUSH2 0x1857 PUSH2 0x1852 DUP5 PUSH2 0x1807 JUMP JUMPDEST PUSH2 0x17ED JUMP JUMPDEST SWAP1 POP DUP3 DUP2 MSTORE PUSH1 0x20 DUP2 ADD DUP5 DUP5 DUP5 ADD GT ISZERO PUSH2 0x1873 JUMPI PUSH2 0x1872 PUSH2 0x177B JUMP JUMPDEST JUMPDEST PUSH2 0x187E DUP5 DUP3 DUP6 PUSH2 0x1837 JUMP JUMPDEST POP SWAP4 SWAP3 POP POP POP JUMP JUMPDEST PUSH0 DUP3 PUSH1 0x1F DUP4 ADD SLT PUSH2 0x189A JUMPI PUSH2 0x1899 PUSH2 0x1777 JUMP JUMPDEST JUMPDEST DUP2 CALLDATALOAD PUSH2 0x18AA DUP5 DUP3 PUSH1 0x20 DUP7 ADD PUSH2 0x1845 JUMP JUMPDEST SWAP2 POP POP SWAP3 SWAP2 POP POP JUMP JUMPDEST PUSH0 PUSH0 PUSH1 0x40 DUP4 DUP6 SUB SLT ISZERO PUSH2 0x18C9 JUMPI PUSH2 0x18C8 PUSH2 0x1636 JUMP JUMPDEST JUMPDEST PUSH0 PUSH2 0x18D6 DUP6 DUP3 DUP7 ADD PUSH2 0x1763 JUMP JUMPDEST SWAP3 POP POP PUSH1 0x20 DUP4 ADD CALLDATALOAD PUSH8 0xFFFFFFFFFFFFFFFF DUP2 GT ISZERO PUSH2 0x18F7 JUMPI PUSH2 0x18F6 PUSH2 0x163A JUMP JUMPDEST JUMPDEST PUSH2 0x1903 DUP6 DUP3 DUP7 ADD PUSH2 0x1886 JUMP JUMPDEST SWAP2 POP POP SWAP3 POP SWAP3 SWAP1 POP JUMP JUMPDEST PUSH2 0x1916 DUP2 PUSH2 0x163E JUMP JUMPDEST DUP3 MSTORE POP POP JUMP JUMPDEST PUSH0 PUSH1 0x20 DUP3 ADD SWAP1 POP PUSH2 0x192F PUSH0 DUP4 ADD DUP5 PUSH2 0x190D JUMP JUMPDEST SWAP3 SWAP2 POP POP JUMP JUMPDEST PUSH0 PUSH0 REVERT JUMPDEST PUSH0 PUSH0 REVERT JUMPDEST PUSH0 PUSH0 DUP4 PUSH1 0x1F DUP5 ADD SLT PUSH2 0x1952 JUMPI PUSH2 0x1951 PUSH2 0x1777 JUMP JUMPDEST JUMPDEST DUP3 CALLDATALOAD SWAP1 POP PUSH8 0xFFFFFFFFFFFFFFFF DUP2 GT ISZERO PUSH2 0x196F JUMPI PUSH2 0x196E PUSH2 0x1935 JUMP JUMPDEST JUMPDEST PUSH1 0x20 DUP4 ADD SWAP2 POP DUP4 PUSH1 0x20 DUP3 MUL DUP4 ADD GT ISZERO PUSH2 0x198B JUMPI PUSH2 0x198A PUSH2 0x1939 JUMP JUMPDEST JUMPDEST SWAP3 POP SWAP3 SWAP1 POP JUMP JUMPDEST PUSH0 PUSH0 PUSH1 0x20 DUP4 DUP6 SUB SLT ISZERO PUSH2 0x19A8 JUMPI PUSH2 0x19A7 PUSH2 0x1636 JUMP JUMPDEST JUMPDEST PUSH0 DUP4 ADD CALLDATALOAD PUSH8 0xFFFFFFFFFFFFFFFF DUP2 GT ISZERO PUSH2 0x19C5 JUMPI PUSH2 0x19C4 PUSH2 0x163A JUMP JUMPDEST JUMPDEST PUSH2 0x19D1 DUP6 DUP3 DUP7 ADD PUSH2 0x193D JUMP JUMPDEST SWAP3 POP SWAP3 POP POP SWAP3 POP SWAP3 SWAP1 POP JUMP JUMPDEST PUSH0 PUSH1 0x20 DUP3 ADD SWAP1 POP PUSH2 0x19F0 PUSH0 DUP4 ADD DUP5 PUSH2 0x16CC JUMP JUMPDEST SWAP3 SWAP2 POP POP JUMP JUMPDEST PUSH0 DUP2 MLOAD SWAP1 POP SWAP2 SWAP1 POP JUMP JUMPDEST PUSH0 DUP3 DUP3 MSTORE PUSH1 0x20 DUP3 ADD SWAP1 POP SWAP3 SWAP2 POP POP JUMP JUMPDEST DUP3 DUP2 DUP4 MCOPY PUSH0 DUP4 DUP4 ADD MSTORE POP POP POP JUMP JUMPDEST PUSH0 PUSH2 0x1A28 DUP3 PUSH2 0x19F6 JUMP JUMPDEST PUSH2 0x1A32 DUP2 DUP6 PUSH2 0x1A00 JUMP JUMPDEST SWAP4 POP PUSH2 0x1A42 DUP2 DUP6 PUSH1 0x20 DUP7 ADD PUSH2 0x1A10 JUMP JUMPDEST PUSH2 0x1A4B DUP2 PUSH2 0x177F JUMP JUMPDEST DUP5 ADD SWAP2 POP POP SWAP3 SWAP2 POP POP JUMP JUMPDEST PUSH0 PUSH1 0x20 DUP3 ADD SWAP1 POP DUP2 DUP2 SUB PUSH0 DUP4 ADD MSTORE PUSH2 0x1A6E DUP2 DUP5 PUSH2 0x1A1E JUMP JUMPDEST SWAP1 POP SWAP3 SWAP2 POP POP JUMP JUMPDEST PUSH0 PUSH1 0x20 DUP3 DUP5 SUB SLT ISZERO PUSH2 0x1A8B JUMPI PUSH2 0x1A8A PUSH2 0x1636 JUMP JUMPDEST JUMPDEST PUSH0 PUSH2 0x1A98 DUP5 DUP3 DUP6 ADD PUSH2 0x1763 JUMP JUMPDEST SWAP2 POP POP SWAP3 SWAP2 POP POP JUMP JUMPDEST PUSH0 PUSH0 PUSH1 0x40 DUP4 DUP6 SUB SLT ISZERO PUSH2 0x1AB7 JUMPI PUSH2 0x1AB6 PUSH2 0x1636 JUMP JUMPDEST JUMPDEST PUSH0 PUSH2 0x1AC4 DUP6 DUP3 DUP7 ADD PUSH2 0x165D JUMP JUMPDEST SWAP3 POP POP PUSH1 0x20 PUSH2 0x1AD5 DUP6 DUP3 DUP7 ADD PUSH2 0x1763 JUMP JUMPDEST SWAP2 POP POP SWAP3 POP SWAP3 SWAP1 POP JUMP JUMPDEST PUSH32 0x4E487B7100000000000000000000000000000000000000000000000000000000 PUSH0 MSTORE PUSH1 0x32 PUSH1 0x4 MSTORE PUSH1 0x24 PUSH0 REVERT JUMPDEST PUSH32 0x496E76616C696420686173680000000000000000000000000000000000000000 PUSH0 DUP3 ADD MSTORE POP JUMP JUMPDEST PUSH0 PUSH2 0x1B40 PUSH1 0xC DUP4 PUSH2 0x1A00 JUMP JUMPDEST SWAP2 POP PUSH2 0x1B4B DUP3 PUSH2 0x1B0C JUMP JUMPDEST PUSH1 0x20 DUP3 ADD SWAP1 POP SWAP2 SWAP1 POP JUMP JUMPDEST PUSH0 PUSH1 0x20 DUP3 ADD SWAP1 POP DUP2 DUP2 SUB PUSH0 DUP4 ADD MSTORE PUSH2 0x1B6D DUP2 PUSH2 0x1B34 JUMP JUMPDEST SWAP1 POP SWAP2 SWAP1 POP JUMP JUMPDEST PUSH32 0x416C726561647920726567697374657265640000000000000000000000000000 PUSH0 DUP3 ADD MSTORE POP JUMP JUMPDEST PUSH0 PUSH2 0x1BA8 PUSH1 0x12 DUP4 PUSH2 0x1A00 JUMP JUMPDEST SWAP2 POP PUSH2 0x1BB3 DUP3 PUSH2 0x1B74 JUMP JUMPDEST PUSH1 0x20 DUP3 ADD SWAP1 POP SWAP2 SWAP1 POP JUMP JUMPDEST PUSH0 PUSH1 0x20 DUP3 ADD SWAP1 POP DUP2 DUP2 SUB PUSH0 DUP4 ADD MSTORE PUSH2 0x1BD5 DUP2 PUSH2 0x1B9C JUMP JUMPDEST SWAP1 POP SWAP2 SWAP1 POP JUMP JUMPDEST PUSH0 PUSH10 0xFFFFFFFFFFFFFFFFFFFF DUP3 AND SWAP1 POP SWAP2 SWAP1 POP JUMP JUMPDEST PUSH2 0x1BFA DUP2 PUSH2 0x1BDC JUMP JUMPDEST DUP2 EQ PUSH2 0x1C04 JUMPI PUSH0 PUSH0 REVERT JUMPDEST POP JUMP JUMPDEST PUSH0 DUP2 MLOAD SWAP1 POP PUSH2 0x1C15 DUP2 PUSH2 0x1BF1 JUMP JUMPDEST SWAP3 SWAP2 POP POP JUMP JUMPDEST PUSH0 DUP2 SWAP1 POP SWAP2 SWAP1 POP JUMP JUMPDEST PUSH2 0x1C2D DUP2 PUSH2 0x1C1B JUMP JUMPDEST DUP2 EQ PUSH2 0x1C37 JUMPI PUSH0 PUSH0 REVERT JUMPDEST POP JUMP JUMPDEST PUSH0 DUP2 MLOAD SWAP1 POP PUSH2 0x1C48 DUP2 PUSH2 0x1C24 JUMP JUMPDEST SWAP3 SWAP2 POP POP JUMP JUMPDEST PUSH2 0x1C57 DUP2 PUSH2 0x16DB JUMP JUMPDEST DUP2 EQ PUSH2 0x1C61 JUMPI PUSH0 PUSH0 REVERT JUMPDEST POP JUMP JUMPDEST PUSH0 DUP2 MLOAD SWAP1 POP PUSH2 0x1C72 DUP2 PUSH2 0x1C4E JUMP JUMPDEST SWAP3 SWAP2 POP POP JUMP JUMPDEST PUSH0 PUSH0 PUSH0 PUSH0 PUSH0 PUSH1 0xA0 DUP7 DUP9 SUB SLT ISZERO PUSH2 0x1C91 JUMPI PUSH2 0x1C90 PUSH2 0x1636 JUMP JUMPDEST JUMPDEST PUSH0 PUSH2 0x1C9E DUP9 DUP3 DUP10 ADD PUSH2 0x1C07 JUMP JUMPDEST SWAP6 POP POP PUSH1 0x20 PUSH2 0x1CAF DUP9 DUP3 DUP10 ADD PUSH2 0x1C3A JUMP JUMPDEST SWAP5 POP POP PUSH1 0x40 PUSH2 0x1CC0 DUP9 DUP3 DUP10 ADD PUSH2 0x1C64 JUMP JUMPDEST SWAP4 POP POP PUSH1 0x60 PUSH2 0x1CD1 DUP9 DUP3 DUP10 ADD PUSH2 0x1C64 JUMP JUMPDEST SWAP3 POP POP PUSH1 0x80 PUSH2 0x1CE2 DUP9 DUP3 DUP10 ADD PUSH2 0x1C07 JUMP JUMPDEST SWAP2 POP POP SWAP3 SWAP6 POP SWAP3 SWAP6 SWAP1 SWAP4 POP JUMP JUMPDEST PUSH32 0x496E76616C69642074696D657374616D702066726F6D206F7261636C65000000 PUSH0 DUP3 ADD MSTORE POP JUMP JUMPDEST PUSH0 PUSH2 0x1D23 PUSH1 0x1D DUP4 PUSH2 0x1A00 JUMP JUMPDEST SWAP2 POP PUSH2 0x1D2E DUP3 PUSH2 0x1CEF JUMP JUMPDEST PUSH1 0x20 DUP3 ADD SWAP1 POP SWAP2 SWAP1 POP JUMP JUMPDEST PUSH0 PUSH1 0x20 DUP3 ADD SWAP1 POP DUP2 DUP2 SUB PUSH0 DUP4 ADD MSTORE PUSH2 0x1D50 DUP2 PUSH2 0x1D17 JUMP JUMPDEST SWAP1 POP SWAP2 SWAP1 POP JUMP JUMPDEST PUSH0 PUSH1 0x20 DUP3 ADD SWAP1 POP PUSH2 0x1D6A PUSH0 DUP4 ADD DUP5 PUSH2 0x16E4 JUMP JUMPDEST SWAP3 SWAP2 POP POP JUMP JUMPDEST PUSH0 DUP2 SWAP1 POP SWAP2 SWAP1 POP JUMP JUMPDEST PUSH0 PUSH8 0xFFFFFFFFFFFFFFFF DUP3 AND SWAP1 POP SWAP2 SWAP1 POP JUMP JUMPDEST PUSH0 DUP2 SWAP1 POP SWAP2 SWAP1 POP JUMP JUMPDEST PUSH0 PUSH2 0x1DAF PUSH2 0x1DAA PUSH2 0x1DA5 DUP5 PUSH2 0x1D70 JUMP JUMPDEST PUSH2 0x1D8C JUMP JUMPDEST PUSH2 0x1D79 JUMP JUMPDEST SWAP1 POP SWAP2 SWAP1 POP JUMP JUMPDEST PUSH2 0x1DBF DUP2 PUSH2 0x1D95 JUMP JUMPDEST DUP3 MSTORE POP POP JUMP JUMPDEST PUSH0 PUSH1 0x20 DUP3 ADD SWAP1 POP PUSH2 0x1DD8 PUSH0 DUP4 ADD DUP5 PUSH2 0x1DB6 JUMP JUMPDEST SWAP3 SWAP2 POP POP JUMP JUMPDEST PUSH32 0x4E6F7420746865206F776E657200000000000000000000000000000000000000 PUSH0 DUP3 ADD MSTORE POP JUMP JUMPDEST PUSH0 PUSH2 0x1E12 PUSH1 0xD DUP4 PUSH2 0x1A00 JUMP JUMPDEST SWAP2 POP PUSH2 0x1E1D DUP3 PUSH2 0x1DDE JUMP JUMPDEST PUSH1 0x20 DUP3 ADD SWAP1 POP SWAP2 SWAP1 POP JUMP JUMPDEST PUSH0 PUSH1 0x20 DUP3 ADD SWAP1 POP DUP2 DUP2 SUB PUSH0 DUP4 ADD MSTORE PUSH2 0x1E3F DUP2 PUSH2 0x1E06 JUMP JUMPDEST SWAP1 POP SWAP2 SWAP1 POP JUMP JUMPDEST PUSH32 0x496E76616C6964206E6577206F776E6572000000000000000000000000000000 PUSH0 DUP3 ADD MSTORE POP JUMP JUMPDEST PUSH0 PUSH2 0x1E7A PUSH1 0x11 DUP4 PUSH2 0x1A00 JUMP JUMPDEST SWAP2 POP PUSH2 0x1E85 DUP3 PUSH2 0x1E46 JUMP JUMPDEST PUSH1 0x20 DUP3 ADD SWAP1 POP SWAP2 SWAP1 POP JUMP JUMPDEST PUSH0 PUSH1 0x20 DUP3 ADD SWAP1 POP DUP2 DUP2 SUB PUSH0 DUP4 ADD MSTORE PUSH2 0x1EA7 DUP2 PUSH2 0x1E6E JUMP JUMPDEST SWAP1 POP SWAP2 SWAP1 POP JUMP JUMPDEST PUSH0 DUP2 MLOAD SWAP1 POP PUSH2 0x1EBC DUP2 PUSH2 0x1647 JUMP JUMPDEST SWAP3 SWAP2 POP POP JUMP JUMPDEST PUSH0 PUSH1 0x20 DUP3 DUP5 SUB SLT ISZERO PUSH2 0x1ED7 JUMPI PUSH2 0x1ED6 PUSH2 0x1636 JUMP JUMPDEST JUMPDEST PUSH0 PUSH2 0x1EE4 DUP5 DUP3 DUP6 ADD PUSH2 0x1EAE JUMP JUMPDEST SWAP2 POP POP SWAP3 SWAP2 POP POP JUMP JUMPDEST PUSH0 DUP2 MLOAD SWAP1 POP SWAP2 SWAP1 POP JUMP JUMPDEST PUSH0 DUP2 SWAP1 POP SWAP3 SWAP2 POP POP JUMP JUMPDEST PUSH0 PUSH2 0x1F0B DUP3 PUSH2 0x1EED JUMP JUMPDEST PUSH2 0x1F15 DUP2 DUP6 PUSH2 0x1EF7 JUMP JUMPDEST SWAP4 POP PUSH2 0x1F25 DUP2 DUP6 PUSH1 0x20 DUP7 ADD PUSH2 0x1A10 JUMP JUMPDEST DUP1 DUP5 ADD SWAP2 POP POP SWAP3 SWAP2 POP POP JUMP JUMPDEST PUSH0 PUSH2 0x1F3C DUP3 DUP5 PUSH2 0x1F01 JUMP JUMPDEST SWAP2 POP DUP2 SWAP1 POP SWAP3 SWAP2 POP POP JUMP INVALID LOG2 PUSH5 0x6970667358 0x22 SLT KECCAK256 0xAA EXTCALL PUSH17 0xC982C53AA3E7F4EB1C1CC14AF8CABD8BF2 0x2C SWAP15 DUP6 GT DELEGATECALL SWAP13 DUP12 BASEFEE SWAP2 SHL GT SWAP13 PUSH5 0x736F6C6343 STOP ADDMOD 0x1E STOP CALLER "
				},
				"gasEstimates": {
					"creation": {
						"codeDepositCost": "1612200",
						"executionCost": "infinite",
						"totalCost": "infinite"
					},
					"external": {
						"UPGRADE_INTERFACE_VERSION()": "infinite",
						"batchRegister(bytes32[])": "infinite",
						"getRecord(bytes32)": "5197",
						"initialize(address)": "infinite",
						"isRegistered(bytes32)": "2834",
						"owner()": "2611",
						"proxiableUUID()": "infinite",
						"records(bytes32)": "5062",
						"register(bytes32)": "infinite",
						"renounceOwnership()": "infinite",
						"transferOwnership(address)": "infinite",
						"transferOwnership(bytes32,address)": "29238",
						"upgradeToAndCall(address,bytes)": "infinite"
					},
					"internal": {
						"_authorizeUpgrade(address)": "infinite"
					}
				},
				"methodIdentifiers": {
					"UPGRADE_INTERFACE_VERSION()": "ad3cb1cc",
					"batchRegister(bytes32[])": "57b77c64",
					"getRecord(bytes32)": "213681cd",
					"initialize(address)": "c4d66de8",
					"isRegistered(bytes32)": "27258b22",
					"owner()": "8da5cb5b",
					"proxiableUUID()": "52d1902d",
					"records(bytes32)": "01e64725",
					"register(bytes32)": "e1fa8e84",
					"renounceOwnership()": "715018a6",
					"transferOwnership(address)": "f2fde38b",
					"transferOwnership(bytes32,address)": "ef5d6bbb",
					"upgradeToAndCall(address,bytes)": "4f1ef286"
				}
			},
			"storageLayout": {
				"storage": [
					{
						"astId": 1498,
						"contract": "contracts/ChronaxRegistry.sol:ChronaXRegistryV2",
						"label": "priceFeed",
						"offset": 0,
						"slot": "0",
						"type": "t_contract(AggregatorV3Interface)45"
					},
					{
						"astId": 1503,
						"contract": "contracts/ChronaxRegistry.sol:ChronaXRegistryV2",
						"label": "records",
						"offset": 0,
						"slot": "1",
						"type": "t_mapping(t_bytes32,t_struct(Record)1495_storage)"
					}
				],
				"types": {
					"t_address": {
						"encoding": "inplace",
						"label": "address",
						"numberOfBytes": "20"
					},
					"t_bytes32": {
						"encoding": "inplace",
						"label": "bytes32",
						"numberOfBytes": "32"
					},
					"t_contract(AggregatorV3Interface)45": {
						"encoding": "inplace",
						"label": "contract AggregatorV3Interface",
						"numberOfBytes": "20"
					},
					"t_mapping(t_bytes32,t_struct(Record)1495_storage)": {
						"encoding": "mapping",
						"key": "t_bytes32",
						"label": "mapping(bytes32 => struct ChronaXRegistryV2.Record)",
						"numberOfBytes": "32",
						"value": "t_struct(Record)1495_storage"
					},
					"t_struct(Record)1495_storage": {
						"encoding": "inplace",
						"label": "struct ChronaXRegistryV2.Record",
						"members": [
							{
								"astId": 1492,
								"contract": "contracts/ChronaxRegistry.sol:ChronaXRegistryV2",
								"label": "owner",
								"offset": 0,
								"slot": "0",
								"type": "t_address"
							},
							{
								"astId": 1494,
								"contract": "contracts/ChronaxRegistry.sol:ChronaXRegistryV2",
								"label": "timestamp",
								"offset": 0,
								"slot": "1",
								"type": "t_uint256"
							}
						],
						"numberOfBytes": "64"
					},
					"t_uint256": {
						"encoding": "inplace",
						"label": "uint256",
						"numberOfBytes": "32"
					}
				}
			},
			"userdoc": {
				"kind": "user",
				"methods": {
					"batchRegister(bytes32[])": {
						"notice": "Batch register multiple hashes (gas optimization)"
					},
					"getRecord(bytes32)": {
						"notice": "Get info (owner + timestamp)"
					},
					"initialize(address)": {
						"notice": "Initialize the contract (for upgradeable proxy)"
					},
					"isRegistered(bytes32)": {
						"notice": "Check if a hash already exists"
					},
					"register(bytes32)": {
						"notice": "Register a document hash (only owner can call)"
					},
					"transferOwnership(bytes32,address)": {
						"notice": "Transfer ownership of a registered hash"
					}
				},
				"notice": "Upgraded Proof-of-Existence timestamp registry for ChronaX with access control, oracle timestamp, and transfer functionality.",
				"version": 1
			}
		}
	}
}