{
	"contracts/ChronaxRegistry.sol": {
		"ChronaXRegistry": {
			"abi": [
				{
					"anonymous": false,
					"inputs": [
						{
							"indexed": true,
							"internalType": "bytes32",
							"name": "docHash",
							"type": "bytes32"
						},
						{
							"indexed": true,
							"internalType": "address",
							"name": "owner",
							"type": "address"
						},
						{
							"indexed": false,
							"internalType": "uint256",
							"name": "timestamp",
							"type": "uint256"
						}
					],
					"name": "DocumentRegistered",
					"type": "event"
				},
				{
					"inputs": [
						{
							"internalType": "bytes32",
							"name": "docHash",
							"type": "bytes32"
						}
					],
					"name": "getRecord",
					"outputs": [
						{
							"internalType": "address",
							"name": "",
							"type": "address"
						},
						{
							"internalType": "uint256",
							"name": "",
							"type": "uint256"
						}
					],
					"stateMutability": "view",
					"type": "function"
				},
				{
					"inputs": [
						{
							"internalType": "bytes32",
							"name": "docHash",
							"type": "bytes32"
						}
					],
					"name": "isRegistered",
					"outputs": [
						{
							"internalType": "bool",
							"name": "",
							"type": "bool"
						}
					],
					"stateMutability": "view",
					"type": "function"
				},
				{
					"inputs": [
						{
							"internalType": "bytes32",
							"name": "",
							"type": "bytes32"
						}
					],
					"name": "records",
					"outputs": [
						{
							"internalType": "address",
							"name": "owner",
							"type": "address"
						},
						{
							"internalType": "uint256",
							"name": "timestamp",
							"type": "uint256"
						}
					],
					"stateMutability": "view",
					"type": "function"
				},
				{
					"inputs": [
						{
							"internalType": "bytes32",
							"name": "docHash",
							"type": "bytes32"
						}
					],
					"name": "register",
					"outputs": [],
					"stateMutability": "nonpayable",
					"type": "function"
				}
			],
			"devdoc": {
				"author": "Thopaz Arief Malino",
				"kind": "dev",
				"methods": {
					"register(bytes32)": {
						"params": {
							"docHash": "SHA-256 hash of the file"
						}
					}
				},
				"title": "ChronaXRegistry",
				"version": 1
			},
			"evm": {
				"assembly": "    /* \"contracts/ChronaxRegistry.sol\":186:1312  contract ChronaXRegistry {... */\n  mstore(0x40, 0x80)\n  callvalue\n  dup1\n  iszero\n  tag_1\n  jumpi\n  0x00\n  dup1\n  revert\ntag_1:\n  pop\n  dataSize(sub_0)\n  dup1\n  dataOffset(sub_0)\n  0x00\n  codecopy\n  0x00\n  return\nstop\n\nsub_0: assembly {\n        /* \"contracts/ChronaxRegistry.sol\":186:1312  contract ChronaXRegistry {... */\n      mstore(0x40, 0x80)\n      callvalue\n      dup1\n      iszero\n      tag_1\n      jumpi\n      0x00\n      dup1\n      revert\n    tag_1:\n      pop\n      jumpi(tag_2, lt(calldatasize, 0x04))\n      shr(0xe0, calldataload(0x00))\n      dup1\n      0x01e64725\n      eq\n      tag_3\n      jumpi\n      dup1\n      0x213681cd\n      eq\n      tag_4\n      jumpi\n      dup1\n      0x27258b22\n      eq\n      tag_5\n      jumpi\n      dup1\n      0xe1fa8e84\n      eq\n      tag_6\n      jumpi\n    tag_2:\n      0x00\n      dup1\n      revert\n        /* \"contracts/ChronaxRegistry.sol\":322:363  mapping(bytes32 => Record) public records */\n    tag_3:\n      tag_7\n      0x04\n      dup1\n      calldatasize\n      sub\n      dup2\n      add\n      swap1\n      tag_8\n      swap2\n      swap1\n      tag_9\n      jump\t// in\n    tag_8:\n      tag_10\n      jump\t// in\n    tag_7:\n      mload(0x40)\n      tag_11\n      swap3\n      swap2\n      swap1\n      tag_12\n      jump\t// in\n    tag_11:\n      mload(0x40)\n      dup1\n      swap2\n      sub\n      swap1\n      return\n        /* \"contracts/ChronaxRegistry.sol\":1137:1310  function getRecord(bytes32 docHash) external view returns (address, uint256) {... */\n    tag_4:\n      tag_13\n      0x04\n      dup1\n      calldatasize\n      sub\n      dup2\n      add\n      swap1\n      tag_14\n      swap2\n      swap1\n      tag_9\n      jump\t// in\n    tag_14:\n      tag_15\n      jump\t// in\n    tag_13:\n      mload(0x40)\n      tag_16\n      swap3\n      swap2\n      swap1\n      tag_12\n      jump\t// in\n    tag_16:\n      mload(0x40)\n      dup1\n      swap2\n      sub\n      swap1\n      return\n        /* \"contracts/ChronaxRegistry.sol\":948:1071  function isRegistered(bytes32 docHash) external view returns (bool) {... */\n    tag_5:\n      tag_17\n      0x04\n      dup1\n      calldatasize\n      sub\n      dup2\n      add\n      swap1\n      tag_18\n      swap2\n      swap1\n      tag_9\n      jump\t// in\n    tag_18:\n      tag_19\n      jump\t// in\n    tag_17:\n      mload(0x40)\n      tag_20\n      swap2\n      swap1\n      tag_21\n      jump\t// in\n    tag_20:\n      mload(0x40)\n      dup1\n      swap2\n      sub\n      swap1\n      return\n        /* \"contracts/ChronaxRegistry.sol\":571:880  function register(bytes32 docHash) external {... */\n    tag_6:\n      tag_22\n      0x04\n      dup1\n      calldatasize\n      sub\n      dup2\n      add\n      swap1\n      tag_23\n      swap2\n      swap1\n      tag_9\n      jump\t// in\n    tag_23:\n      tag_24\n      jump\t// in\n    tag_22:\n      stop\n        /* \"contracts/ChronaxRegistry.sol\":322:363  mapping(bytes32 => Record) public records */\n    tag_10:\n      mstore(0x20, 0x00)\n      dup1\n      0x00\n      mstore\n      keccak256(0x00, 0x40)\n      0x00\n      swap2\n      pop\n      swap1\n      pop\n      dup1\n      0x00\n      add\n      0x00\n      swap1\n      sload\n      swap1\n      0x0100\n      exp\n      swap1\n      div\n      0xffffffffffffffffffffffffffffffffffffffff\n      and\n      swap1\n      dup1\n      0x01\n      add\n      sload\n      swap1\n      pop\n      dup3\n      jump\t// out\n        /* \"contracts/ChronaxRegistry.sol\":1137:1310  function getRecord(bytes32 docHash) external view returns (address, uint256) {... */\n    tag_15:\n        /* \"contracts/ChronaxRegistry.sol\":1196:1203  address */\n      0x00\n        /* \"contracts/ChronaxRegistry.sol\":1205:1212  uint256 */\n      dup1\n        /* \"contracts/ChronaxRegistry.sol\":1224:1241  Record memory rec */\n      0x00\n        /* \"contracts/ChronaxRegistry.sol\":1244:1251  records */\n      dup1\n        /* \"contracts/ChronaxRegistry.sol\":1244:1260  records[docHash] */\n      0x00\n        /* \"contracts/ChronaxRegistry.sol\":1252:1259  docHash */\n      dup6\n        /* \"contracts/ChronaxRegistry.sol\":1244:1260  records[docHash] */\n      dup2\n      mstore\n      0x20\n      add\n      swap1\n      dup2\n      mstore\n      0x20\n      add\n      0x00\n      keccak256\n        /* \"contracts/ChronaxRegistry.sol\":1224:1260  Record memory rec = records[docHash] */\n      mload(0x40)\n      dup1\n      0x40\n      add\n      0x40\n      mstore\n      swap1\n      dup2\n      0x00\n      dup3\n      add\n      0x00\n      swap1\n      sload\n      swap1\n      0x0100\n      exp\n      swap1\n      div\n      0xffffffffffffffffffffffffffffffffffffffff\n      and\n      0xffffffffffffffffffffffffffffffffffffffff\n      and\n      0xffffffffffffffffffffffffffffffffffffffff\n      and\n      dup2\n      mstore\n      0x20\n      add\n      0x01\n      dup3\n      add\n      sload\n      dup2\n      mstore\n      pop\n      pop\n      swap1\n      pop\n        /* \"contracts/ChronaxRegistry.sol\":1278:1281  rec */\n      dup1\n        /* \"contracts/ChronaxRegistry.sol\":1278:1287  rec.owner */\n      0x00\n      add\n      mload\n        /* \"contracts/ChronaxRegistry.sol\":1289:1292  rec */\n      dup2\n        /* \"contracts/ChronaxRegistry.sol\":1289:1302  rec.timestamp */\n      0x20\n      add\n      mload\n        /* \"contracts/ChronaxRegistry.sol\":1270:1303  return (rec.owner, rec.timestamp) */\n      swap3\n      pop\n      swap3\n      pop\n      pop\n        /* \"contracts/ChronaxRegistry.sol\":1137:1310  function getRecord(bytes32 docHash) external view returns (address, uint256) {... */\n      swap2\n      pop\n      swap2\n      jump\t// out\n        /* \"contracts/ChronaxRegistry.sol\":948:1071  function isRegistered(bytes32 docHash) external view returns (bool) {... */\n    tag_19:\n        /* \"contracts/ChronaxRegistry.sol\":1010:1014  bool */\n      0x00\n        /* \"contracts/ChronaxRegistry.sol\":1063:1064  0 */\n      dup1\n        /* \"contracts/ChronaxRegistry.sol\":1033:1040  records */\n      0x00\n        /* \"contracts/ChronaxRegistry.sol\":1033:1049  records[docHash] */\n      dup1\n        /* \"contracts/ChronaxRegistry.sol\":1041:1048  docHash */\n      dup5\n        /* \"contracts/ChronaxRegistry.sol\":1033:1049  records[docHash] */\n      dup2\n      mstore\n      0x20\n      add\n      swap1\n      dup2\n      mstore\n      0x20\n      add\n      0x00\n      keccak256\n        /* \"contracts/ChronaxRegistry.sol\":1033:1059  records[docHash].timestamp */\n      0x01\n      add\n      sload\n        /* \"contracts/ChronaxRegistry.sol\":1033:1064  records[docHash].timestamp != 0 */\n      eq\n      iszero\n        /* \"contracts/ChronaxRegistry.sol\":1026:1064  return records[docHash].timestamp != 0 */\n      swap1\n      pop\n        /* \"contracts/ChronaxRegistry.sol\":948:1071  function isRegistered(bytes32 docHash) external view returns (bool) {... */\n      swap2\n      swap1\n      pop\n      jump\t// out\n        /* \"contracts/ChronaxRegistry.sol\":571:880  function register(bytes32 docHash) external {... */\n    tag_24:\n        /* \"contracts/ChronaxRegistry.sol\":644:647  0x0 */\n      0x00\n        /* \"contracts/ChronaxRegistry.sol\":633:647  docHash != 0x0 */\n      dup1\n      shl\n        /* \"contracts/ChronaxRegistry.sol\":633:640  docHash */\n      dup2\n        /* \"contracts/ChronaxRegistry.sol\":633:647  docHash != 0x0 */\n      sub\n        /* \"contracts/ChronaxRegistry.sol\":625:664  require(docHash != 0x0, \"Invalid hash\") */\n      tag_28\n      jumpi\n      mload(0x40)\n      0x08c379a000000000000000000000000000000000000000000000000000000000\n      dup2\n      mstore\n      0x04\n      add\n      tag_29\n      swap1\n      tag_30\n      jump\t// in\n    tag_29:\n      mload(0x40)\n      dup1\n      swap2\n      sub\n      swap1\n      revert\n    tag_28:\n        /* \"contracts/ChronaxRegistry.sol\":712:713  0 */\n      0x00\n        /* \"contracts/ChronaxRegistry.sol\":682:689  records */\n      dup1\n        /* \"contracts/ChronaxRegistry.sol\":682:698  records[docHash] */\n      0x00\n        /* \"contracts/ChronaxRegistry.sol\":690:697  docHash */\n      dup4\n        /* \"contracts/ChronaxRegistry.sol\":682:698  records[docHash] */\n      dup2\n      mstore\n      0x20\n      add\n      swap1\n      dup2\n      mstore\n      0x20\n      add\n      0x00\n      keccak256\n        /* \"contracts/ChronaxRegistry.sol\":682:708  records[docHash].timestamp */\n      0x01\n      add\n      sload\n        /* \"contracts/ChronaxRegistry.sol\":682:713  records[docHash].timestamp == 0 */\n      eq\n        /* \"contracts/ChronaxRegistry.sol\":674:736  require(records[docHash].timestamp == 0, \"Already registered\") */\n      tag_31\n      jumpi\n      mload(0x40)\n      0x08c379a000000000000000000000000000000000000000000000000000000000\n      dup2\n      mstore\n      0x04\n      add\n      tag_32\n      swap1\n      tag_33\n      jump\t// in\n    tag_32:\n      mload(0x40)\n      dup1\n      swap2\n      sub\n      swap1\n      revert\n    tag_31:\n        /* \"contracts/ChronaxRegistry.sol\":766:801  Record(msg.sender, block.timestamp) */\n      mload(0x40)\n      dup1\n      0x40\n      add\n      0x40\n      mstore\n      dup1\n        /* \"contracts/ChronaxRegistry.sol\":773:783  msg.sender */\n      caller\n        /* \"contracts/ChronaxRegistry.sol\":766:801  Record(msg.sender, block.timestamp) */\n      0xffffffffffffffffffffffffffffffffffffffff\n      and\n      dup2\n      mstore\n      0x20\n      add\n        /* \"contracts/ChronaxRegistry.sol\":785:800  block.timestamp */\n      timestamp\n        /* \"contracts/ChronaxRegistry.sol\":766:801  Record(msg.sender, block.timestamp) */\n      dup2\n      mstore\n      pop\n        /* \"contracts/ChronaxRegistry.sol\":747:754  records */\n      0x00\n        /* \"contracts/ChronaxRegistry.sol\":747:763  records[docHash] */\n      dup1\n        /* \"contracts/ChronaxRegistry.sol\":755:762  docHash */\n      dup4\n        /* \"contracts/ChronaxRegistry.sol\":747:763  records[docHash] */\n      dup2\n      mstore\n      0x20\n      add\n      swap1\n      dup2\n      mstore\n      0x20\n      add\n      0x00\n      keccak256\n        /* \"contracts/ChronaxRegistry.sol\":747:801  records[docHash] = Record(msg.sender, block.timestamp) */\n      0x00\n      dup3\n      add\n      mload\n      dup2\n      0x00\n      add\n      exp(0x0100, 0x00)\n      dup2\n      sload\n      dup2\n      0xffffffffffffffffffffffffffffffffffffffff\n      mul\n      not\n      and\n      swap1\n      dup4\n      0xffffffffffffffffffffffffffffffffffffffff\n      and\n      mul\n      or\n      swap1\n      sstore\n      pop\n      0x20\n      dup3\n      add\n      mload\n      dup2\n      0x01\n      add\n      sstore\n      swap1\n      pop\n      pop\n        /* \"contracts/ChronaxRegistry.sol\":845:855  msg.sender */\n      caller\n        /* \"contracts/ChronaxRegistry.sol\":817:873  DocumentRegistered(docHash, msg.sender, block.timestamp) */\n      0xffffffffffffffffffffffffffffffffffffffff\n      and\n        /* \"contracts/ChronaxRegistry.sol\":836:843  docHash */\n      dup2\n        /* \"contracts/ChronaxRegistry.sol\":817:873  DocumentRegistered(docHash, msg.sender, block.timestamp) */\n      0x6569e54c43a697fc61e67763858d5abef16899d2b13215c7c07090aa878b24a8\n        /* \"contracts/ChronaxRegistry.sol\":857:872  block.timestamp */\n      timestamp\n        /* \"contracts/ChronaxRegistry.sol\":817:873  DocumentRegistered(docHash, msg.sender, block.timestamp) */\n      mload(0x40)\n      tag_34\n      swap2\n      swap1\n      tag_35\n      jump\t// in\n    tag_34:\n      mload(0x40)\n      dup1\n      swap2\n      sub\n      swap1\n      log3\n        /* \"contracts/ChronaxRegistry.sol\":571:880  function register(bytes32 docHash) external {... */\n      pop\n      jump\t// out\n        /* \"#utility.yul\":88:205   */\n    tag_37:\n        /* \"#utility.yul\":197:198   */\n      0x00\n        /* \"#utility.yul\":194:195   */\n      dup1\n        /* \"#utility.yul\":187:199   */\n      revert\n        /* \"#utility.yul\":334:411   */\n    tag_39:\n        /* \"#utility.yul\":371:378   */\n      0x00\n        /* \"#utility.yul\":400:405   */\n      dup2\n        /* \"#utility.yul\":389:405   */\n      swap1\n      pop\n        /* \"#utility.yul\":334:411   */\n      swap2\n      swap1\n      pop\n      jump\t// out\n        /* \"#utility.yul\":417:539   */\n    tag_40:\n        /* \"#utility.yul\":490:514   */\n      tag_60\n        /* \"#utility.yul\":508:513   */\n      dup2\n        /* \"#utility.yul\":490:514   */\n      tag_39\n      jump\t// in\n    tag_60:\n        /* \"#utility.yul\":483:488   */\n      dup2\n        /* \"#utility.yul\":480:515   */\n      eq\n        /* \"#utility.yul\":470:533   */\n      tag_61\n      jumpi\n        /* \"#utility.yul\":529:530   */\n      0x00\n        /* \"#utility.yul\":526:527   */\n      dup1\n        /* \"#utility.yul\":519:531   */\n      revert\n        /* \"#utility.yul\":470:533   */\n    tag_61:\n        /* \"#utility.yul\":417:539   */\n      pop\n      jump\t// out\n        /* \"#utility.yul\":545:684   */\n    tag_41:\n        /* \"#utility.yul\":591:596   */\n      0x00\n        /* \"#utility.yul\":629:635   */\n      dup2\n        /* \"#utility.yul\":616:636   */\n      calldataload\n        /* \"#utility.yul\":607:636   */\n      swap1\n      pop\n        /* \"#utility.yul\":645:678   */\n      tag_63\n        /* \"#utility.yul\":672:677   */\n      dup2\n        /* \"#utility.yul\":645:678   */\n      tag_40\n      jump\t// in\n    tag_63:\n        /* \"#utility.yul\":545:684   */\n      swap3\n      swap2\n      pop\n      pop\n      jump\t// out\n        /* \"#utility.yul\":690:1019   */\n    tag_9:\n        /* \"#utility.yul\":749:755   */\n      0x00\n        /* \"#utility.yul\":798:800   */\n      0x20\n        /* \"#utility.yul\":786:795   */\n      dup3\n        /* \"#utility.yul\":777:784   */\n      dup5\n        /* \"#utility.yul\":773:796   */\n      sub\n        /* \"#utility.yul\":769:801   */\n      slt\n        /* \"#utility.yul\":766:885   */\n      iszero\n      tag_65\n      jumpi\n        /* \"#utility.yul\":804:883   */\n      tag_66\n      tag_37\n      jump\t// in\n    tag_66:\n        /* \"#utility.yul\":766:885   */\n    tag_65:\n        /* \"#utility.yul\":924:925   */\n      0x00\n        /* \"#utility.yul\":949:1002   */\n      tag_67\n        /* \"#utility.yul\":994:1001   */\n      dup5\n        /* \"#utility.yul\":985:991   */\n      dup3\n        /* \"#utility.yul\":974:983   */\n      dup6\n        /* \"#utility.yul\":970:992   */\n      add\n        /* \"#utility.yul\":949:1002   */\n      tag_41\n      jump\t// in\n    tag_67:\n        /* \"#utility.yul\":939:1002   */\n      swap2\n      pop\n        /* \"#utility.yul\":895:1012   */\n      pop\n        /* \"#utility.yul\":690:1019   */\n      swap3\n      swap2\n      pop\n      pop\n      jump\t// out\n        /* \"#utility.yul\":1025:1151   */\n    tag_42:\n        /* \"#utility.yul\":1062:1069   */\n      0x00\n        /* \"#utility.yul\":1102:1144   */\n      0xffffffffffffffffffffffffffffffffffffffff\n        /* \"#utility.yul\":1095:1100   */\n      dup3\n        /* \"#utility.yul\":1091:1145   */\n      and\n        /* \"#utility.yul\":1080:1145   */\n      swap1\n      pop\n        /* \"#utility.yul\":1025:1151   */\n      swap2\n      swap1\n      pop\n      jump\t// out\n        /* \"#utility.yul\":1157:1253   */\n    tag_43:\n        /* \"#utility.yul\":1194:1201   */\n      0x00\n        /* \"#utility.yul\":1223:1247   */\n      tag_70\n        /* \"#utility.yul\":1241:1246   */\n      dup3\n        /* \"#utility.yul\":1223:1247   */\n      tag_42\n      jump\t// in\n    tag_70:\n        /* \"#utility.yul\":1212:1247   */\n      swap1\n      pop\n        /* \"#utility.yul\":1157:1253   */\n      swap2\n      swap1\n      pop\n      jump\t// out\n        /* \"#utility.yul\":1259:1377   */\n    tag_44:\n        /* \"#utility.yul\":1346:1370   */\n      tag_72\n        /* \"#utility.yul\":1364:1369   */\n      dup2\n        /* \"#utility.yul\":1346:1370   */\n      tag_43\n      jump\t// in\n    tag_72:\n        /* \"#utility.yul\":1341:1344   */\n      dup3\n        /* \"#utility.yul\":1334:1371   */\n      mstore\n        /* \"#utility.yul\":1259:1377   */\n      pop\n      pop\n      jump\t// out\n        /* \"#utility.yul\":1383:1460   */\n    tag_45:\n        /* \"#utility.yul\":1420:1427   */\n      0x00\n        /* \"#utility.yul\":1449:1454   */\n      dup2\n        /* \"#utility.yul\":1438:1454   */\n      swap1\n      pop\n        /* \"#utility.yul\":1383:1460   */\n      swap2\n      swap1\n      pop\n      jump\t// out\n        /* \"#utility.yul\":1466:1584   */\n    tag_46:\n        /* \"#utility.yul\":1553:1577   */\n      tag_75\n        /* \"#utility.yul\":1571:1576   */\n      dup2\n        /* \"#utility.yul\":1553:1577   */\n      tag_45\n      jump\t// in\n    tag_75:\n        /* \"#utility.yul\":1548:1551   */\n      dup3\n        /* \"#utility.yul\":1541:1578   */\n      mstore\n        /* \"#utility.yul\":1466:1584   */\n      pop\n      pop\n      jump\t// out\n        /* \"#utility.yul\":1590:1922   */\n    tag_12:\n        /* \"#utility.yul\":1711:1715   */\n      0x00\n        /* \"#utility.yul\":1749:1751   */\n      0x40\n        /* \"#utility.yul\":1738:1747   */\n      dup3\n        /* \"#utility.yul\":1734:1752   */\n      add\n        /* \"#utility.yul\":1726:1752   */\n      swap1\n      pop\n        /* \"#utility.yul\":1762:1833   */\n      tag_77\n        /* \"#utility.yul\":1830:1831   */\n      0x00\n        /* \"#utility.yul\":1819:1828   */\n      dup4\n        /* \"#utility.yul\":1815:1832   */\n      add\n        /* \"#utility.yul\":1806:1812   */\n      dup6\n        /* \"#utility.yul\":1762:1833   */\n      tag_44\n      jump\t// in\n    tag_77:\n        /* \"#utility.yul\":1843:1915   */\n      tag_78\n        /* \"#utility.yul\":1911:1913   */\n      0x20\n        /* \"#utility.yul\":1900:1909   */\n      dup4\n        /* \"#utility.yul\":1896:1914   */\n      add\n        /* \"#utility.yul\":1887:1893   */\n      dup5\n        /* \"#utility.yul\":1843:1915   */\n      tag_46\n      jump\t// in\n    tag_78:\n        /* \"#utility.yul\":1590:1922   */\n      swap4\n      swap3\n      pop\n      pop\n      pop\n      jump\t// out\n        /* \"#utility.yul\":1928:2018   */\n    tag_47:\n        /* \"#utility.yul\":1962:1969   */\n      0x00\n        /* \"#utility.yul\":2005:2010   */\n      dup2\n        /* \"#utility.yul\":1998:2011   */\n      iszero\n        /* \"#utility.yul\":1991:2012   */\n      iszero\n        /* \"#utility.yul\":1980:2012   */\n      swap1\n      pop\n        /* \"#utility.yul\":1928:2018   */\n      swap2\n      swap1\n      pop\n      jump\t// out\n        /* \"#utility.yul\":2024:2133   */\n    tag_48:\n        /* \"#utility.yul\":2105:2126   */\n      tag_81\n        /* \"#utility.yul\":2120:2125   */\n      dup2\n        /* \"#utility.yul\":2105:2126   */\n      tag_47\n      jump\t// in\n    tag_81:\n        /* \"#utility.yul\":2100:2103   */\n      dup3\n        /* \"#utility.yul\":2093:2127   */\n      mstore\n        /* \"#utility.yul\":2024:2133   */\n      pop\n      pop\n      jump\t// out\n        /* \"#utility.yul\":2139:2349   */\n    tag_21:\n        /* \"#utility.yul\":2226:2230   */\n      0x00\n        /* \"#utility.yul\":2264:2266   */\n      0x20\n        /* \"#utility.yul\":2253:2262   */\n      dup3\n        /* \"#utility.yul\":2249:2267   */\n      add\n        /* \"#utility.yul\":2241:2267   */\n      swap1\n      pop\n        /* \"#utility.yul\":2277:2342   */\n      tag_83\n        /* \"#utility.yul\":2339:2340   */\n      0x00\n        /* \"#utility.yul\":2328:2337   */\n      dup4\n        /* \"#utility.yul\":2324:2341   */\n      add\n        /* \"#utility.yul\":2315:2321   */\n      dup5\n        /* \"#utility.yul\":2277:2342   */\n      tag_48\n      jump\t// in\n    tag_83:\n        /* \"#utility.yul\":2139:2349   */\n      swap3\n      swap2\n      pop\n      pop\n      jump\t// out\n        /* \"#utility.yul\":2355:2524   */\n    tag_49:\n        /* \"#utility.yul\":2439:2450   */\n      0x00\n        /* \"#utility.yul\":2473:2479   */\n      dup3\n        /* \"#utility.yul\":2468:2471   */\n      dup3\n        /* \"#utility.yul\":2461:2480   */\n      mstore\n        /* \"#utility.yul\":2513:2517   */\n      0x20\n        /* \"#utility.yul\":2508:2511   */\n      dup3\n        /* \"#utility.yul\":2504:2518   */\n      add\n        /* \"#utility.yul\":2489:2518   */\n      swap1\n      pop\n        /* \"#utility.yul\":2355:2524   */\n      swap3\n      swap2\n      pop\n      pop\n      jump\t// out\n        /* \"#utility.yul\":2530:2692   */\n    tag_50:\n        /* \"#utility.yul\":2670:2684   */\n      0x496e76616c696420686173680000000000000000000000000000000000000000\n        /* \"#utility.yul\":2666:2667   */\n      0x00\n        /* \"#utility.yul\":2658:2664   */\n      dup3\n        /* \"#utility.yul\":2654:2668   */\n      add\n        /* \"#utility.yul\":2647:2685   */\n      mstore\n        /* \"#utility.yul\":2530:2692   */\n      pop\n      jump\t// out\n        /* \"#utility.yul\":2698:3064   */\n    tag_51:\n        /* \"#utility.yul\":2840:2843   */\n      0x00\n        /* \"#utility.yul\":2861:2928   */\n      tag_87\n        /* \"#utility.yul\":2925:2927   */\n      0x0c\n        /* \"#utility.yul\":2920:2923   */\n      dup4\n        /* \"#utility.yul\":2861:2928   */\n      tag_49\n      jump\t// in\n    tag_87:\n        /* \"#utility.yul\":2854:2928   */\n      swap2\n      pop\n        /* \"#utility.yul\":2937:3030   */\n      tag_88\n        /* \"#utility.yul\":3026:3029   */\n      dup3\n        /* \"#utility.yul\":2937:3030   */\n      tag_50\n      jump\t// in\n    tag_88:\n        /* \"#utility.yul\":3055:3057   */\n      0x20\n        /* \"#utility.yul\":3050:3053   */\n      dup3\n        /* \"#utility.yul\":3046:3058   */\n      add\n        /* \"#utility.yul\":3039:3058   */\n      swap1\n      pop\n        /* \"#utility.yul\":2698:3064   */\n      swap2\n      swap1\n      pop\n      jump\t// out\n        /* \"#utility.yul\":3070:3489   */\n    tag_30:\n        /* \"#utility.yul\":3236:3240   */\n      0x00\n        /* \"#utility.yul\":3274:3276   */\n      0x20\n        /* \"#utility.yul\":3263:3272   */\n      dup3\n        /* \"#utility.yul\":3259:3277   */\n      add\n        /* \"#utility.yul\":3251:3277   */\n      swap1\n      pop\n        /* \"#utility.yul\":3323:3332   */\n      dup2\n        /* \"#utility.yul\":3317:3321   */\n      dup2\n        /* \"#utility.yul\":3313:3333   */\n      sub\n        /* \"#utility.yul\":3309:3310   */\n      0x00\n        /* \"#utility.yul\":3298:3307   */\n      dup4\n        /* \"#utility.yul\":3294:3311   */\n      add\n        /* \"#utility.yul\":3287:3334   */\n      mstore\n        /* \"#utility.yul\":3351:3482   */\n      tag_90\n        /* \"#utility.yul\":3477:3481   */\n      dup2\n        /* \"#utility.yul\":3351:3482   */\n      tag_51\n      jump\t// in\n    tag_90:\n        /* \"#utility.yul\":3343:3482   */\n      swap1\n      pop\n        /* \"#utility.yul\":3070:3489   */\n      swap2\n      swap1\n      pop\n      jump\t// out\n        /* \"#utility.yul\":3495:3663   */\n    tag_52:\n        /* \"#utility.yul\":3635:3655   */\n      0x416c726561647920726567697374657265640000000000000000000000000000\n        /* \"#utility.yul\":3631:3632   */\n      0x00\n        /* \"#utility.yul\":3623:3629   */\n      dup3\n        /* \"#utility.yul\":3619:3633   */\n      add\n        /* \"#utility.yul\":3612:3656   */\n      mstore\n        /* \"#utility.yul\":3495:3663   */\n      pop\n      jump\t// out\n        /* \"#utility.yul\":3669:4035   */\n    tag_53:\n        /* \"#utility.yul\":3811:3814   */\n      0x00\n        /* \"#utility.yul\":3832:3899   */\n      tag_93\n        /* \"#utility.yul\":3896:3898   */\n      0x12\n        /* \"#utility.yul\":3891:3894   */\n      dup4\n        /* \"#utility.yul\":3832:3899   */\n      tag_49\n      jump\t// in\n    tag_93:\n        /* \"#utility.yul\":3825:3899   */\n      swap2\n      pop\n        /* \"#utility.yul\":3908:4001   */\n      tag_94\n        /* \"#utility.yul\":3997:4000   */\n      dup3\n        /* \"#utility.yul\":3908:4001   */\n      tag_52\n      jump\t// in\n    tag_94:\n        /* \"#utility.yul\":4026:4028   */\n      0x20\n        /* \"#utility.yul\":4021:4024   */\n      dup3\n        /* \"#utility.yul\":4017:4029   */\n      add\n        /* \"#utility.yul\":4010:4029   */\n      swap1\n      pop\n        /* \"#utility.yul\":3669:4035   */\n      swap2\n      swap1\n      pop\n      jump\t// out\n        /* \"#utility.yul\":4041:4460   */\n    tag_33:\n        /* \"#utility.yul\":4207:4211   */\n      0x00\n        /* \"#utility.yul\":4245:4247   */\n      0x20\n        /* \"#utility.yul\":4234:4243   */\n      dup3\n        /* \"#utility.yul\":4230:4248   */\n      add\n        /* \"#utility.yul\":4222:4248   */\n      swap1\n      pop\n        /* \"#utility.yul\":4294:4303   */\n      dup2\n        /* \"#utility.yul\":4288:4292   */\n      dup2\n        /* \"#utility.yul\":4284:4304   */\n      sub\n        /* \"#utility.yul\":4280:4281   */\n      0x00\n        /* \"#utility.yul\":4269:4278   */\n      dup4\n        /* \"#utility.yul\":4265:4282   */\n      add\n        /* \"#utility.yul\":4258:4305   */\n      mstore\n        /* \"#utility.yul\":4322:4453   */\n      tag_96\n        /* \"#utility.yul\":4448:4452   */\n      dup2\n        /* \"#utility.yul\":4322:4453   */\n      tag_53\n      jump\t// in\n    tag_96:\n        /* \"#utility.yul\":4314:4453   */\n      swap1\n      pop\n        /* \"#utility.yul\":4041:4460   */\n      swap2\n      swap1\n      pop\n      jump\t// out\n        /* \"#utility.yul\":4466:4688   */\n    tag_35:\n        /* \"#utility.yul\":4559:4563   */\n      0x00\n        /* \"#utility.yul\":4597:4599   */\n      0x20\n        /* \"#utility.yul\":4586:4595   */\n      dup3\n        /* \"#utility.yul\":4582:4600   */\n      add\n        /* \"#utility.yul\":4574:4600   */\n      swap1\n      pop\n        /* \"#utility.yul\":4610:4681   */\n      tag_98\n        /* \"#utility.yul\":4678:4679   */\n      0x00\n        /* \"#utility.yul\":4667:4676   */\n      dup4\n        /* \"#utility.yul\":4663:4680   */\n      add\n        /* \"#utility.yul\":4654:4660   */\n      dup5\n        /* \"#utility.yul\":4610:4681   */\n      tag_46\n      jump\t// in\n    tag_98:\n        /* \"#utility.yul\":4466:4688   */\n      swap3\n      swap2\n      pop\n      pop\n      jump\t// out\n\n    auxdata: 0xa2646970667358221220e742e0abcc694888d765b770d0a073b566f4b656e0c851d70b67bdfb150bb33064736f6c63430008140033\n}\n",
				"bytecode": {
					"linkReferences": {},
					"object": "608060405234801561000f575f80fd5b506105a38061001d5f395ff3fe608060405234801561000f575f80fd5b506004361061004a575f3560e01c806301e647251461004e578063213681cd1461007f57806327258b22146100b0578063e1fa8e84146100e0575b5f80fd5b61006860048036038101906100639190610398565b6100fc565b60405161007692919061041a565b60405180910390f35b61009960048036038101906100949190610398565b61013a565b6040516100a792919061041a565b60405180910390f35b6100ca60048036038101906100c59190610398565b6101cb565b6040516100d7919061045b565b60405180910390f35b6100fa60048036038101906100f59190610398565b6101ea565b005b5f602052805f5260405f205f91509050805f015f9054906101000a900473ffffffffffffffffffffffffffffffffffffffff16908060010154905082565b5f805f805f8581526020019081526020015f206040518060400160405290815f82015f9054906101000a900473ffffffffffffffffffffffffffffffffffffffff1673ffffffffffffffffffffffffffffffffffffffff1673ffffffffffffffffffffffffffffffffffffffff1681526020016001820154815250509050805f015181602001519250925050915091565b5f805f808481526020019081526020015f206001015414159050919050565b5f801b810361022e576040517f08c379a0000000000000000000000000000000000000000000000000000000008152600401610225906104ce565b60405180910390fd5b5f805f8381526020019081526020015f206001015414610283576040517f08c379a000000000000000000000000000000000000000000000000000000000815260040161027a90610536565b60405180910390fd5b60405180604001604052803373ffffffffffffffffffffffffffffffffffffffff168152602001428152505f808381526020019081526020015f205f820151815f015f6101000a81548173ffffffffffffffffffffffffffffffffffffffff021916908373ffffffffffffffffffffffffffffffffffffffff160217905550602082015181600101559050503373ffffffffffffffffffffffffffffffffffffffff16817f6569e54c43a697fc61e67763858d5abef16899d2b13215c7c07090aa878b24a8426040516103569190610554565b60405180910390a350565b5f80fd5b5f819050919050565b61037781610365565b8114610381575f80fd5b50565b5f813590506103928161036e565b92915050565b5f602082840312156103ad576103ac610361565b5b5f6103ba84828501610384565b91505092915050565b5f73ffffffffffffffffffffffffffffffffffffffff82169050919050565b5f6103ec826103c3565b9050919050565b6103fc816103e2565b82525050565b5f819050919050565b61041481610402565b82525050565b5f60408201905061042d5f8301856103f3565b61043a602083018461040b565b9392505050565b5f8115159050919050565b61045581610441565b82525050565b5f60208201905061046e5f83018461044c565b92915050565b5f82825260208201905092915050565b7f496e76616c6964206861736800000000000000000000000000000000000000005f82015250565b5f6104b8600c83610474565b91506104c382610484565b602082019050919050565b5f6020820190508181035f8301526104e5816104ac565b9050919050565b7f416c7265616479207265676973746572656400000000000000000000000000005f82015250565b5f610520601283610474565b915061052b826104ec565b602082019050919050565b5f6020820190508181035f83015261054d81610514565b9050919050565b5f6020820190506105675f83018461040b565b9291505056fea2646970667358221220e742e0abcc694888d765b770d0a073b566f4b656e0c851d70b67bdfb150bb33064736f6c63430008140033",
					"opcodes": "PUSH1 0x80 PUSH1 0x40 MSTORE CALLVALUE DUP1 ISZERO PUSH2 0xF JUMPI PUSH0 DUP1 REVERT JUMPDEST POP PUSH2 0x5A3 DUP1 PUSH2 0x1D PUSH0 CODECOPY PUSH0 RETURN INVALID PUSH1 0x80 PUSH1 0x40 MSTORE CALLVALUE DUP1 ISZERO PUSH2 0xF JUMPI PUSH0 DUP1 REVERT JUMPDEST POP PUSH1 0x4 CALLDATASIZE LT PUSH2 0x4A JUMPI PUSH0 CALLDATALOAD PUSH1 0xE0 SHR DUP1 PUSH4 0x1E64725 EQ PUSH2 0x4E JUMPI DUP1 PUSH4 0x213681CD EQ PUSH2 0x7F JUMPI DUP1 PUSH4 0x27258B22 EQ PUSH2 0xB0 JUMPI DUP1 PUSH4 0xE1FA8E84 EQ PUSH2 0xE0 JUMPI JUMPDEST PUSH0 DUP1 REVERT JUMPDEST PUSH2 0x68 PUSH1 0x4 DUP1 CALLDATASIZE SUB DUP2 ADD SWAP1 PUSH2 0x63 SWAP2 SWAP1 PUSH2 0x398 JUMP JUMPDEST PUSH2 0xFC JUMP JUMPDEST PUSH1 0x40 MLOAD PUSH2 0x76 SWAP3 SWAP2 SWAP1 PUSH2 0x41A JUMP JUMPDEST PUSH1 0x40 MLOAD DUP1 SWAP2 SUB SWAP1 RETURN JUMPDEST PUSH2 0x99 PUSH1 0x4 DUP1 CALLDATASIZE SUB DUP2 ADD SWAP1 PUSH2 0x94 SWAP2 SWAP1 PUSH2 0x398 JUMP JUMPDEST PUSH2 0x13A JUMP JUMPDEST PUSH1 0x40 MLOAD PUSH2 0xA7 SWAP3 SWAP2 SWAP1 PUSH2 0x41A JUMP JUMPDEST PUSH1 0x40 MLOAD DUP1 SWAP2 SUB SWAP1 RETURN JUMPDEST PUSH2 0xCA PUSH1 0x4 DUP1 CALLDATASIZE SUB DUP2 ADD SWAP1 PUSH2 0xC5 SWAP2 SWAP1 PUSH2 0x398 JUMP JUMPDEST PUSH2 0x1CB JUMP JUMPDEST PUSH1 0x40 MLOAD PUSH2 0xD7 SWAP2 SWAP1 PUSH2 0x45B JUMP JUMPDEST PUSH1 0x40 MLOAD DUP1 SWAP2 SUB SWAP1 RETURN JUMPDEST PUSH2 0xFA PUSH1 0x4 DUP1 CALLDATASIZE SUB DUP2 ADD SWAP1 PUSH2 0xF5 SWAP2 SWAP1 PUSH2 0x398 JUMP JUMPDEST PUSH2 0x1EA JUMP JUMPDEST STOP JUMPDEST PUSH0 PUSH1 0x20 MSTORE DUP1 PUSH0 MSTORE PUSH1 0x40 PUSH0 KECCAK256 PUSH0 SWAP2 POP SWAP1 POP DUP1 PUSH0 ADD PUSH0 SWAP1 SLOAD SWAP1 PUSH2 0x100 EXP SWAP1 DIV PUSH20 0xFFFFFFFFFFFFFFFFFFFFFFFFFFFFFFFFFFFFFFFF AND SWAP1 DUP1 PUSH1 0x1 ADD SLOAD SWAP1 POP DUP3 JUMP JUMPDEST PUSH0 DUP1 PUSH0 DUP1 PUSH0 DUP6 DUP2 MSTORE PUSH1 0x20 ADD SWAP1 DUP2 MSTORE PUSH1 0x20 ADD PUSH0 KECCAK256 PUSH1 0x40 MLOAD DUP1 PUSH1 0x40 ADD PUSH1 0x40 MSTORE SWAP1 DUP2 PUSH0 DUP3 ADD PUSH0 SWAP1 SLOAD SWAP1 PUSH2 0x100 EXP SWAP1 DIV PUSH20 0xFFFFFFFFFFFFFFFFFFFFFFFFFFFFFFFFFFFFFFFF AND PUSH20 0xFFFFFFFFFFFFFFFFFFFFFFFFFFFFFFFFFFFFFFFF AND PUSH20 0xFFFFFFFFFFFFFFFFFFFFFFFFFFFFFFFFFFFFFFFF AND DUP2 MSTORE PUSH1 0x20 ADD PUSH1 0x1 DUP3 ADD SLOAD DUP2 MSTORE POP POP SWAP1 POP DUP1 PUSH0 ADD MLOAD DUP2 PUSH1 0x20 ADD MLOAD SWAP3 POP SWAP3 POP POP SWAP2 POP SWAP2 JUMP JUMPDEST PUSH0 DUP1 PUSH0 DUP1 DUP5 DUP2 MSTORE PUSH1 0x20 ADD SWAP1 DUP2 MSTORE PUSH1 0x20 ADD PUSH0 KECCAK256 PUSH1 0x1 ADD SLOAD EQ ISZERO SWAP1 POP SWAP2 SWAP1 POP JUMP JUMPDEST PUSH0 DUP1 SHL DUP2 SUB PUSH2 0x22E JUMPI PUSH1 0x40 MLOAD PUSH32 0x8C379A000000000000000000000000000000000000000000000000000000000 DUP2 MSTORE PUSH1 0x4 ADD PUSH2 0x225 SWAP1 PUSH2 0x4CE JUMP JUMPDEST PUSH1 0x40 MLOAD DUP1 SWAP2 SUB SWAP1 REVERT JUMPDEST PUSH0 DUP1 PUSH0 DUP4 DUP2 MSTORE PUSH1 0x20 ADD SWAP1 DUP2 MSTORE PUSH1 0x20 ADD PUSH0 KECCAK256 PUSH1 0x1 ADD SLOAD EQ PUSH2 0x283 JUMPI PUSH1 0x40 MLOAD PUSH32 0x8C379A000000000000000000000000000000000000000000000000000000000 DUP2 MSTORE PUSH1 0x4 ADD PUSH2 0x27A SWAP1 PUSH2 0x536 JUMP JUMPDEST PUSH1 0x40 MLOAD DUP1 SWAP2 SUB SWAP1 REVERT JUMPDEST PUSH1 0x40 MLOAD DUP1 PUSH1 0x40 ADD PUSH1 0x40 MSTORE DUP1 CALLER PUSH20 0xFFFFFFFFFFFFFFFFFFFFFFFFFFFFFFFFFFFFFFFF AND DUP2 MSTORE PUSH1 0x20 ADD TIMESTAMP DUP2 MSTORE POP PUSH0 DUP1 DUP4 DUP2 MSTORE PUSH1 0x20 ADD SWAP1 DUP2 MSTORE PUSH1 0x20 ADD PUSH0 KECCAK256 PUSH0 DUP3 ADD MLOAD DUP2 PUSH0 ADD PUSH0 PUSH2 0x100 EXP DUP2 SLOAD DUP2 PUSH20 0xFFFFFFFFFFFFFFFFFFFFFFFFFFFFFFFFFFFFFFFF MUL NOT AND SWAP1 DUP4 PUSH20 0xFFFFFFFFFFFFFFFFFFFFFFFFFFFFFFFFFFFFFFFF AND MUL OR SWAP1 SSTORE POP PUSH1 0x20 DUP3 ADD MLOAD DUP2 PUSH1 0x1 ADD SSTORE SWAP1 POP POP CALLER PUSH20 0xFFFFFFFFFFFFFFFFFFFFFFFFFFFFFFFFFFFFFFFF AND DUP2 PUSH32 0x6569E54C43A697FC61E67763858D5ABEF16899D2B13215C7C07090AA878B24A8 TIMESTAMP PUSH1 0x40 MLOAD PUSH2 0x356 SWAP2 SWAP1 PUSH2 0x554 JUMP JUMPDEST PUSH1 0x40 MLOAD DUP1 SWAP2 SUB SWAP1 LOG3 POP JUMP JUMPDEST PUSH0 DUP1 REVERT JUMPDEST PUSH0 DUP2 SWAP1 POP SWAP2 SWAP1 POP JUMP JUMPDEST PUSH2 0x377 DUP2 PUSH2 0x365 JUMP JUMPDEST DUP2 EQ PUSH2 0x381 JUMPI PUSH0 DUP1 REVERT JUMPDEST POP JUMP JUMPDEST PUSH0 DUP2 CALLDATALOAD SWAP1 POP PUSH2 0x392 DUP2 PUSH2 0x36E JUMP JUMPDEST SWAP3 SWAP2 POP POP JUMP JUMPDEST PUSH0 PUSH1 0x20 DUP3 DUP5 SUB SLT ISZERO PUSH2 0x3AD JUMPI PUSH2 0x3AC PUSH2 0x361 JUMP JUMPDEST JUMPDEST PUSH0 PUSH2 0x3BA DUP5 DUP3 DUP6 ADD PUSH2 0x384 JUMP JUMPDEST SWAP2 POP POP SWAP3 SWAP2 POP POP JUMP JUMPDEST PUSH0 PUSH20 0xFFFFFFFFFFFFFFFFFFFFFFFFFFFFFFFFFFFFFFFF DUP3 AND SWAP1 POP SWAP2 SWAP1 POP JUMP JUMPDEST PUSH0 PUSH2 0x3EC DUP3 PUSH2 0x3C3 JUMP JUMPDEST SWAP1 POP SWAP2 SWAP1 POP JUMP JUMPDEST PUSH2 0x3FC DUP2 PUSH2 0x3E2 JUMP JUMPDEST DUP3 MSTORE POP POP JUMP JUMPDEST PUSH0 DUP2 SWAP1 POP SWAP2 SWAP1 POP JUMP JUMPDEST PUSH2 0x414 DUP2 PUSH2 0x402 JUMP JUMPDEST DUP3 MSTORE POP POP JUMP JUMPDEST PUSH0 PUSH1 0x40 DUP3 ADD SWAP1 POP PUSH2 0x42D PUSH0 DUP4 ADD DUP6 PUSH2 0x3F3 JUMP JUMPDEST PUSH2 0x43A PUSH1 0x20 DUP4 ADD DUP5 PUSH2 0x40B JUMP JUMPDEST SWAP4 SWAP3 POP POP POP JUMP JUMPDEST PUSH0 DUP2 ISZERO ISZERO SWAP1 POP SWAP2 SWAP1 POP JUMP JUMPDEST PUSH2 0x455 DUP2 PUSH2 0x441 JUMP JUMPDEST DUP3 MSTORE POP POP JUMP JUMPDEST PUSH0 PUSH1 0x20 DUP3 ADD SWAP1 POP PUSH2 0x46E PUSH0 DUP4 ADD DUP5 PUSH2 0x44C JUMP JUMPDEST SWAP3 SWAP2 POP POP JUMP JUMPDEST PUSH0 DUP3 DUP3 MSTORE PUSH1 0x20 DUP3 ADD SWAP1 POP SWAP3 SWAP2 POP POP JUMP JUMPDEST PUSH32 0x496E76616C696420686173680000000000000000000000000000000000000000 PUSH0 DUP3 ADD MSTORE POP JUMP JUMPDEST PUSH0 PUSH2 0x4B8 PUSH1 0xC DUP4 PUSH2 0x474 JUMP JUMPDEST SWAP2 POP PUSH2 0x4C3 DUP3 PUSH2 0x484 JUMP JUMPDEST PUSH1 0x20 DUP3 ADD SWAP1 POP SWAP2 SWAP1 POP JUMP JUMPDEST PUSH0 PUSH1 0x20 DUP3 ADD SWAP1 POP DUP2 DUP2 SUB PUSH0 DUP4 ADD MSTORE PUSH2 0x4E5 DUP2 PUSH2 0x4AC JUMP JUMPDEST SWAP1 POP SWAP2 SWAP1 POP JUMP JUMPDEST PUSH32 0x416C726561647920726567697374657265640000000000000000000000000000 PUSH0 DUP3 ADD MSTORE POP JUMP JUMPDEST PUSH0 PUSH2 0x520 PUSH1 0x12 DUP4 PUSH2 0x474 JUMP JUMPDEST SWAP2 POP PUSH2 0x52B DUP3 PUSH2 0x4EC JUMP JUMPDEST PUSH1 0x20 DUP3 ADD SWAP1 POP SWAP2 SWAP1 POP JUMP JUMPDEST PUSH0 PUSH1 0x20 DUP3 ADD SWAP1 POP DUP2 DUP2 SUB PUSH0 DUP4 ADD MSTORE PUSH2 0x54D DUP2 PUSH2 0x514 JUMP JUMPDEST SWAP1 POP SWAP2 SWAP1 POP JUMP JUMPDEST PUSH0 PUSH1 0x20 DUP3 ADD SWAP1 POP PUSH2 0x567 PUSH0 DUP4 ADD DUP5 PUSH2 0x40B JUMP JUMPDEST SWAP3 SWAP2 POP POP JUMP INVALID LOG2 PUSH5 0x6970667358 0x22 SLT KECCAK256 0xE7 TIMESTAMP 0xE0 0xAB 0xCC PUSH10 0x4888D765B770D0A073B5 PUSH7 0xF4B656E0C851D7 SIGNEXTEND PUSH8 0xBDFB150BB3306473 PUSH16 0x6C634300081400330000000000000000 "
				},
				"gasEstimates": {
					"creation": {
						"codeDepositCost": "288600",
						"executionCost": "329",
						"totalCost": "288929"
					},
					"external": {
						"getRecord(bytes32)": "5175",
						"isRegistered(bytes32)": "2812",
						"records(bytes32)": "5038",
						"register(bytes32)": "51171"
					}
				},
				"methodIdentifiers": {
					"getRecord(bytes32)": "213681cd",
					"isRegistered(bytes32)": "27258b22",
					"records(bytes32)": "01e64725",
					"register(bytes32)": "e1fa8e84"
				}
			},
			"storageLayout": {
				"storage": [
					{
						"astId": 12,
						"contract": "contracts/ChronaxRegistry.sol:ChronaXRegistry",
						"label": "records",
						"offset": 0,
						"slot": "0",
						"type": "t_mapping(t_bytes32,t_struct(Record)7_storage)"
					}
				],
				"types": {
					"t_address": {
						"encoding": "inplace",
						"label": "address",
						"numberOfBytes": "20"
					},
					"t_bytes32": {
						"encoding": "inplace",
						"label": "bytes32",
						"numberOfBytes": "32"
					},
					"t_mapping(t_bytes32,t_struct(Record)7_storage)": {
						"encoding": "mapping",
						"key": "t_bytes32",
						"label": "mapping(bytes32 => struct ChronaXRegistry.Record)",
						"numberOfBytes": "32",
						"value": "t_struct(Record)7_storage"
					},
					"t_struct(Record)7_storage": {
						"encoding": "inplace",
						"label": "struct ChronaXRegistry.Record",
						"members": [
							{
								"astId": 4,
								"contract": "contracts/ChronaxRegistry.sol:ChronaXRegistry",
								"label": "owner",
								"offset": 0,
								"slot": "0",
								"type": "t_address"
							},
							{
								"astId": 6,
								"contract": "contracts/ChronaxRegistry.sol:ChronaXRegistry",
								"label": "timestamp",
								"offset": 0,
								"slot": "1",
								"type": "t_uint256"
							}
						],
						"numberOfBytes": "64"
					},
					"t_uint256": {
						"encoding": "inplace",
						"label": "uint256",
						"numberOfBytes": "32"
					}
				}
			},
			"userdoc": {
				"kind": "user",
				"methods": {
					"getRecord(bytes32)": {
						"notice": "Get info (owner + timestamp)"
					},
					"isRegistered(bytes32)": {
						"notice": "Check if a hash already exists"
					},
					"register(bytes32)": {
						"notice": "Register a document hash"
					}
				},
				"notice": "Proof-of-Existence timestamp registry for ChronaX",
				"version": 1
			}
		}
	}
}